:020000040000FA
:10000000C0030020F500000015010000D900000029
:1000100000000000000000000000000000000000E0
:1000200000000000000000000000000019010000B6
:1000300000000000000000001B0100001D01000086
:100040001F0100001F010000550A00001F010000F1
:10005000FD0B0000511000001F0100001F010000F7
:1000600019200000ED2500001F0100001F01000005
:100070001F0100001F0100001F0100001F01000000
:100080001F0100001F0100001F0100001F010000F0
:100090001F0100001F0100001F0100001F010000E0
:1000A0001F0100001F0100001F0100001F010000D0
:1000B0001F0100001F0100001F0100001F010000C0
:1000C0000448854600F094F80048004705380000D1
:1000D000C046C046C003002004207146084202D03A
:1000E000EFF3098001E0EFF308807146004A104702
:1000F000FD1400000A480B4901600B4901600B49DF
:1001000001600B4A0B491160002101600A488047D9
:100110000A480047FEE7FEE7FEE7FEE7FEE7FEE7E8
:100120000001005059000000160000008800000087
:1001300024000050A55A0000951F0000C1000000D7
:1001400030B50B46014600202022012409E00D466F
:10015000D5409D4205D31D469540491B25469540F7
:1001600040191546521E002DF1DC30BD03460B43ED
:100170009B0703D009E008C9121F08C0042AFAD25D
:1001800003E00B780370401C491C521EF9D27047E3
:10019000F0B51FB40646002082B005464024019108
:1001A00000901BE0019922460F46304600F042F8CD
:1001B000049A059B801A994110D31046194622468D
:1001C00000F028F8361A8F410197224601200021BD
:1001D000009F00F01FF838184D4100902046641E23
:1001E0000028DFDC019B00982946324607B0F0BDAD
:1001F000064C0125064E05E0E36807CC2B430C3C7A
:1002000098471034B442F7D3FFF75EFFF43B000089
:10021000143C000010B5202A04DB0146203A91402E
:10022000002010BD914020239C1A0346E34019434F
:10023000904010BD10B5202A04DB0846203AD0407B
:10024000002110BD0B46D340D0402024A21A91407B
:100250000843194610BD0000FF21F53110B5484391
:100260000149FFF76DFF10BDFF0F000010B50B4CEB
:10027000204600F07DF9032252040C21204600F0B4
:10028000E7FA074C7F230C220021204600F00AF8F1
:10029000216A01221143216210BD00001CFE235679
:1002A00000000E4030B50648046A064D2C400C4351
:1002B00014430462416A090A09021943416230BDCC
:1002C00000000E40F3FBFFFFF8B58B4E8B493278F0
:1002D000097800258A4200D075600278884F012194
:1002E000884C130003F002F90FEFCDDAAEEF8F8FD9
:1002F00074AE744310093C2DEF007268521C72609A
:10030000642A19D3756016E07268521C72606161CC
:10031000A161C82A10D97C4AE12311717B4A397145
:100320001268DB009A4202D9A5610D2107E0784BE3
:10033000D218462A01D20170D2E0A5610E210170C7
:10034000CDE07068401C70602828F5D30246283A3A
:10035000282A01D8A161C3E05028EDD9656176E073
:100360007268521C7260282AE6D9A16149E070685F
:10037000401C7060342803D221616561A5610DE0E5
:100380000246343A482A02D22561616105E00246FC
:100390007C3A342A06D221616561A161F62806D330
:1003A00071609DE00246B03A462AEDD3F6E7C828D0
:1003B0000DD1B078401CC1B2B17056A003F086F8E0
:1003C000B0783C2803D358A003F080F8E56187E0BB
:1003D0007268521C7260102A39D31346103B102BDE
:1003E00005D3103B102B09D3103B102B02D26161B7
:1003F000A16104E011464039102900D2A561502ABC
:100400006ED305706CE07068401C7060642810D278
:1004100055480068012802D07078012860D17170B9
:100420003868142148435149884259D26561256191
:1004300056E00246643A642A01D261612161C8280B
:100440004DD84DE07068401C70600A2801D2A5614B
:1004500046E002460A3A0A2A0ED30A3A0A2A05D385
:100460000A3A0A2A08D30A3A0A2A01D2A56105E003
:100470000246323A1E2A01D26161A16150282ED271
:100480002EE07068401C7060362802D26561A5615C
:1004900001E06161A161672821D821E07068401CFA
:1004A000706014280CD30246153A512A11D3523ADF
:1004B000132A05D3143A512A0BD3523A7B2A03D27A
:1004C0006561A56107E00FE00246FF3A4A3A512A0A
:1004D00001D26561A161FF219B31884200D975601D
:1004E000064800783070F8BD6161E1602161A1616A
:1004F000A1616161F3E7000014000020D800002032
:1005000084000020004200507C0000200C010020EC
:100510003EF9FFFF09096D753842757A4379636CBE
:1005200065203D2025640A00202020202020202056
:1005300020202020202020202020202020202020BB
:1005400020202020202020202A2A2036307320201E
:100550004944204572726F7220506F776572206F28
:100560006666202A2A0A0000DC000020404B4C006E
:10057000810F8A00044951184A68C306DB0E012026
:10058000984002434A60704700020050F0B50700EF
:100590000C46564885B054490162554E016813D047
:1005A000042211430160102000F0BAF90120C004B8
:1005B00002905048042503904F4850492018884223
:1005C0000DD8002004901CE0012211430160104668
:1005D00000F0A6F90020022503960290ECE74848B7
:1005E00048492018884203D801206400049008E09C
:1005F0004548454920184942884249D80320A4006B
:1006000004900026F64300200090019021E0294646
:100610000398FFF795FD3D493D4A4118914217D295
:100620000222354B014651435B1CCF185B429F426F
:100630000AD8A14201D90B1B00E0631AB34203D2CE
:100640001E000095019203D03249521C8A42E8D91B
:100650006D1C212DDBD90498029980030843009971
:10066000012249029202891A08430199891E08430E
:100670001E490862042000F053F904990098491CAF
:1006800041430398FFF75CFD0199484305B0F0BD75
:10069000002F0FD0204915480162042000F040F9D6
:1006A0001EA0006800901148016A0013014203D0A7
:1006B0000020EBE71A49EEE7080300D50D4E88034A
:1006C00001D53046E2E70804800F6A46105CCA058F
:1006D0008904C90E891CD20D4143B008921C5043B5
:1006E000FFF72EFD8000D1E700000100000200505E
:1006F000001BB70000805101FF1E0AFAFFE0F5055C
:100700007F0F05FD7FF0FA02C08782FEFF95E7FFAD
:10071000BF77CC00010200006FD600000102020486
:100720002EC2000002490A6802430A6070470000B6
:100730000002005008B511A0006800901048016A3E
:100740000013014201D0002008BD080301D50D4867
:1007500000E00D488A03F7D40A04920F6B469B5CB5
:10076000CA058904D20DC90E891C8008921C594300
:100770005043FFF7E5FC800008BD000001020204C1
:100780000002005000805101001BB700F8B51B4C5F
:100790000546E668102006401948854202D84010F8
:1007A000854200D205462068042738432060102087
:1007B00000F0B6F82069072108432061A06900090C
:1007C0000001A06120682946C00704D00020FFF77F
:1007D000DDFE054607E00120C004FFF7D7FEE6680E
:1007E0000546102006400021022000F00BF8002EE4
:1007F00002D12068B84320602846F8BD00020050AE
:1008000080F0FA02F3B5114C81B0E5680F4610266E
:100810002068354030432060304600F081F8206980
:10082000072108432061A069000900013843A06145
:100830002069C1080198C9000143216101F062FBF0
:10084000002D02D12068B0432060FEBD00020050A0
:1008500070B5430E5B070DD083009B0F0F4C9B00C0
:100860001B191C6805016D0FC601F60EB540AC439F
:100870000C431C60830A1906090E0ED00103074CB5
:10088000890F8900083409190C68DBB28005DB4345
:10089000C00E8340234013430B6070BD1002005014
:1008A00070B50D4A0B4905260C4B1568002488428B
:1008B00001D9401A01E0014600200A466A435A6104
:1008C0009C611E611A69D203FCD51C610028EED11F
:1008D00070BD0000B81E05000400002000E000E02C
:1008E00070B50D4A0B4905260C4B1568002488424B
:1008F00001D9401A01E0014600200A466A435A61C4
:100900009C611E611A69D203FCD51C610028EED1DE
:1009100070BD0000B81E05000400002000E000E0EB
:1009200010B504460749084B05E00A46491E002A4F
:1009300001DC002010BDDA6820469043F5D101208B
:1009400010BD0000804F120000020050F8B534487E
:100950000125016800243348334A00290BD001786F
:100960003248334F334E002925D0022922D1936BD0
:10097000002B26D150E0936B2F49002B04D1D36B71
:10098000002B01D004700FE0936B002B04D0D36BCD
:10099000002B01D005700BE0936B002B08D1D36BBB
:1009A000002B05D102230370CB78012B00D1D46238
:1009B0000078C870F8BD936B002B02D1D26B002A6F
:1009C000F8D10570002000F04BFE3C60316801203A
:1009D000800781433160144F403FBC611748FFF7E7
:1009E0005FFFFC601648FFF75BFF1648FFF758FFF4
:1009F000BD611548FFF754FFBC611448FFF750FF75
:100A0000FD601348FFF74CFFBD613068790508436E
:100A1000306002F023FDF8BDD26B002AD1D1F8BDC1
:100A2000CC000020C500002040420050F90000200A
:100A300000400040200001401400002008CF0000CA
:100A4000400D030088FB0300C8A9010050C300004B
:100A5000289A0100F8B53F49086A400779D53E4811
:100A60000068012875D1012502023C48026052004D
:100A70000260042008623A4CA06A3A4F3A4E0128BC
:100A80000CD13078002809D138A002F01FFD384879
:100A90000078F8723748007838733570A06A0028FB
:100AA00057D13078012854D10220307032A002F0A2
:100AB0000DFD33480178002000F0D2FD31480024BC
:100AC0000571314832490470304800680860314887
:100AD0000168491C016030480178012900D0047088
:100AE000032030701E48403045601D484038C560C6
:100AF00004618461294D29684005814329602848A3
:100B0000FFF7EEFE2868690608432860254800784C
:100B1000012808D124487D210068C900884202D9F3
:100B20000F4840304460214804710460204804604C
:100B300020480460032030700D48F97A01700D4898
:100B4000397B0170FF21054801318038016049007F
:100B50000160F8BDC0400050DC00002080E100E0F2
:100B600040420050200000201C010020480A0000E4
:100B7000200100201F01002020204C0A000000005E
:100B8000C5000020B40000201E010020EC00002061
:100B90001801002064000020D8000020200001403F
:100BA000B01E0400D70000200C010020AC00002083
:100BB000CC000020D000002010B5044601F05AF906
:100BC0000C4908680122104308602220C8604C606C
:100BD0000A61BFF36F8F08690028FCD108684006DE
:100BE00003D50868402210430860034900200860CC
:100BF00010BD000000C0005000010050F8B5F948D9
:100C0000016AC90701D0012108E0016A890701D5FD
:100C1000022103E0016A490701D504210162F34979
:100C2000F1480978F44B8C46F14980780D78F14908
:100C3000142209681B684A43F04C03280AD0022892
:100C40001FD0062834D0042849D005285ED00128BA
:100C500074D08FE0A668002E05D000266768002FAC
:100C600003D0002702E00126F8E70227F7192668DB
:100C7000002E01D0002600E00426BE19012E74D0FB
:100C80009AE0A668002E05D000266768002F03D0E2
:100C9000002702E00126F8E70227F7192668002E50
:100CA00001D0002600E00426BE19032E5DD09AE094
:100CB000A668002E05D000266768002F03D0002705
:100CC00002E00126F8E70227F7192668002E01D076
:100CD000002600E00426BE19022E46D09AE0A6683F
:100CE000002E05D000266768002F03D0002702E001
:100CF0000126F8E70227F7192668002E01D0002602
:100D000000E00426BE19062E2FD09AE0A668002E19
:100D100005D000266768002F03D0002702E00126D7
:100D2000F8E70227F7192668002E01D0002600E018
:100D30000426BE19042E18D09CE0FFE7A668002EFA
:100D400005D000266768002F03D0002702E00126A7
:100D5000F8E70227F7192668002E02D0002601E0E6
:100D600003E00426BE19052E0FD16646022E71D06F
:100D700001280AD003281FD0022834D0062849D0E1
:100D800004285ED0052875D08EE0A068002805D024
:100D900000206668002E03D0002602E00120F8E75C
:100DA000022680192668002E01D0002600E00426C5
:100DB0008019032875D077E0A068002805D00020AE
:100DC0006668002E03D0002602E00120F8E7022624
:100DD00080192668002E01D0002600E00426801924
:100DE00002285ED060E0A068002805D00020666878
:100DF000002E03D0002602E00120F8E70226801929
:100E00002668002E01D0002600E00426801906285E
:100E100047D049E0A068002805D000206668002E71
:100E200003D0002602E00120F8E702268019266898
:100E3000002E01D0002600E004268019042830D0BE
:100E400032E0A068002806D000206668002E04D09A
:100E5000002603E02BE00120F7E702268019266830
:100E6000002E02D0002601E004E0042680190528A7
:100E700017D019E0A068002805D000206668002E71
:100E800003D0002602E00120F8E702268019266838
:100E9000002E02D0002601E003E00426801901287C
:100EA00002D16046002802D0002D15D020E0002D90
:100EB0001ED153484C4E0571056075786D1C7570D8
:100EC0000125504E012B35713ED1642A3CD94E4A42
:100ED000914239D2057137E0012B09D14A4881424C
:100EE00006D24A48824203D93F48016B491C01633C
:100EF0003D48006B192827D93D4E002D24D1012BE8
:100F000022D143487D21C900824211D91046FFF702
:100F100017F901463FA002F0D9FA05203070334896
:100F20000178002000F09CFB3D49072008700BE091
:100F300003203070324B012018711046FFF700F982
:100F4000014638A002F0C2FA274D384E68780528CD
:100F500023D92C480168142041433548FFF7F0F8A5
:100F6000344A254910600968334F002903D032788C
:100F7000012A04D00BE000203860106007E001294E
:100F800005D12E4948432E49FFF7DAF83860002092
:100F90001C49012208600A7168702A4800780028FC
:100FA00001D001280BD112480078002807D13078F1
:100FB000012804D10D480178012000F0D7FBA0687A
:100FC000002805D000206168002903D0002102E03C
:100FD0000120F8E7022141182068002834D00020C1
:100FE00033E000000040005020000020C500002039
:100FF000D400002094000020DC00002000420050BB
:10100000AC000020A4000020D8C22D00B80B0000C6
:1010100070110100466F726365207825640A000034
:10102000D80000207825640A000000001E0100207E
:1010300000879303D0000020CC000020B205000000
:10104000102700001C01002004200818A870F8BD1B
:1010500010B50B48016A090703D50821016209A0F0
:101060000AE0074940390A6A0A62016A01620448D3
:101070004030016A016208A002F028FA10BD0000A9
:10108000C040005050332E3320494E54206F6363CC
:1010900075727265642E0A00556E2D6578706563F1
:1010A00074656420696E74657272757074732E0A4B
:1010B0000000000010B58369140E8C402343836147
:1010C000C3691202120A8A401343C36110BD0000B3
:1010D000F8B597484168FF22120411434160052486
:1010E0002407606B934908406063606B5F2108438D
:1010F0006063E06B90490840E063E06B02210843C5
:10110000E0638B480322803000F030F9E06BFF2170
:1011100002318843E063E06BE063854801221146B9
:10112000803000F023F9854F01253D62A06B844992
:101130000840A063A06BA0637D480022402140309E
:1011400000F014F97A4800228021403000F00EF9B6
:10115000E06B7C490840E063E06B0321090308432E
:10116000E063734802221021803000F0FFF87048DD
:1011700002222021803000F0F9F8206B72490840EB
:101180002063206B20636A4E0022403E01213046DE
:1011900000F0ECF86D4A00213046FFF78BFF00228B
:1011A0000221304600F0E2F8684A01213046FFF79C
:1011B00081FF00220421304600F0D8F8634A022162
:1011C0003046FFF777FF5D492820C0390860706915
:1011D00002210843706170690843706170690421DD
:1011E00008437061084600F0C1FBA06B58490840F5
:1011F000A063A06BA0634E4801220221403000F0A2
:10120000B5F84B4801220821403000F0AFF84848BB
:1012100001222021403000F0A9F800207860F86019
:101220007861206B4B4908402063206B20634A485B
:101230000168414A114001600168016001220821F2
:10124000304600F093F83D484038456101221021B6
:10125000304600F08BF839484038056101222021E2
:10126000304600F083F83548403845613048012267
:101270000221C03000F07AF8304840304560E06B21
:1012800036490840E063E06BE06329480122082109
:10129000803000F06BF80020F862024624484021BC
:1012A000803000F063F8224800228021803000F076
:1012B0005DF8E06B2A490840E063E06B04210843D5
:1012C000E0631B480022803000F050F818481F4AA5
:1012D00002218030FFF7EEFE022000F047FB1749A5
:1012E0002820C03908601248803040690421084332
:1012F0000F4980314861206B1A4908402063206BF8
:10130000206301224021304600F030F80B4840387D
:101310008561206B144908402063206B2063012203
:101320008021304600F022F804484038C561F8BDFD
:1013300040400050A0A0FFFFFDFDFFFF40420050D5
:101340003F3FFFFFCFCFFFFFF8F8FFFC0100010098
:10135000D5D5FFFFC7C7FFFF400000503737FFFF5D
:10136000FBFBFFFFBFBFFFFF7F7FFFFFF0B5002349
:1013700001273C469C400C4208D005685C000326CF
:10138000A640B5431646A640354305605B1C082BB6
:10139000EFD3F0BDF8B500264D4801220263016A83
:1013A000D30219430162016BC907FCD0012101631B
:1013B00000244748A10008180068002C85B20AD014
:1013C000012C17D0062C54D0032C24D0052C24D06B
:1013D000022C25D04DE03F487D2105603E48C900E4
:1013E0006843FEF7ADFE3D4908603D480168A942EB
:1013F00014D33EE02846FEF72FFF3A4A1168884290
:1014000002D9431A022B04D8814232D9091A02297F
:101410002FD910602DE0344800E03448056028E002
:10142000334F7878002831D0324F012081007A582C
:10143000C9198039401CC0B2CA671E28F6D3284695
:10144000FEF70AFF7D21C9004843BE21FEF778FE62
:10145000786700208100C9194968401C8E19C0B204
:101460001E28F7D31E213046FEF76AFE22498C3033
:101470000860641C082C9CD31548016BC907FCD07C
:10148000016A0122D20291430162F8BD2846FEF7AB
:10149000E3FE7D21C9004843BE21FEF751FE01460F
:1014A0003878144A8300401CC0B2D15038701E28CE
:1014B00001D1012078702846FEF7CEFE7D21C900BB
:1014C0004843BE21FEF73CFE0B494630D0E7000002
:1014D00000000E40EC000020697D0000F4000020B8
:1014E000F0000020E8000020E4000020E0000020E0
:1014F00010000020480100200C010020044603A039
:1015000001F0E4FF204602F0A5FAFEE7496E20480C
:10151000617264204661756C742048616E646C650C
:10152000720A000010B5074C2046FFF721F803218E
:10153000002209062046FFF78BF9034800F08CFCD7
:1015400010BD00000800004008000004F8B50127A5
:1015500000242F4E012803D0346174613770F8BD28
:101560003069401C3061C82845D23178012901D149
:1015700028494C603228706901D1401C70610528EF
:101580003ED10A2070612348347080388461224D36
:1015900029684005814329602048FFF7A1F92868A0
:1015A0006906084328601E48FFF79AF919488038F1
:1015B00087611CA001F08AFF1F20000300F01EFCC1
:1015C0001D4DA8420CD11DA001F080FF1F2029094C
:1015D000000300F05FFC1D4807700E4844600FE0F8
:1015E0001BA001F073FF1F202946000300F052FCEE
:1015F0001648047004E0C938C72801D2054847607E
:10160000FF21306991318842A9D93461F8BD0000C9
:10161000200000208042005020000140E0930400A0
:1016200050C300004368616E676520537065656450
:10163000204D6F64650A0000A0A0A0A02A20536C72
:101640006F77204D6F6465202A0A0000D7000020C4
:101650002A2046617374204D6F6465202A0A0000B9
:10166000F8B5374A0024D4605461546005231B0741
:10167000996B344F394099639460996B324E314085
:1016800099631461996BFF250235A943996314602E
:10169000002854D100F02CFC2C49102008602C4864
:1016A00004602C48046005200007816BB3101940CA
:1016B000816323498C60826B33461A4082630C61DC
:1016C000826B2B469A4382630C60E12023498000A1
:1016D000214B05260F6803E0884201D9401A03E038
:1016E000014600200D467D435D619C611E611A69C3
:1016F000D203FCD51C610028EED105252D07A86B6F
:10170000002813D016A001F0E1FEA86B0D49084097
:10171000A8630B488460A96B0B4A1140A96304615C
:10172000AA6BFF2102318A43AA63046004490120A5
:10173000C860486148600B4908710B480470F8BDE7
:1017400040420050FBFBFFFFEFEFFFFF80E100E0B6
:10175000CC000020D000002000E000E004000020C9
:10176000265F0A00B40000201E010020F0B53F4CA7
:101770000023E3606361636005221207956B3C4EB2
:1017800035409563A360956B3A4E35409563236170
:10179000956BFF260236B54395632360012844D13B
:1017A000012942D03448006801283ED133480078EE
:1017B00001283AD13248334B0068984235D22B4D3C
:1017C000403DA868002805D000206B68002B03D09E
:1017D000002302E00120F8E70223C318286800284C
:1017E00001D0002000E004201F180120042506027B
:1017F0003B0001F07BFE071A0521113538321A0033
:10180000002904D1916B4908490031430BE0916BE9
:10181000102399431B0215E0002907D1916B012386
:10182000A9439B02194391636061F0BD916B102342
:1018300099431B0219430DE0002907D1916B012345
:10184000A9439B02194391636060F0BD916B490805
:10185000490031439163E060F0BD0029D7D0D1E762
:101860000029E3D0DAE70029F0D0E7E74042005052
:10187000FBFBFFFFEFEFFFFFDC0000201E0100205D
:1018800094000020C0C62D0070B5274E274831783F
:101890000068274D274C002913D00022264B012930
:1018A0002FD002290CD19842E06801D2401CE060A0
:1018B0004B21C900884203D332702A70A260E260D3
:1018C00070BD1D4960318842FAD31CA0A16801F0A7
:1018D000FDFDA068FF21401C9131A0608842EFD33C
:1018E0001AA001F0F3FD1E48012404601D48C460E5
:1018F000032028701C4801780020FFF7B1FE3470E7
:1019000070BD0D49C94341185F2902D229780029C9
:1019100006D09842F4D22A70A260E260327070BDA4
:101920000620287070BD0000D4000020E0000020D8
:10193000D800002024010020360E00004D6F746F87
:10194000722054656D703D25642C0A002A4D6F7419
:101950006F725F543E31303027432A0A0000000086
:10196000CC00002000420050C5000020C106C90E76
:1019700001208840014908607047000000E100E054
:101980008307FF22DB0E9A408907090E9940002841
:101990000BDA0007000F0838830808489B00181866
:1019A000C36993430B43C3617047830804489B009A
:1019B0001818036893430B430360704700ED00E081
:1019C00000E400E0F8B5294C2A4A20692A4D401C61
:1019D000206161690926491C6161A169274F491C81
:1019E000A1612349096891423AD306280CD9297884
:1019F0000020FFF735FE22A001F068FD21493E706E
:101A0000042008700620206119481F490068884298
:101A100028D360691E280CD929780020FFF720FE02
:101A20001AA001F053FD17493E70042008701E20D3
:101A300060610F48AF210068C900884214D3A069D3
:101A400078280CD929780020FFF70AFE10A001F0B1
:101A50003DFD0C493E70042008707820A061F8BD5F
:101A60000020D0E70020E3E70020F7E72401002072
:101A7000EC000020D80E0000C5000020D800002097
:101A800049310A00D4000020FC08000049320A0055
:101A900049330A0070B51E4D1E482B78FF220024E2
:101AA00091321D4E00681D49002B11D0012B0ED123
:101AB0001B4B984229D24868401C4860904206D986
:101AC0000C6018A04C6001F001FD34702C7070BDEA
:101AD000134BA233984216D90868401C0860904204
:101AE000F5D30C6013A04C6001F0F0FC1548012404
:101AF00004601548C4600320307014480178002049
:101B0000FFF7AEFDE2E70C6070BD4C6070BD0000F9
:101B1000D5000020E4000020D8000020240100208F
:101B2000140D00002A5043425F543C373027432AAB
:101B30000A0000002A5043425F543E383027432AAF
:101B40000A000000CC00002000420050C500002028
:101B5000FFB5044649480E460FC899B0149311AB1F
:101B600007C346490125FF27442210316846FEF786
:101B7000FDFA4348159043490220434A30408C42C5
:101B800006D1516903221207824011401C3004E043
:101B9000D169302282401140001DC140022921D06C
:101BA000880011A9085816901B99FEF7C9FA1790DA
:101BB0002946FEF7C5FA01210906884217D830499F
:101BC000411809020F0E032F00D202273946FEF7F3
:101BD000B7FA01210904884209D8012800D080B24F
:101BE00015900AE000F08EF928480068DBE76806E7
:101BF000050E112D01D21798DAE739461598694379
:101C000041431698FEF79CFA16907F1E1598F9B27C
:101C1000401E87B2A8006A46155C22687008844698
:101C2000C000FF2383409A4381400A4322606168D9
:101C3000B000072282409143854029436160A1683A
:101C400001226046920782409143A160A068F200A1
:101C5000082191400843A0600C214E431C98341980
:101C6000002805D0791C48436421FEF769FA401E1C
:101C70002061E76016981DB0F0BD0000A03B000099
:101C8000FFFF0000000004400002005000000020A0
:101C9000C26F0A43C2677047F8B5354C2046FEF75D
:101CA00067FC344D2846FEF763FC334E3046FEF7A2
:101CB0005FFC0321002209072046FEF7C9FD002230
:101CC00071072846FEF7C4FD002230213046FEF79A
:101CD000BFFD2A4800F0C0F82848401C00F0BCF8BE
:101CE000274D05212846FFF7D3FF264E0121304618
:101CF000FFF7CEFF244C254F00213A4628462368A3
:101D0000FFF726FF3A46022128462368FFF720FF07
:101D10003A46002130462368FFF71AFF042128467F
:101D200000F058F80121284600F054F8012130460F
:101D300000F050F8E86864214843FEF701FA0146D4
:101D4000642213A001F0C2FBE86864214843FEF757
:101D5000F7F91449144C086064212160014613A06E
:101D600001F0B4FB16A0216801F0B0FBF8BD000043
:101D70001400C0571500E057160040761400000408
:101D80000000044000001440C80000208813000038
:101D9000504D57434D52203D202564202F2025646F
:101DA0000A000000FC0000200001002067753332AB
:101DB0004D415850574D203D2025640A0000000039
:101DC000677533324D494E50574D203D2025640AEA
:101DD0000000000070B500231A46012635469540E4
:101DE00034460D4202D0D500AC402343521C042A95
:101DF000F4D381681943816070BD000010B50446BA
:101E000000F038F8084908680123184308600022E8
:101E1000CA604C600B61BFF36F8F08690028FCD16A
:101E2000886802490A6010BD00C0005000010050DF
:101E300010B50420FEF776FC1020FEF771FD00219E
:101E40000720FEF7DFFC0348FEF7A0FC1420FEF796
:101E500067FD10BD80F0FA020521020E0907511836
:101E60008B680122824013438B60886890438860AE
:101E70007047000010B5592116230548882202E05A
:101E80000160036002600468012CF9D110BD0000FC
:101E90000001005070B50D460446FEF78DFEFFF7B9
:101EA000E9FF094A11680120014311602121D16035
:101EB000546095601061BFF36F8F10690028FCD1EA
:101EC0000249086070BD000000C0005000010050D1
:101ED00006498A691202FCD408600A2804D188697C
:101EE0000002FCD40D20086070470000000005408F
:101EF0000249086188620249086170470000044095
:101F000000001440F8B51C4D286944071BA0006868
:101F10000090296A640F2813014201D0002016E0C6
:101F2000080301D5164800E016488A030FD40A04B6
:101F3000920F6B469B5CCA058904D20DC90E891CA1
:101F40008008921C59435043FEF7FAF880000E4E69
:101F5000022CB06002D00D49A0000858A9690907F9
:101F6000090F491CFEF7ECF8094930604A10801847
:101F7000FEF7E6F87060F8BD0002005001020204AE
:101F800000805101001BB70000000020FC3A000057
:101F900040420F007047000070B51B4C2046FEF712
:101FA000E7FA1A4D2846FEF7E3FA07210022090254
:101FB0002046FEF74DFC0721002209032846FEF7C4
:101FC00047FC144C124820606F2060602068650355
:101FD000284320600820FFF7C9FC2068A60330438F
:101FE00020600B48FC302062FF20AF306062094C5B
:101FF00020342068284320600920FFF7B7FC2068C0
:102000003043206070BD00000200805E0300C05EAF
:102010000300000800000140F8B5FF48012181607D
:10202000FE4C0026E069401CE06132281BD3FC48CE
:10203000E6610068FF220F3290420AD9206A666288
:10204000401C206214280ED315202062F548016040
:1020500009E0606A2662401C60620D2803D30E20EE
:102060006062F0480660A069401CA061EE480179FA
:10207000012974D00660ED480179012973D006600A
:10208000EB480179012972D00660EA4801790129FB
:1020900074D00660E8480179012973D00660E748EA
:1020A0000179012972D00660E54800790128E448E9
:1020B00073D00660E3480179012972D00660E248D6
:1020C0000179012971D00660E048E14F00790128CB
:1020D00071D0DE480660DF48017901296AD00660C8
:1020E000DD48DE4A0068DE49DE4D904203D8DE4A14
:1020F0001278012A0AD0AF22D200904203D8DA4ADD
:102100001278002A02D00A78052A09D9CC4A142369
:1021100012685A43D54B9A4202D93A78002A78D0AD
:10212000D149CB2309780129C54909686BD014220C
:102130005143CE4A914267D23A78022AC34A126882
:102140007CD014235A43CA4B9A4278D9322876D28B
:10215000132161632968DEE001E004E007E0016823
:10216000491C016087E70168491C016088E7016834
:10217000491C016089E701E004E007E00168491CAF
:10218000016087E70168491C016088E70168491C14
:10219000016089E701E004E007E00168491C016093
:1021A00088E70168491C016089E70168491C0160F2
:1021B0008AE700E029E0A5490868401C086014216E
:1021C0004843AC49884286D3AB480078002882D186
:1021D000944800680128FAD1A8480178052900D15F
:1021E00079E7A74909780129FAD1052101703978E1
:1021F0000020FFF735FAA34907200870A2A001F0DC
:1022000065F968E705E090E0EAE00168491C0160D3
:1022100066E7954A1278012A12D00B4609780529FB
:1022200004D8DD222968D20091424AD90521616390
:1022300029681A460C31296063215CE0B0E0BDE0FA
:102240000A78052A06D90A2262632A680A322A60B5
:10225000632207E08E4A904206D2142262632A6803
:102260000A3212E00A70BCE0894A6432904204D219
:102270001E2262632A68083207E0854A8C32904247
:1022800007D2282262632A68D21D2A600A78521C6B
:10229000E8E77249C839884203D23C216163296862
:1022A00031E06E49A039884201D2502151E76B4993
:1022B0007839884203D264216163296833E0C821F8
:1022C0008CE07D22D200904203D214220C31626352
:1022D0000DE0704A904203D21E220831626306E08C
:1022E0006C4A2832904208D22822C91D62632960B4
:1022F00019781A46491C117073E04B221201904262
:1023000003D23C226263491D3CE09B22D2009042F2
:1023100003D250226263C91C34E0052212029042AB
:10232000CDD264226263491C2CE0142251434F4AEF
:10233000914255D23A78022A444A126812D01423A4
:102340005A434B4B9A4202D9322800D200E7524BF3
:102350009A421BD9474A914218D90A2161632968D8
:10236000091D0FE014235A434C4B9A4206D87D2294
:10237000D200904208D24A4A914205D9662161634F
:102380002968891C29602CE0992127E0454A91425F
:1023900004D93249884201D215211FE034211DE0C1
:1023A00014235A433D4B9A42E8D8FF22F53290421B
:1023B00002D23B4A9142E1D8C9210FE0364B9A4202
:1023C00002D92C4A9142C8D8364A914205D9AF2148
:1023D000C900884201D2652100E0CA21616300E0A2
:1023E0006363626BA16991426CD90E49A661096869
:1023F000012967D11C492C4A0978012969D02B4948
:10240000884204D92968642901D9491E29602749CD
:102410001E39884256D24BE00000014020000020C7
:10242000E8000020DC000020BC0000209C00002010
:10243000A4000020840000208C0000207C000020EC
:10244000940000206C00002074000020AC000020EC
:10245000C5000020B4000020CC000020CA08000005
:1024600014010020C8000020F8000020E0930400C0
:1024700030750000A08601001C010020D40000205F
:102480001E010020D800002053746C0A00000000D8
:102490003A0700004C04000088130000204E0000A2
:1024A00050C30000400D03000000044087050000F9
:1024B000D06864214843FDF743FE2968884201D96A
:1024C000491C29603E482968006881420CD80846AA
:1024D0000BE03C49884204D92968642901D9491E86
:1024E000296038491E3994E72860FFF701FD364816
:1024F000C06805252D0701280DD1A86B40050AD518
:102500003978012907D031480068012803D13048C3
:102510000078012805D066712B48406801280ED04C
:102520001BE06079401CC0B260710228F4D3002027
:10253000FFF796F8397827A000F0C8FFECE7A86B02
:10254000C0050AD53978012907D02048006801283C
:1025500003D11F480078012805D026711A48406928
:1025600001280ED01BE02079401CC0B22071022847
:10257000F4D30020FFF774F8397818A000F0A6FF14
:10258000ECE7A86BC0040AD53978012907D00F48B9
:102590000068012803D10E480078012801D0E670B8
:1025A000F8BDE078401CC0B2E0700228F8D30020EB
:1025B000FFF756F839780BA000F088FFF8BD00004F
:1025C000FC000020D908000040420050DC00002040
:1025D0001E0100207E25640A000000002125640AF7
:1025E000000000004025640A00000000F0B5FF482C
:1025F0008BB001218160FE4802682C239A430A4374
:102600000260FC4FB979491CB971FEF7C3FEFA4864
:10261000FA4E0068002500282ED1F948FDF754FE37
:10262000F5480168002927D101240460F548F84BDA
:1026300005600571F44805600571F448006898422A
:1026400006D21946F3A000F041FF7461B46110E0B6
:102650007D21C900884205D20A461946F2A000F041
:1026600035FF06E0F5A000F031FFE6480471E648CA
:102670000471E348FDF728FEDE48F44C8079C82851
:102680002FD1DC4FDC48BD710068002838D0DE480F
:10269000142100684843EE49FDF752FDED49EE4B29
:1026A0000A68396B1B7806AF0BC7EC4809920378B0
:1026B000EB4802AF0268EB480168D44800680FC7D6
:1026C000E9480168E94800680090E948019102681A
:1026D000E84823680178E8A000F0F8FEF4A000F0D4
:1026E000F5FEC548006800286FD0FEF72FF9E048D6
:1026F0000768F048002F0AD00079012817D034E08D
:10270000EDA000F0E3FEBE480A210170E9E701797F
:1027100001292AD1006814214843E949884206D991
:10272000E8480068002802D1E74901200870E14824
:10273000142100684843E549884216D9052000075E
:10274000816BE34A11408163AC4940318D60826BFB
:10275000E04B1A4082630D61826BFF2302339A4380
:1027600082630D60CD604D614D60D64800680128E0
:1027700002D000287ED07DE39E4901208872A248C5
:10278000A24B05609F48A24905601868884201D2A3
:10279000002F15D097498D627D23DB00984208D227
:1027A000CD49142209685143C82902D2914A012116
:1027B000D1717D21C90088422DD2002F06D02AE098
:1027C0008C4A916A491C9162E6E7B1E3A948007816
:1027D000012820D1874F787A00281CD1BF48007883
:1027E000002818D1BEA000F071FE01207872B561FA
:1027F000F5607E4F3968800781433960BA48FEF73B
:102800006FF83868790608433860B748FEF768F80B
:102810000120B061F0607748806A3C2803D3754995
:102820000A7A002A0CD09349097801296FD0774998
:102830000A6877498A4202D96E4F002823D096E26F
:102840008548057001200872A8A000F03FFE052011
:102850000007816BC905CB0F816B806B4905CA0FDF
:10286000C004C10FA5A000F031FE644840304368A9
:10287000C26800E09BE24169A0A000F027FE60482A
:102880000221017073E2904800780128D7D178487E
:1028900000680028D3D16F48FF2100680F318842BB
:1028A000CDD998490878C007C9D16C48964A0078B4
:1028B00012781043954A12781043C0D17D480571B3
:1028C0000560012008706448FF2105700631F96336
:1028D000491E824839640570644805606248056095
:1028E00050A000F0F3FD8AA000F0F0FD89480078C8
:1028F000002804D0012808D0022809D00BE05D4848
:10290000017885A000F0E2FD05E085A001E0EAE1A4
:1029100084A000F0DBFDB068002805D000207168BD
:10292000002903D0002102E00120F8E7022141182C
:102930003068002801D0002000E0042009187DA0A4
:1029400000F0C4FD314801687CA000F0BFFD35A057
:1029500000F0BCFD2A4805706E483D6300780128F0
:1029600008D12A4801687D20C000814202D923484D
:10297000803045601D4820380168800381431B4832
:1029800020380160194800680121890788431749E8
:10299000086005200007816B4D4A11408163174F85
:1029A0004037BD60816B4B4A114081633D61816B53
:1029B000FF220232914381633D600120F86078611B
:1029C00078606048FDF78CFF0848203800683906B9
:1029D0000843064920390860044800688903084311
:1029E00002490860FD607D617D60ADE0200001402E
:1029F00000400040200000206800002000420050FD
:102A0000D80000207C000020840000200C01002061
:102A1000D60600000909232320202564203E2056E5
:102A20002023230A0A000000090923232025643CEF
:102A30002056203C25640A0A0000000009092323CF
:102A4000202564203C20560A0A000000C80000200F
:102A500040420F00E80000201F010020D5000020A8
:102A6000E0000020E4000020F0000020EC00002046
:102A7000CC000020C500002025642C2025642C20DB
:102A800025642C205B25642F25642C2025642C20B4
:102A90005D2C207B25642F25642C2025647D2C2033
:102AA00025642C2025642C205B25642C20256400C3
:102AB0000A0A0000B400002049445F4E470A0000A3
:102AC000671E0600DC0000201E010020673C01009C
:102AD000FBFBFFFFEFEFFFFF94000020DB00002077
:102AE0003132330A0000000050C300006C6F7720C1
:102AF000626174746572790A0000000025642564BF
:102B000025640A0020010020D4000020D600002007
:102B1000446E3D00D7000020463A25640A000000BC
:102B20002A530A002A2A204944204572726F7220D3
:102B30002A2A0A0048533D25640A0000563D2564B0
:102B40000A000000204E0000FA48FDF7C9FEF869AF
:102B5000F94F012812D0F9A000F0B8FCFA4805702E
:102B6000FA487D210068090188425ED9F86864212D
:102B70004843FDF7E5FA0101081A93E0F4A000F0DC
:102B8000A5FCF64901200870EF480570EF487D214B
:102B900000680901884206D9F86864214843FDF7B6
:102BA000CFFA19213BE0EE49884207D9F868642141
:102BB0004843FDF7C5FA4101081A31E0E8493239C6
:102BC000884206D9F86864214843FDF7B9FA2521FF
:102BD00025E0E3496439884206D9F868642148430E
:102BE000FDF7AEFA2B211AE0E121C900884206D98F
:102BF000F86864214843FDF7A3FA31210FE0D84972
:102C0000C8398842F86805D964214843FDF798FA25
:102C1000372104E064214843FDF792FA3A21484302
:102C20006421FDF78DFA206042E0CD49884207D942
:102C3000F86864214843FDF783FA0101401831E048
:102C4000C7493239884206D9F86864214843FDF7FC
:102C500077FA132125E0C2496439884206D9F86819
:102C600064214843FDF76CFA15211AE0E121C900FF
:102C7000884206D9F86864214843FDF761FA1721B4
:102C80000FE0B749C8398842F86805D9642148433C
:102C9000FDF756FA192104E064214843FDF750FA84
:102CA0001A2148436421FDF74BFA2060AB480570B8
:102CB000AC480124C462AC4F20463978FEF756FD7B
:102CC000AA480471AA4839780170AA48AD4905603C
:102CD0000571A94805600571A84805600571A848F7
:102CE0000471102042E0A84F3878012803D1A74989
:102CF0000978002906D0A64909780143A34800783D
:102D0000014334D197480124C462A2A000F0DEFB45
:102D10009E483D700470A1480560A1480068A7075F
:102D20009F49B84308609E48203000689C49B843DA
:102D300020310860F560B5619A48FDF7D1FDF46077
:102D4000B4619948FDF7CCFDB5619848FDF7C8FD21
:102D5000B46100F083FB92480068914938430860F1
:102D60008F48203000688E493843203108608748FA
:102D7000007801287ED18E48C0790128FAD18D488B
:102D800000780028F6D178480078012873D08A4866
:102D9000007800280AD1894800780028FAD18848AC
:102DA00000780028F6D18749012008708CE1804F17
:102DB000B87A0128DED174480078C007DAD182A041
:102DC00000F084FB38466E21664F8163FD625E48E9
:102DD00005706E48007801281CD17548C07901281B
:102DE00018D174480078002814D15F480078012871
:102DF00010D07148007800280CD170480078002865
:102E000008D16F480078002804D16E480C21017069
:102E1000FDF75AFAFD607D607D616D480121056016
:102E2000642020606B486D4A01716B4805706048F2
:102E3000056315711560524A15711560684A157061
:102E40008562C57105725048017046484030416046
:102E5000594C5A4A20781278594F10433A78104307
:102E600000D1F1604A49012008705E480560057193
:102E70005D4801E013E116E10078002805D03348F1
:102E800001683748C83881420BD23A493A4A0D6046
:102E900001201560087110713C4805700020FEF794
:102EA00055FB52480078032816D02078002813D10B
:102EB0004248007800280FD1387800280CD13048DB
:102EC0004B490068884207D227480078012804D07F
:102ED0004848007800282CD0B6E0354C607B0028AC
:102EE00002D0012813D0AFE0434F14213868484383
:102EF0007D21C900FDF724F9014640A000F0E6FA63
:102F000001203D603871607B401C60739CE03A4852
:102F10001421006848432349884208D27D21C90012
:102F2000FDF70EF9014637A000F0D0FA65738BE08B
:102F300045E16BE0204E00000000044053706565E1
:102F400064204C4F0A000000140100200C010020F6
:102F500053706565642048490A000000F8000020AD
:102F60009E07000040420050C50000209C00002049
:102F7000C40000207C000020840000208C00002081
:102F80009400002000E100E01F010020200100204B
:102F9000DA0000204272616B650A000000400040C8
:102FA0000000014020A10700A0860100400D0300A1
:102FB00020000020DB000020D5000020D4000020ED
:102FC000D6000020D80000200A55700A000000003A
:102FD00018010020B40000201E010020AC000020D9
:102FE000D90000206C000020D70000201C01002028
:102FF000C0C62D00F9000020BC00002031313D2565
:10300000640A000032323D25640A0000F560B561B3
:103010006C4805606C4C20686706B84320606B48BC
:10302000FDF75EFC6948FDF75BFC6948FDF758FC5D
:1030300020683843206000F011FA0120F060B06190
:10304000644805606448056064480560057164482B
:103050000078012813D1706162490A687D21C90096
:103060008A4201D960494D606049624A0D706049E9
:103070000D601560087110710020FEF767FA5E4858
:103080000078052803D0042801D0032803D15B4829
:103090000121056001715A4805705A4805705A4867
:1030A0000078012810D1594C142120684843584910
:1030B000884209D9574F787B012805D156A000F0E6
:1030C00005FA256025717D7357484F4C00782178AB
:1030D000504A884203D0D36A5B1CD36200E0D562B9
:1030E000884214D03B4F3868002810D04948C06A45
:1030F00002280CD34DA000F0E9F937483D60056087
:1031000021780020FEF7ACFA4B48057105604B486A
:10311000FDF7DAF8FEF7BEFCFEF7B6FBFEF752FC51
:103120004748484F0168B94203D10121B161057197
:103130000560304844490068884212D94348006815
:1031400000280ED042A000F0C1F935617561F5602C
:103150001D4A10685106884310603846FDF7C0FBD1
:10316000F561264801684848814205D33748006820
:10317000002801D0204805701D4F44493868884216
:103180001DD932480068002819D041A000F09EF9EE
:103190002078012802D014484038C56201203061EF
:1031A000706111494860F060B0610A490D600A49D8
:1031B0000D6022490D70434908703D603D710BB0B0
:1031C000F0BD00000040004020000140E0930400FA
:1031D00008520000CC000020D00000209400002005
:1031E000D70000200C010020804200502001002068
:1031F0007C00002084000020D40000208C000020EF
:103200001C010020F9000020C5000020BC000020A7
:1032100007A5070020000020526573657420446FE5
:1032200075626C650A000000C40000202A457272B5
:103230006F722A0A00000000AC000020D8000020B5
:103240009C00002050C30000804F12006800002046
:10325000202020202020202020202020202020206E
:10326000202020202020202020202020202020205E
:103270002A2A203234732020506F776572206F66BF
:1032800066202A2A0A00000020A10700F049020057
:10329000202020202020202020202020202020202E
:1032A000202A2A203373204C4544204F4646206173
:1032B0006E642042757A7A6572204F4646202A2A2B
:1032C0000A000000DB00002010B5094C2046FDF785
:1032D0004FF90121002209062046FDF7B9FA0548F9
:1032E000FEF7BAFDE1210903034800F007F810BD1D
:1032F000103D80571000000400000540F0B5044662
:103300001C480D460FC885B06E460FC61A48416965
:1033100080698A010321960F0005070F00202063B2
:10332000E160A06815490840A060012E02D1FDF7B8
:1033300001FA0190002D1BD0B10068464058791C5D
:10334000FCF7FEFE0646690840182946FCF7F8FE21
:103350000B49801E884207D9E90070182946FCF7FE
:10336000EFFE0009801E02E00321090708436062A6
:1033700005B0F0BD1C3B0000000200500FFFF0FF45
:10338000FFFF00001C48012101601C4A64201060FE
:103390001B4A002010701B4A10701B4A11701B4AF8
:1033A00010701B4A10701B4A10601B4A10601B4AA9
:1033B00010601B4A106010711A4A106010711A4A8E
:1033C00010701A4A11701A4A10701A4A10701A4A6C
:1033D00010701A4A10701A4A10701A4A11701B4A5B
:1033E00019491160FF211A4A5F311160194A4900D9
:1033F000116019490870704768000020C80000205B
:103400001C010020DA000020C5000020DB000020A5
:10341000D8000020840000207C0000208C000020C8
:10342000B4000020BC000020D90000201E010020B4
:103430001F01002020010020D4000020D500002022
:10344000D60000201D0100203202000004010020EF
:1034500008010020100100201401002010B559219E
:1034600016231148882202E00160036002600468AC
:10347000012CF9D12B2464062046FDF779F80022AF
:1034800003212046FDF7E4F90122002303219002E5
:1034900000F00EF805480168402211430160012048
:1034A000FEF764FA10BD000000010050004000402B
:1034B00010B5054C616051000143180101438020A3
:1034C0000143216010BD0000004000400FB410B562
:1034D00003A9044B044A029800F024F810BC08BC6D
:1034E00004B01847F93700000C00002030B47446CF
:1034F000641E2578641CAB4200D21D46635D5B00F0
:10350000E31830BC184702E008C8121F08C1002A9F
:10351000FAD170477047002001E001C1121F002A54
:10352000FBD17047FFB58FB00F460446002606E07A
:1035300025280AD0129A11999047641C761C20788D
:103540000028F5D1304613B0F0BD002501219F4A77
:10355000009500E00543641C23780846203B984012
:103560001042F7D120782E2815D104200543607829
:10357000641C2A280AD101CF641C00900BE000993A
:103580000A22514330394018641C009020780146CB
:1035900030390929F3D920786C280ED004DC4C2866
:1035A00013D06A2812D104E074280ED07A280DD1E5
:1035B0000BE001204005054307E001210905627881
:1035C0000D43824201D16D18641C641C2078692867
:1035D00049D008DC0028B5D058286CD063280FD01B
:1035E000642808D13FE070286AD0732811D075286C
:1035F0005FD078285FD0129A11999047761CE3E04B
:103600003878694608720020487202A801900120AB
:1036100003E0386801900020C0433F1D69070CD5C6
:10362000002500E06D1C00998D420FDA8542F9DB20
:103630000199495D0029F5D108E0002500E06D1CE5
:103640008542FCDB0199495D0029F8D1761907E034
:10365000019801990078491C0191129A119990479B
:103660006D1EF5D2B0E00A20029000216802400FE2
:10367000039102280CD001CFC117844600290DDA2E
:1036800060460A4640420021914184462D2008E0D0
:10369000FF1DFF08FF0003CF8446EFE7280504D590
:1036A0002B206A46107401203DE0E8073BD0202023
:1036B000F7E70A2000E0102000210391029007E0C4
:1036C000102002900021042005430820039100905F
:1036D0006802400F022811D001CF0021844600204B
:1036E0000D90280720D52078864670280CD0029AA5
:1036F0001020039B42401A430CD015E0FF1DFF0829
:10370000FF0003CF8446EAE740206A461074012098
:103710000D900CE06046084306D030206A461074D5
:103720007046507402200D902078582804D028A0AC
:1037300001900DA80E900DE02AA0F9E76046039BCA
:10374000029AFCF725FD019B84469B5C0E9A521E53
:103750000E92137060460843F0D10E9805A9081A1E
:1037600020300190680701D4012000900099019851
:10377000814201DD081A00E000200025009006E0EB
:1037800004A8129A405D119990476D1C761C0D9803
:103790008542F5DB04E0129A302011999047761C9F
:1037A0000099481E00900029F5DC08E00E980E995B
:1037B0000078491C0E91129A11999047761C019934
:1037C000481E01900029F1DC641CB8E609280100BC
:1037D0003031323334353637383961626364656687
:1037E0000000000030313233343536373839414249
:1037F000434445460000000000B50346FEF768FB61
:10380000184600BD534C59211620882202E0216041
:10381000206022602368012BF9D1FEF709FB002507
:103820002560FFF7AFFDFDF753FCFFF74DFDFEF7F9
:1038300033FAFDF777FEFCF719FD4748016847A00A
:10384000FFF744FE49A0FFF741FE4DA0FFF73EFE03
:103850004FA0FFF73BFE51A0FFF738FE51A0FFF746
:1038600035FE53A0FFF732FE0122114654A0FFF7A8
:103870002DFE584CE06864214843FCF761FC64214C
:103880004843E168FCF75CFC014653A0FFF71EFECD
:1038900057A15AA0FFF71AFE34A0FFF717FE5B4CA2
:1038A0005BA006CC083CFFF711FEFDF773FD5C4AF8
:1038B0009068002805D000205168002903D000211D
:1038C00002E00120F8E7022141181068002801D029
:1038D000002000E00420091852A0FFF7F7FD564829
:1038E000402101608021016005200007816B534A5F
:1038F000114081634A4940318D60CD60826B504BED
:103900001A4082630D614D61826BFF2302339A433B
:1039100082630D604D60FEF73FFBFDF717F8002155
:103920000120FEF72DF801210220FEF729F80121E0
:103930000420FEF725F800210820FEF721F80321D6
:103940000920FEF71DF83FA0A168FFF7BFFDFFF7B4
:1039500085FDFEE700010050000000200A0A4350E8
:10396000552020256420487A0A0000002A2A2A2AA5
:103970002A2A2A2A2A2A2A2A2A2A2A2A2A0A00001B
:103980002A2A205054412D423530462000000000A4
:10399000506F6C657320325F5F0000005657550A08
:1039A000000000002A2A2049443A5965732C00007F
:1039B0002042757A7A65723A5965730A00000000F0
:1039C0002A2A20462F57203D205625642E30256474
:1039D00041200A00000004402A2A204D617820443A
:1039E000757479203D2025642525200A00000000FB
:1039F0003230323530353136000000002A2A20536B
:103A0000564E203D2025732020200A00040100206E
:103A1000312F34203D2025642C2025640A0000002D
:103A20000042005048616C6C2053656E736F723DAC
:103A3000202564200A00000000E100E0FBFBFFFFFE
:103A4000EFEFFFFF42617474657279203D25640ACF
:103A50000000000010B50446016810A0FFF736FD15
:103A600011A06168FFF732FD12A0A168FFF72EFDDB
:103A700013A0E168FFF72AFD14A02169FFF726FDD6
:103A800015A06169FFF722FD16A0A169FFF71EFDD1
:103A900017A0E169FFF71AFD10BD00007230202069
:103AA0003D20307825780A00723120203D20307882
:103AB00025780A00723220203D20307825780A00CF
:103AC000723320203D20307825780A007231322070
:103AD0003D20307825780A006C7220203D20307817
:103AE00025780A00706320203D20307825780A0070
:103AF000707372203D20307825780A00001BB700D3
:103B00000000000080F0FA02102700000000000012
:103B1000000000000000000000805101001BB70001
:103B2000000000000000000000805101001BB700F1
:103B3000000000000000000000805101001BB700E1
:103B4000000000000000000000805101001BB700D1
:103B5000102700000000000000805101000000005C
:103B60000400000000000000000000000100000050
:103B70000000000000000000000000000200000043
:103B80000000000000000000000000000000000035
:103B90000000000000000000000000000300000022
:103BA000001BB7001027000000000000008051013A
:103BB0000000000004000000000000000000000001
:103BC00001000000000000000000000000000000F4
:103BD00002000000000000000000000000000000E3
:103BE00000000000000000000000000000000000D5
:103BF00003000000143C0000000000204801000009
:103C0000063500005C3D00004801002078020000FD
:103C10001635000080F0FA023200000080F0FA024F
:103C20000000000000000000000000000000000094
:103C30000000000001000000000000000000000083
:103C40000000000000000000000000000000000074
:103C50000000000000000000000000000000000064
:103C60000000000000000000000000000000000054
:103C70000000000000000000000000000000000044
:103C80000000000000000000000000000000000034
:103C90000000000000000000000000000000000024
:103CA0000000000000000000000000000000000014
:103CB0000000000000000000000000000000000004
:103CC00000000000000000000000000000000000F4
:103CD00000000000000000000000000000000000E4
:103CE00000000000000000000000000000000000D4
:103CF00000000000000000000000000000000000C4
:103D000000000000000000000000000000000000B3
:103D100000000000000000000000000000000000A3
:103D20000000000000000000000000000000000093
:103D30000000000000000000000000000000000083
:103D40000000000000000000000000000000000073
:0C3D500000000000000000000000000067
:04000005000000F502
:00000001FF
