:020000040000FA
:10000000900E0020F500000015010000D90000004E
:1000100000000000000000000000000000000000E0
:1000200000000000000000000000000019010000B6
:1000300000000000000000001B0100001D01000086
:100040001F0100001F0100001D0D00001F01000026
:10005000E90E00003D1300001F0100001F01000019
:100060003D260000A12A00001F0100001F01000022
:100070001F0100001F0100001F0100001F01000000
:100080001F0100001F0100001F0100001F010000F0
:100090001F0100001F0100001F0100001F010000E0
:1000A0001F0100001F0100001F0100001F010000D0
:1000B0001F0100001F0100001F0100001F010000C0
:1000C0000448854600F0F4F900480047753E0000FA
:1000D000C046C046900E002004207146084202D05F
:1000E000EFF3098001E0EFF308807146004A104702
:1000F000E91700000A480B4901600B4901600B49F0
:1001000001600B4A0B491160002101600A488047D9
:100110000A480047FEE7FEE7FEE7FEE7FEE7FEE7E8
:100120000001005059000000160000008800000087
:1001300024000050A55A0000B9250000C1000000AD
:1001400030B50B46014600202022012409E00D466F
:10015000D5409D4205D31D469540491B25469540F7
:1001600040191546521E002DF1DC30BD03460B43ED
:100170009B0703D009E008C9121F08C0042AFAD25D
:1001800003E00B780370401C491C521EF9D27047E3
:10019000F8B502464A40D40F42004B0052085B08B3
:1001A0009A4202D20246084611464A0023D0C30DA5
:1001B0004A00DDB2120EAD1A202D35DA49020126B1
:1001C000490AF6058A19002C00D0524220214F1B03
:1001D0001146B9402A411018C20D9A4221D0002C74
:1001E00017D0012D08DCDA05801AD20F8019D2074A
:1001F000DBB200F023F9F8BDDA05801A01234000D4
:100200001B06C01880185A428018CA0F10434900B4
:1002100007E04908C2071143DA05801A801940082F
:10022000801800F003F9F8BD61000122511A001B8B
:10023000F7E70122D2075140AAE70122D207504036
:10024000A6E7024670B54A40D30FDB0740002DD029
:100250004A002AD0010E140E000212020919400AA7
:10026000520A8418E50104465443000A120A2E0477
:100270005043A4194219200CC543AA18120C012599
:10028000AD03521C521912047F39240400D0521CB1
:10029000104301D44000491EC2B20C06C009201808
:1002A000401C4008802A02D003E0002070BD4008B6
:1002B0004000002900DA0020184370BD70B50246E6
:1002C0004A40D50F40004A00ED0740085208002878
:1002D00014D0002A12D0C40DD30D41020120C00554
:1002E0005202490A520AE41A091812187D3491423E
:1002F00001D3641C00E04900002C01DA002070BD2D
:100300000023914201D3891A034340084900002881
:10031000F7D100290AD0914202D10121C90705E095
:10032000914201D2012101E00121C943E005C01839
:10033000401900F07BF870BDC217C10F504010B5D6
:100340004018CA079623002100F078F810BD10B5B8
:1003500000229623114600F071F810BDC20F410033
:1003600040020123400ADB05D207090EC0187F298D
:1003700001DA00207047962903DC9623591AC840F9
:1003800001E096398840002AF4D04042704741008D
:1003900040020122400AD205090E80187F2901DAA5
:1003A00000207047962903DC9622511AC8407047F6
:1003B00096398840704700000122D207002800DBF0
:1003C000101A002900DB511A88427047F0B51FB49B
:1003D0000646002082B005464024019100901BE0B3
:1003E000019922460F46304600F084F8049A059B96
:1003F000801A994110D310461946224600F06AF837
:10040000361A8F410197224601200021009F00F0FB
:1004100061F838184D4100902046641E0028DFDC4A
:10042000019B00982946324607B0F0BD002904DA46
:10043000401C490001D140084000704770B40024BE
:10044000050C05D11024000402D1002921D011246B
:10045000050E01D100020834050F01D10001241D51
:10046000850F01D18000A41C002801DB4000641C22
:10047000002908D020252E1B0D46F540A14000D0B4
:1004800001212943084301061B1B000ADB1D02D57D
:10049000002070BC7047DB05181880180029F8DAB6
:1004A000401C4900F5D170BC400840007047000076
:1004B000064C0125064E05E0E36807CC2B430C3CB7
:1004C00098471034B442F7D3FFF7FEFDBC44000058
:1004D000DC44000010B5202A04DB0146203A91409C
:1004E000002010BD914020239C1A0346E34019438D
:1004F000904010BD10B5202A04DB0846203AD040B9
:10050000002110BD0B46D340D0402024A21A9140B8
:100510000843194610BD0000FF21F53110B54843CE
:100520000149FFF70DFE10BDFF0F000010B50B4C89
:10053000204600F07DF9032252040C21204600F0F1
:10054000E7FA074C7F230C220021204600F00AF82E
:10055000216A01221143216210BD00001CFE2356B6
:1005600000000E4030B50648046A064D2C400C438E
:1005700014430462416A090A09021943416230BD09
:1005800000000E40F3FBFFFFF8B58B4E8B4932782D
:10059000097800258A4200D075600278884F0121D1
:1005A000884C130003F010F90FEFCDDAAEEF8F8F08
:1005B00074AE744310093C2DEF007268521C7260D7
:1005C000642A19D3756016E07268521C726061610A
:1005D000A161C82A10D97C4AE12311717B4A397183
:1005E0001268DB009A4202D9A5610D2107E0784B21
:1005F000D218462A01D20170D2E0A5610E21017005
:10060000CDE07068401C70602828F5D30246283A77
:10061000282A01D8A161C3E05028EDD9656176E0B0
:100620007268521C7260282AE6D9A16149E070689C
:10063000401C7060342803D221616561A5610DE022
:100640000246343A482A02D22561616105E0024639
:100650007C3A342A06D221616561A161F62806D36D
:1006600071609DE00246B03A462AEDD3F6E7C8280D
:100670000DD1B078401CC1B2B17056A003F094F80F
:10068000B0783C2803D358A003F08EF8E56187E0EA
:100690007268521C7260102A39D31346103B102B1B
:1006A00005D3103B102B09D3103B102B02D26161F4
:1006B000A16104E011464039102900D2A561502AF9
:1006C0006ED305706CE07068401C7060642810D2B6
:1006D00055480068012802D07078012860D17170F7
:1006E0003868142148435149884259D265612561CF
:1006F00056E00246643A642A01D261612161C82849
:100700004DD84DE07068401C70600A2801D2A56188
:1007100046E002460A3A0A2A0ED30A3A0A2A05D3C2
:100720000A3A0A2A08D30A3A0A2A01D2A56105E040
:100730000246323A1E2A01D26161A16150282ED2AE
:100740002EE07068401C7060362802D26561A56199
:1007500001E06161A161672821D821E07068401C37
:10076000706014280CD30246153A512A11D3523A1C
:10077000132A05D3143A512A0BD3523A7B2A03D2B7
:100780006561A56107E00FE00246FF3A4A3A512A47
:1007900001D26561A161FF219B31884200D975605A
:1007A000064800783070F8BD6161E1602161A161A7
:1007B000A1616161F3E70000140000200001002046
:1007C000AC00002000420050A4000020880000205F
:1007D0003EF9FFFF09096D753842757A4379636CFC
:1007E00065203D2025640A00202020202020202094
:1007F00020202020202020202020202020202020F9
:1008000020202020202020202A2A2036307320205B
:100810004944204572726F7220506F776572206F65
:100820006666202A2A0A00007C000020404B4C000B
:10083000810F8A00044951184A68C306DB0E012063
:10084000984002434A60704700020050F0B507002C
:100850000C46564885B054490162554E016813D084
:10086000042211430160102000F0BAF90120C004F5
:1008700002905048042503904F4850492018884260
:100880000DD8002004901CE00122114301601046A5
:1008900000F0A6F90020022503960290ECE74848F4
:1008A00048492018884203D801206400049008E0D9
:1008B0004548454920184942884249D80320A400A8
:1008C00004900026F64300200090019021E0294684
:1008D0000398FFF735FC3D493D4A4118914217D234
:1008E0000222354B014651435B1CCF185B429F42AD
:1008F0000AD8A14201D90B1B00E0631AB34203D20C
:100900001E000095019203D03249521C8A42E8D958
:100910006D1C212DDBD904980299800308430099AE
:10092000012249029202891A08430199891E08434B
:100930001E490862042000F053F904990098491CEC
:1009400041430398FFF7FCFB0199484305B0F0BD14
:10095000002F0FD0204915480162042000F040F913
:100960001EA0006800901148016A0013014203D0E4
:100970000020EBE71A49EEE7080300D50D4E880387
:1009800001D53046E2E70804800F6A46105CCA05CC
:100990008904C90E891CD20D4143B008921C5043F2
:1009A000FFF7CEFB8000D1E70000010000020050FD
:1009B000001BB70000805101FF1E0AFAFFE0F50599
:1009C0007F0F05FD7FF0FA02C08782FEFF95E7FFEB
:1009D000BF77CC00010200006FD6000001020204C4
:1009E0002EC2000002490A6802430A6070470000F4
:1009F0000002005008B511A0006800901048016A7C
:100A00000013014201D0002008BD080301D50D48A4
:100A100000E00D488A03F7D40A04920F6B469B5CF2
:100A2000CA058904D20DC90E891C8008921C59433D
:100A30005043FFF785FB800008BD0000010202045F
:100A40000002005000805101001BB700F8B51B4C9C
:100A50000546E668102006401948854202D8401035
:100A6000854200D2054620680427384320601020C4
:100A700000F0B6F82069072108432061A069000949
:100A80000001A06120682946C00704D00020FFF7BC
:100A9000DDFE054607E00120C004FFF7D7FEE6684B
:100AA0000546102006400021022000F00BF8002E21
:100AB00002D12068B84320602846F8BD00020050EB
:100AC00080F0FA02F3B5114C81B0E5680F461026AC
:100AD0002068354030432060304600F081F82069BE
:100AE000072108432061A069000900013843A06183
:100AF0002069C1080198C9000143216101F014FD7A
:100B0000002D02D12068B0432060FEBD00020050DD
:100B100070B5430E5B070DD083009B0F0F4C9B00FD
:100B20001B191C6805016D0FC601F60EB540AC43DC
:100B30000C431C60830A1906090E0ED00103074CF2
:100B4000890F8900083409190C68DBB28005DB4382
:100B5000C00E8340234013430B6070BD1002005051
:100B600070B50D4A0B4905260C4B156800248842C8
:100B700001D9401A01E0014600200A466A435A6141
:100B80009C611E611A69D203FCD51C610028EED15C
:100B900070BD0000B81E05000400002000E000E069
:100BA00070B50D4A0B4905260C4B15680024884288
:100BB00001D9401A01E0014600200A466A435A6101
:100BC0009C611E611A69D203FCD51C610028EED11C
:100BD00070BD0000B81E05000400002000E000E029
:100BE00010B504460749084B05E00A46491E002A8D
:100BF00001DC002010BDDA6820469043F5D10120C9
:100C000010BD0000804F120000020050F8B53648B9
:100C1000012501680024354E354800290BD0317874
:100C2000344A354F354E002928D0022919D1836B1B
:100C3000002B29D153E0816B314F002906D1C16BC4
:100C4000002903D0347015E0C46206E0816B0029EE
:100C500008D0C16B002905D0357002F03BFF307819
:100C6000F870F8BD816B0029F9D1C16B0029F6D16C
:100C700002213170F9780129E6D0F0E7836B002B6F
:100C800002D1C06B0028ECD11570002000F05EFE90
:100C90003C6031680120800781433160144F403F40
:100CA000BC611848FFF75CFFFC601748FFF758FF6E
:100CB0001648FFF755FFBD611548FFF751FFBC61AE
:100CC0001448FFF74DFFFD601348FFF749FFBD6172
:100CD000306879050843306002F02EFDF8BDC06B26
:100CE0000028D1D1F8BD0000F4000020ED00002064
:100CF000404200501C010020004000402000014004
:100D00001400002008CF0000400D030088FB030002
:100D1000C8A9010050C30000289A0100F8B53F4956
:100D2000086A400779D53E480068012875D1012539
:100D300002023C48026052000260042008623A4C01
:100D4000A06A3A4F3A4E01280CD13078002809D1D8
:100D500038A002F029FD38480078B8733748007889
:100D6000F8733570A06A002857D13078012854D123
:100D70000220307032A002F017FD334801780020C5
:100D800000F0E4FD31480024057131483249047017
:100D900030480068086031480168491C01603048EB
:100DA0000178012900D00470032030701E484030C3
:100DB00045601D484038C56004618461294D29683B
:100DC0004005814329602848FFF7EAFE2868690644
:100DD0000843286025480078012808D124487D214F
:100DE0000068C900884202D90F4840304460214859
:100DF00004710460204804602048046003203070BF
:100E00000D48B97B01700D48F97B0170FF21054841
:100E100001318038016049000160F8BDC0400050D8
:100E20007C00002080E100E04042005024000020CF
:100E300034010020480A000038010020370100205A
:100E400020204C0A00000000ED000020DC00002003
:100E50003601002010010020300100208C0000200D
:100E60000001002020000140B01E0400FF0000200F
:100E700088000020D4000020F4000020F8000020AA
:100E800010B5044601F0C0F90C490868012210436E
:100E900008602220C8604C600A61BFF36F8F086948
:100EA0000028FCD10868400603D50868402210439A
:100EB000086003490020086010BD000000C0005019
:100EC00000010050054908682C229043012210437C
:100ED0000860044902480860704700000040004074
:100EE000A2080000F0000020F8B5F948016AC9071F
:100EF00001D0012108E0016A890701D5022103E040
:100F0000016A490701D504210162F349F1480978D2
:100F1000F44B8C46F14940790D78F1491422096867
:100F20001B684A43F04C03280AD002281FD0062829
:100F300034D0042849D005285ED0012874D08FE031
:100F4000A668002E05D000266768002F03D0002772
:100F500002E00126F8E70227F7192668002E01D0E3
:100F6000002600E00426BE19012E74D09AE0A6687F
:100F7000002E05D000266768002F03D0002702E06E
:100F80000126F8E70227F7192668002E01D000266F
:100F900000E00426BE19032E5DD09AE0A668002E5C
:100FA00005D000266768002F03D0002702E0012645
:100FB000F8E70227F7192668002E01D0002600E086
:100FC0000426BE19022E46D09AE0A668002E05D04F
:100FD00000266768002F03D0002702E00126F8E70B
:100FE0000227F7192668002E01D0002600E004260B
:100FF000BE19062E2FD09AE0A668002E05D0002636
:101000006768002F03D0002702E00126F8E70227D7
:10101000F7192668002E01D0002600E00426BE192C
:10102000042E18D09CE0FFE7A668002E05D000260D
:101030006768002F03D0002702E00126F8E70227A7
:10104000F7192668002E02D0002601E003E00426EE
:10105000BE19052E0FD16646022E71D001280AD086
:1010600003281FD0022834D0062849D004285ED097
:10107000052875D08EE0A068002805D0002066689D
:10108000002E03D0002602E00120F8E70226801996
:101090002668002E01D0002600E0042680190328CF
:1010A00075D077E0A068002805D000206668002E83
:1010B00003D0002602E00120F8E702268019266806
:1010C000002E01D0002600E00426801902285ED000
:1010D00060E0A068002805D000206668002E03D0DC
:1010E000002602E00120F8E7022680192668002E7B
:1010F00001D0002600E004268019062847D049E0E8
:10110000A068002805D000206668002E03D00026C5
:1011100002E00120F8E7022680192668002E01D09F
:10112000002600E004268019042830D032E0A068B0
:10113000002806D000206668002E04D0002603E0B8
:101140002BE00120F7E7022680192668002E02D046
:10115000002601E004E004268019052817D019E0D4
:10116000A068002805D000206668002E03D0002665
:1011700002E00120F8E7022680192668002E02D03E
:10118000002601E003E004268019012802D1604610
:10119000002802D0002D15D020E0002D1ED153488C
:1011A0004C4E0571056035796D1C35710125504E29
:1011B000012B35713ED1642A3CD94E4A914239D235
:1011C000057137E0012B09D14A48814206D24A48CD
:1011D000824203D93F48C16B491CC1633D48C06B83
:1011E000192827D93D4E002D24D1012B22D1434867
:1011F0007D21C900824211D91046FEF7A1FF0146A8
:101200003FA002F0D1FA0520307033480178002069
:1012100000F09CFB3D49072008700BE00320307074
:10122000324B012018711046FEF78AFF014638A0A4
:1012300002F0BAFA274D384E2879052823D92C48D0
:101240000168142041433548FEF77AFF344A2549A6
:1012500010600968334F002903D03278012A04D086
:101260000BE000203860106007E0012905D12E490D
:1012700048432E49FEF764FF386000201C490122D4
:1012800008600A7128712A480078002801D00128D6
:101290000BD112480078002807D13078012804D1FA
:1012A0000D480178012000F0D7FBA068002805D088
:1012B00000206168002903D0002102E00120F8E746
:1012C000022141182068002834D0002033E00000BB
:1012D0000040005024000020ED000020FC00002011
:1012E000BC0000207C00002000420050D400002000
:1012F000CC000020D8C22D00B80B000070110100F6
:10130000466F726365207825640A000000010020A2
:101310007825640A0000000036010020008793034E
:10132000F8000020F4000020B205000010270000A3
:1013300034010020042008186871F8BD10B50B486E
:10134000016A090703D50821016209A00AE00749DB
:1013500040390A6A0A62016A016204484030016A3F
:10136000016208A002F020FA10BD0000C040005049
:1013700050332E3320494E54206F6363757272656B
:10138000642E0A00556E2D6578706563746564205F
:10139000696E74657272757074732E0A00000000B5
:1013A00010B58369140E8C4023438361C369120214
:1013B000120A8A401343C36110BD0000F8B5974874
:1013C0004168FF2212041143416005242407606B29
:1013D000934908406063606B5F2108436063E06B82
:1013E00090490840E063E06B02210843E0638B48CA
:1013F0000322803000F030F9E06BFF210231884396
:10140000E063E06BE063854801221146803000F024
:1014100023F9854F01253D62A06B84490840A063F4
:10142000A06BA0637D4800224021403000F014F9F9
:101430007A4800228021403000F00EF9E06B7C49B0
:101440000840E063E06B032109030843E06373484D
:1014500002221021803000F0FFF870480222202183
:10146000803000F0F9F8206B724908402063206B4F
:1014700020636A4E0022403E0121304600F0ECF825
:101480006D4A00213046FFF78BFF002202213046D3
:1014900000F0E2F8684A01213046FFF781FF0022A0
:1014A0000421304600F0D8F8634A02213046FFF7A5
:1014B00077FF5D492820C039086070690221084320
:1014C000706170690843706170690421084370613C
:1014D000084600F0C1FBA06B58490840A063A06B10
:1014E000A0634E4801220221403000F0B5F84B487D
:1014F00001220821403000F0AFF8484801222021A5
:10150000403000F0A9F800207860F8607861206B26
:101510004B4908402063206B20634A480168414AD8
:10152000114001600168016001220821304600F08D
:1015300093F83D484038456101221021304600F0C3
:101540008BF839484038056101222021304600F0EF
:1015500083F8354840384561304801220221C030C7
:1015600000F07AF8304840304560E06B364908407A
:10157000E063E06BE063294801220821803000F03D
:101580006BF80020F862024624484021803000F0C9
:1015900063F8224800228021803000F05DF8E06B83
:1015A0002A490840E063E06B04210843E0631B48DC
:1015B0000022803000F050F818481F4A0221803085
:1015C000FFF7EEFE022000F047FB17492820C03944
:1015D0000860124880304069042108430F49803177
:1015E0004861206B1A4908402063206B2063012268
:1015F0004021304600F030F80B4840388561206BC0
:10160000144908402063206B20630122802130466A
:1016100000F022F804484038C561F8BD4040005051
:10162000A0A0FFFFFDFDFFFF404200503F3FFFFF36
:10163000CFCFFFFFF8F8FFFC01000100D5D5FFFF79
:10164000C7C7FFFF400000503737FFFFFBFBFFFF1E
:10165000BFBFFFFF7F7FFFFFF0B5002301273C46A0
:101660009C400C4208D005685C000326A640B543A8
:101670001646A640354305605B1C082BEFD3F0BD32
:10168000F8B500264D4801220263016AD3021943CE
:101690000162016BC907FCD00121016300244748A6
:1016A000A10008180068002C85B20AD0012C17D0C0
:1016B000062C54D0032C24D0052C24D0022C25D069
:1016C0004DE03F487D2105603E48C9006843FEF774
:1016D00037FD3D4908603D480168A94214D33EE00A
:1016E0002846FEF719FF3A4A1168884202D9431A80
:1016F000022B04D8814232D9091A02292FD910604D
:101700002DE0344800E03448056028E0334F787815
:10171000002831D0324F012081007A58C919803910
:10172000401CC0B2CA671E28F6D32846FEF7F4FE56
:101730007D21C9004843BE21FEF702FD78670020E5
:101740008100C9194968401C8E19C0B21E28F7D300
:101750001E213046FEF7F4FC22498C300860641CE0
:10176000082C9CD31548016BC907FCD0016A0122E3
:10177000D20291430162F8BD2846FEF7CDFE7D21DD
:10178000C9004843BE21FEF7DBFC01463878144A05
:101790008300401CC0B2D15038701E2801D10120F6
:1017A00078702846FEF7B8FE7D21C9004843BE2167
:1017B000FEF7C6FC0B494630D0E7000000000E40A3
:1017C00010010020697D0000180100201401002094
:1017D0000C0100200801002004010020100000205E
:1017E000840B002088000020044603A001F0DCFFE9
:1017F000204602F093FDFEE7496E204861726420A6
:101800004661756C742048616E646C65720A0000F4
:1018100010B5074C2046FFF70BF8032100220906FC
:101820002046FFF775F9034800F0E0FC10BD00000A
:101830000800004008000004F8B5012700242F4EDE
:10184000012803D07462B462F770F8BD706A401C5E
:101850007062C82845D2F178012901D128494C602D
:101860003228B06A01D1401CB06205283ED10A205E
:10187000B0622348F47080388461224D29684005A5
:10188000814329602048FFF78BF9286869060843DF
:1018900028601E48FFF784F91948803887611CA02A
:1018A00001F082FF1F20000300F072FC1D4DA842D2
:1018B0000CD11DA001F078FF1F202909000300F0C2
:1018C000B3FC1D4807700E4844600FE01BA001F0F8
:1018D0006BFF1F202946000300F0A6FC1648047089
:1018E00004E0C938C72801D205484760FF21706A63
:1018F00091318842A9D97462F8BD0000240000200B
:101900008042005020000140E093040050C30000DA
:101910004368616E6765205370656564204D6F6430
:10192000650A0000A0A0A0A02A20536C6F77204D6C
:101930006F6465202A0A0000FF0000202A2046610B
:101940007374204D6F6465202A0A0000F8B5374A89
:101950000024D4605461546005231B07996B344FF5
:10196000394099639460996B324E314099631461A8
:10197000996BFF250235A94399631460002854D15F
:1019800000F080FC2C49102008602C4804602C4892
:10199000046005200007816BB3101940816323495F
:1019A0008C60826B33461A4082630C61826B2B46DB
:1019B0009A4382630C60E12023498000214B052675
:1019C0000F6803E0884201D9401A03E00146002075
:1019D0000D467D435D619C611E611A69D203FCD591
:1019E0001C610028EED105252D07A86B002813D017
:1019F00016A001F0D9FEA86B0D490840A8630B485A
:101A00008460A96B0B4A1140A9630461AA6BFF2192
:101A100002318A43AA63046004490120C860486116
:101A200048600B4908710B480470F8BD40420050F3
:101A3000FBFBFFFFEFEFFFFF80E100E0F400002081
:101A4000F800002000E000E004000020265F0A000B
:101A5000DC00002036010020F0B53F4C0023E3609D
:101A60006361636005221207956B3C4E35409563B8
:101A7000A360956B3A4E354095632361956BFF26C5
:101A80000236B54395632360012844D1012942D031
:101A90003448006801283ED13348007801283AD103
:101AA0003248334B0068984235D22B4D403DA868F0
:101AB000002805D000206B68002B03D0002302E033
:101AC0000120F8E70223C3182868002801D000206D
:101AD00000E004201F180120042506023B0001F04D
:101AE00073FE071A0521113538321A00002904D176
:101AF000916B4908490031430BE0916B10239943E6
:101B00001B0215E0002907D1916B0123A9439B0219
:101B1000194391636061F0BD916B102399431B02DF
:101B200019430DE0002907D1916B0123A9439B02C2
:101B3000194391636060F0BD916B490849003143DE
:101B40009163E060F0BD0029D7D0D1E70029E3D050
:101B5000DAE70029F0D0E7E740420050FBFBFFFF47
:101B6000EFEFFFFF7C00002036010020BC000020CA
:101B7000C0C62D0070B5274E274831780068274D24
:101B8000274C002913D00022264B01292FD00229EF
:101B90000CD19842E06801D2401CE0604B21C900A2
:101BA000884203D332702A70A260E26070BD1D4982
:101BB00060318842FAD31CA0A16801F0F5FDA0684D
:101BC000FF21401C9131A0608842EFD31AA001F0A0
:101BD000EBFD1E48012404601D48C46003202870EA
:101BE0001C4801780020FFF7B1FE347070BD0D492C
:101BF000C94341185F2902D22978002906D09842AA
:101C0000F4D22A70A260E260327070BD06202870A3
:101C100070BD0000FC000020040100200001002035
:101C20003C010020360E00004D6F746F7220546529
:101C30006D703D25642C0A002A4D6F746F725F54DD
:101C40003E31303027432A0A00000000F400002013
:101C500000420050ED000020C106C90E012088405E
:101C6000014908607047000000E100E08307FF229F
:101C7000DB0E9A408907090E994000280BDA00070D
:101C8000000F0838830808489B001818C36993435D
:101C90000B43C3617047830804489B00181803680E
:101CA00093430B430360704700ED00E000E400E065
:101CB000F8B52B4C2C4A20692C4D401C20616169E1
:101CC0000926491C6161A169294F491CA161254967
:101CD000096891423DD313280CD929780020FFF7D9
:101CE00035FE24A001F060FD23493E7004200870F9
:101CF000132020611B482149006888422BD360696A
:101D000030280CD929780020FFF720FE1CA001F014
:101D10004BFD19493E700420087030206061114865
:101D2000AF210068C900884217D32D20A1690001A6
:101D300081420DD929780020FFF708FE11A001F09B
:101D400033FD0D493E70042008702D200001A06174
:101D5000F8BD0020CDE70020E0E70020F7E7000015
:101D60003C01002010010020D80E0000ED000020F2
:101D70000001002049310A00FC000020FC0800009E
:101D800049320A0049330A0070B51E4D1E482B78AF
:101D9000FF22002491321D4E00681D49002B11D0F6
:101DA000012B0ED11B4B984229D24868401C486039
:101DB000904206D90C6018A04C6001F0F5FC34701C
:101DC0002C7070BD134BA233984216D90868401C82
:101DD00008609042F5D30C6013A04C6001F0E4FC65
:101DE0001548012404601548C4600320307014486D
:101DF00001780020FFF7AAFDE2E70C6070BD4C609F
:101E000070BD0000FD00002008010020000100203E
:101E10003C010020140D00002A5043425F543C371F
:101E20003027432A0A0000002A5043425F543E38BC
:101E30003027432A0A000000F4000020004200502E
:101E4000ED0000200548002141618161044A826063
:101E5000044AC2600161044901607047740C0020AB
:101E60000AD7A33DCDCC4C3D980800000548002181
:101E700041618161044A8260044AC260016104498F
:101E800001607047580C00200AD7A33DCDCC4C3DD3
:101E9000980800000548002141618161044A826080
:101EA000044AC26001610449016070473C0C002093
:101EB0000AD7A33DCDCC4C3D91050000054800213B
:101EC00041618161044A8260044AC260016104493F
:101ED00001607047200C00200AD7A33DCDCC4C3DBB
:101EE00091050000FFB5044649480E460FC899B059
:101EF000149311AB07C346490125FF274422103133
:101F00006846FEF733F94348159043490220434A97
:101F100030408C4206D151690322120782401140A1
:101F20001C3004E0D169302282401140001DC140C4
:101F3000022921D0880011A9085816901B99FEF794
:101F4000FFF817902946FEF7FBF8012109068842A1
:101F500017D83049411809020F0E032F00D202276B
:101F60003946FEF7EDF801210904884209D8012815
:101F700000D080B215900AE000F0D6FA2848006838
:101F8000DBE76806050E112D01D21798DAE739460E
:101F90001598694341431698FEF7D2F816907F1EB4
:101FA0001598F9B2401E87B2A8006A46155C2268EF
:101FB00070088446C000FF2383409A4381400A434F
:101FC00022606168B0000722824091438540294326
:101FD0006160A16801226046920782409143A1603E
:101FE000A068F200082191400843A0600C214E43F4
:101FF0001C983419002805D0791C48436421FEF749
:102000009FF8401E2061E76016981DB0F0BD0000EB
:1020100068440000FFFF0000000004400002005080
:1020200000000020C26F0A43C2677047F8B5354C04
:102030002046FEF7FDFB344D2846FEF7F9FB334EF4
:102040003046FEF7F5FB0321002209072046FEF784
:102050005FFD002271072846FEF75AFD002230215D
:102060003046FEF755FD2A4800F0C0F82848401CCD
:1020700000F0BCF8274D05212846FFF7D3FF264E78
:1020800001213046FFF7CEFF244C254F00213A4670
:1020900028462368FFF726FF3A4602212846236890
:1020A000FFF720FF3A46002130462368FFF71AFF6A
:1020B0000421284600F058F80121284600F054F881
:1020C0000121304600F050F8E86864214843FEF7EB
:1020D00037F80146642213A001F066FBE86864212A
:1020E0004843FEF72DF81449144C08606421216020
:1020F000014613A001F058FB16A0216801F054FB23
:10210000F8BD00001400C0571500E05716004076D7
:10211000140000040000044000001440F0000020FF
:1021200088130000504D57434D52203D2025642018
:102130002F2025640A000000200100202401002037
:10214000677533324D415850574D203D2025640A64
:1021500000000000677533324D494E50574D203D09
:102160002025640A0000000070B500231A460126ED
:102170003546954034460D4202D0D500AC4023434D
:10218000521C042AF4D381681943816070BD000099
:1021900010B5044600F038F80849086801231843D0
:1021A00008600022CA604C600B61BFF36F8F086942
:1021B0000028FCD1886802490A6010BD00C00050A8
:1021C0000001005010B50420FEF70CFC1020FEF7B3
:1021D00007FD00210720FEF775FC0348FEF736FCDB
:1021E0001420FEF7FDFC10BD80F0FA020521020E5E
:1021F000090751188B680122824013438B6088685D
:10220000904388607047000010B559211623054897
:10221000882202E00160036002600468012CF9D1A9
:1022200010BD00000001005070B50D460446FEF7D9
:1022300027FEFFF7E9FF094A1168012001431160F9
:102240002121D160546095601061BFF36F8F1069D8
:102250000028FCD10249086070BD000000C0005099
:102260000001005006498A691202FCD408600A285D
:1022700004D188690002FCD40D200860704700007A
:102280000000054002490861886202490861704700
:102290000000044000001440F8B5244C05462068B6
:1022A000FEF74AF82946FDF7C4FF214D2149E864AD
:1022B000884204DA2049884201D20020E864A069FB
:1022C000FEF73AF82169FDF7BCFF07466069FEF7A3
:1022D00033F8E168FDF7B5FF0646A068E96C0091A8
:1022E000FDF7AFFF3146FDF7A4FF3946FDF750FF7C
:1022F0000646E8656069A0610098FEF72FF8606106
:102300003046FEF72BF8FEF717F83F210906FDF7D8
:102310003FFF3146FEF750F8E86D02D8FEF71EF891
:10232000F8BDFEF734F8401CF8BD0000740C002026
:10233000600100200000F0410000F0C1F8B5244C1D
:1023400005462068FDF7F8FF2946FDF772FF214D8D
:102350002149A864884204DA2049884201D2002039
:10236000A864A069FDF7E8FF2169FDF76AFF074649
:102370006069FDF7E1FFE168FDF763FF0646A068CD
:10238000A96C0091FDF75DFF3146FDF752FF39461C
:10239000FDF7FEFE0646A8656069A0610098FDF79E
:1023A000DDFF60613046FDF7D9FFFDF7C5FF3F2136
:1023B0000906FDF7EDFE3146FDF7FEFFA86D02D8D8
:1023C000FDF7CCFFF8BDFDF7E2FF401CF8BD0000B3
:1023D000580C0020600100200000F0410000F0C116
:1023E000F8B5244C05462068FDF7A6FF2946FDF701
:1023F00020FF214D21496865884204DA204988423E
:1024000001D200206865A069FDF796FF2169FDF7FC
:1024100018FF07466069FDF78FFFE168FDF711FFC0
:102420000646A068696D0091FDF70BFF3146FDF788
:1024300000FF3946FDF7ACFE064668666069A0619C
:102440000098FDF78BFF60613046FDF787FFFDF7D1
:1024500073FF3F210906FDF79BFE3146FDF7ACFFF8
:10246000686E02D8FDF77AFFF8BDFDF790FF401CBB
:10247000F8BD00003C0C0020600100200000F0418D
:102480000000F0C1F8B5244C05462068FDF754FF64
:102490002946FDF7CEFE214D21492865884204DA00
:1024A0002049884201D200202865A069FDF744FF39
:1024B0002169FDF7C6FE07466069FDF73DFFE1684B
:1024C000FDF7BFFE0646A068296D0091FDF7B9FE35
:1024D0003146FDF7AEFE3946FDF75AFE0646286640
:1024E0006069A0610098FDF739FF60613046FDF733
:1024F00035FFFDF721FF3F210906FDF749FE314673
:10250000FDF75AFF286E02D8FDF728FFF8BDFDF74A
:102510003EFF401CF8BD0000200C002060010020A0
:102520000000F0410000F0C1F8B51C4D28694407D7
:102530001BA000680090296A640F2813014201D093
:10254000002016E0080301D5164800E016488A036B
:102550000FD40A04920F6B469B5CCA058904D20D06
:10256000C90E891C8008921C59435043FDF7E8FDB1
:1025700080000E4E022CB06002D00D49A000085819
:10258000A9690907090F491CFDF7DAFD09493060FF
:102590004A108018FDF7D4FD7060F8BD00020050AD
:1025A0000102020400805101001BB700000000205E
:1025B000C443000040420F007047000070B51B4C40
:1025C0002046FEF735F91A4D2846FEF731F9072166
:1025D000002209022046FEF79BFA07210022090388
:1025E0002846FEF795FA144C124820606F20606070
:1025F00020686503284320600820FFF72DFB206832
:10260000A603304320600B48FC302062FF20AF302F
:102610006062094C20342068284320600920FFF7BD
:102620001BFB20683043206070BD00000200805E0C
:102630000300C05E0300000800000140F8B5E9484F
:10264000FF2200681932E8490123904202D9184656
:102650000B7000E0002000240C70E4498B60E44D16
:10266000E44E296B491C29633268521C3260EA69C6
:10267000521CEA61642A03D3EC612A6A521C2A6262
:102680003768FF22F532974203D334606A69521CDF
:102690006A61322916D3D849D84A0B701178491C7F
:1026A00011702C636978884202D0AC61687009E0CF
:1026B000A969322903D2491CA961322902D3D04920
:1026C00028700860E86A401CE862CE480179012958
:1026D00069D00460CC480179012968D00460CB48F6
:1026E0000179012967D00460C9480179012966D0C0
:1026F0000460C8480179012965D00460C6480179A1
:10270000012964D00460C54800790128C34862D01B
:102710000460C3480179012961D00460C14801798E
:10272000012960D00460C04FC04E387901285ED0C6
:102730003C60BF48017901297FD00460BD48BE4993
:102740000068BE4B884202D8197801290AD0AF210F
:10275000C900884202D81978002903D0B8490978FD
:10276000052909D9AD49142209685143B54A914256
:1027700002D93178002976D01978CB220129A749CE
:1027800009685ED014235943AE4B99426CD232781B
:10279000022A3A6869D014235A43AB4B9A4201D9B2
:1027A00032285ED393E00168491C016092E701681A
:1027B000491C016093E70168491C016094E70168C6
:1027C000491C016095E70168491C016096E70168B2
:1027D000491C016097E70168491C016099E701689D
:1027E000491C01609AE70168491C01609BE7386851
:1027F0001421401C386048439449884299D3944836
:102800000078002895D17E480068012891D1914830
:10281000017805298DD090490978012989D10521B0
:10282000017031780020FFF791F88C49072008707B
:102830008BA000F0B9FF7CE7FFE70168491C01604D
:102840007CE7142359437F4B994251D23278022AB4
:102850003A680BD014235A437B4B9A4216D932283C
:1028600014D2132031E044E042E021E014235A4323
:102870007D4B9A4206D87D22D200904204D27B48FA
:10288000814201D9662020E099201EE0784B9A42CF
:1028900004D9784A914201D90A2016E0764A914239
:1028A00004D96549884201D215200EE034200CE09D
:1028B00014235A436C4B9A42E4D8FF22F5329042DB
:1028C00002D26A488142DDD8C920286411E0684BF1
:1028D0009A4202D9674A9142DED8674A914205D9A5
:1028E000AF21C900884201D26520EEE7CA20ECE79B
:1028F0002A64296CE86A884200D9EC625F49604822
:102900000A680068824201D8104600E00860FFF7BC
:10291000B9FC5C48C06805273F0701280DD1B86B9A
:1029200040050AD53178012907D0354800680128CB
:1029300003D149480078012805D02C7251484068DD
:1029400001280ED01BE0287A401CC0B22872022851
:10295000F4D30020FEF7FAFF31784BA000F024FFFB
:10296000ECE7B86BC0050AD53178012907D02448B7
:102970000068012803D138480078012805D0EC719F
:102980004048406901280ED01BE0E879401CC0B2E5
:10299000E8710228F4D30020FEF7D8FF31783CA07C
:1029A00000F002FFECE7B86BC0040AD531780129CA
:1029B00007D013480068012803D127480078012870
:1029C00001D0AC71F8BDA879401CC0B2A871022832
:1029D000F8D30020FEF7BAFF31782FA000F0E4FE14
:1029E000F8BD00000C01002079000020000001402B
:1029F0002400002074000020390100203A0100204A
:102A00007C000020E4000020C4000020CC00002056
:102A1000AC000020B4000020A4000020BC00002076
:102A2000940000209C000020D4000020ED00002035
:102A3000DC000020F4000020CA0800007A0000201A
:102A40002C010020E093040030750000C02709002D
:102A500034010020FC00002036010020000100208D
:102A600053746C0A00000000204E000050C30000A8
:102A700088130000A0860100400D0300F000002034
:102A800020010020404200507E25640A0000000022
:102A90002125640A000000004025640A00000000AF
:102AA000F8B5FA4901208860F9490A682C239A434D
:102AB00002430A60F74E707A401C7072B078401C76
:102AC000B070FEF7DDFDF448F44D006800240028E6
:102AD0002AD1F348FDF758FDEF480168002923D1BA
:102AE00001270760EF48F24B04600471EE48046070
:102AF0000471EE480068984202D26F61AF6110E045
:102B00007D21C900884205D20A461946E9A000F095
:102B10004BFE06E0ECA000F047FEE2480771E248F9
:102B20000771DF48FDF730FD707AC8280AD1DA480E
:102B300074720068002809D1E7A000F035FED8487B
:102B40000A210170D448006800287DD0FEF75EF8A5
:102B5000E3480768E348002F03D00079012810D02C
:102B60002DE0017901292AD1006814214843DE496A
:102B7000884206D9DD480068002802D1DC490120DE
:102B80000870D848142100684843DA49884216D9A9
:102B900005200007816BD84A11408163BF4940314D
:102BA0008C60826BD54B1A4082630C61826BFF2371
:102BB00002339A4382630C60CC604C614C60CB481A
:102BC0000068012802D000287ED061E301207073E4
:102BD000B548B64A0460B348B549046010688842F5
:102BE00001D2002F13D074637D23DB00984207D2FB
:102BF000C349142209685143C82901D20121B17285
:102C00007D21C90088422CD2002F04D029E0716BAD
:102C1000491C7163E8E7BB480078012821D1307B6B
:102C200000281ED1B848007800281AD1B7A000F0BB
:102C3000BBFD01203073AC61EC60944F38687906BD
:102C400088433860B34800E0B2E3FDF7A9FF386875
:102C5000790608433860AF48FDF7A2FF0120A8615C
:102C6000E860706B3C2802D3F17A00290BD0A549AB
:102C70000978012979D08D4F8D493A688A4201D966
:102C8000002822D0DCE1A44804700120F072A3A047
:102C900000F08AFD05200007816BC905CB0F816B11
:102CA000806B4905CA0FC004C10FA0A000F07CFDD5
:102CB0007A4840304368C26841699CA000F074FDC6
:102CC000774802210170BBE1D9E1894800780128E9
:102CD000D8D1834800680028D4D19648FF210068E5
:102CE0000F318842CED994480178C907CAD1934997
:102CF0000A78934909780A43924909780A43C1D16D
:102D000078490C710C600121017083480470FF2028
:102D10000630B064401EF0647B4804708A4804604A
:102D20008A4804606BA000F03FFD89A000F03CFDE4
:102D300088480078002804D0012808D0022808D04C
:102D40000AE07048017884A000F02EFD04E084A021
:102D500000E084A000F028FDA868002806D000202C
:102D60006968002904D0002103E025E10120F7E78C
:102D7000022140182968002901D0002100E0042127
:102D800041187CA000F010FD7CA0396800F00CFD1B
:102D900050A000F009FD424804706E48F4630078CA
:102DA000012807D17D203968C000814202D93B4803
:102DB00080304460354820380168800381433348BF
:102DC0002038016031480168400681432F48016086
:102DD00005200007816B484A114081632F4F40371F
:102DE000BC60816B454A114081633C61816BFF226D
:102DF0000232914381633C600120F8607861786021
:102E00006048FDF7CDFE21482038006839060843A8
:102E10001E49203908601D480068890308431B4982
:102E20000860FC607C617C605648FDF7B9FEF8697B
:102E3000012822D054A000F0B7FC56480470564830
:102E400004700120F8622F4F3978FEF705FE5349D0
:102E500001200871524938780870124828490460E6
:102E600004711148046004714E480460047101202B
:102E700008714D4910200860E2E04CA000F094FC7D
:102E80004549012008704348DAE70000200001406E
:102E9000004000402400002090000020004200502C
:102EA00000010020A4000020AC00002088000020C9
:102EB000D6060000090923232025643C2056203C27
:102EC00025640A0A00000000090923232025642044
:102ED0003C20560A0A00000049445F4E470A0000A1
:102EE000F4000020DC000020671E06007C000020AB
:102EF00036010020673C0100FBFBFFFFEFEFFFFF07
:102F0000BC000020ED000020030100203132330A14
:102F10000000000050C30000370100206C6F7720D4
:102F2000626174746572790A00000000256425648A
:102F300025640A000C01002038010020FD0000205B
:102F4000FC000020FE0000201001002014010020E1
:102F5000446E3D00FF000020463A25640A00000050
:102F60002A530A002A2A204944204572726F72208F
:102F70002A2A0A0048533D25640A0000563D25646C
:102F80000A000000204E00005370656564204C4F1D
:102F90000A0000002C0100207A000020C40000205C
:102FA000EC000020B400002000E100E053706565F3
:102FB000642048490A000000FE4F3878012803D1F8
:102FC000FD490978002906D0FC4909780143FA48EF
:102FD0000078014334D1FA490120C862F9A000F019
:102FE000E3FBF5493C7001200870F8480460F8489C
:102FF000016880038143F6480160F54F2037386847
:10300000790688433860EC60AC61F248FDF7C8FD92
:103010000120E860A861F048FDF7C2FDAC61EF480F
:10302000FDF7BEFD0120A86100F086FBE8480068BE
:1030300079060843E6490860386889030843386020
:10304000DD48007801287DD1B07A0128FBD1E44821
:1030500000780028F7D1E3480078012873D0E248CF
:10306000007800280AD1E14800780028FAD1E04829
:1030700000780028F6D1DF49012008701CE1707B40
:103080000128E0D1CB480078C007DCD1DAA000F0FD
:103090008BFB6E20CA4F7064FC62D9480470C6482E
:1030A000007801281BD1B07A012818D1CC480078CB
:1030B000002814D1CB480078012810D0CA480078E5
:1030C00000280CD1C9480078002808D1C8480078E9
:1030D000002804D1C7480C210170FDF755FAFC60A7
:1030E0007C607C61C748C849046064200860C749A7
:1030F00001200871C6490C70C649F4630C710C605C
:10310000C5490C710C60C5490C707463B472A9494F
:10311000F4720870AA4940314860B34FB34A397815
:1031200012781143B24A1278114300D1E860A349E2
:1031300001200870BA4804600471BA480078002879
:1031400007D001E0A4E0A7E0B7480168B748814292
:103150000BD2B749B74A0C60012014600871107196
:10316000954804700020FEF767FBB34800780328F9
:1031700062D0387800285FD19C48007800285BD165
:103180009B480078002857D1A348AC490068884282
:1031900052D294480078012804D0A9480078002829
:1031A0002AD049E0307C002802D0012813D043E027
:1031B000A44F1421386848437D21C900FCF7C0FFA3
:1031C0000146A1A000F0F0FA01203C603871307C8B
:1031D000401C307430E09B481421006848437D490E
:1031E000884229D27D21C900FCF7AAFF014698A098
:1031F00000F0DAFA34741FE0EC60AC6173480460EC
:10320000734F203738687906884338609248FDF755
:10321000C7FC9148FDF7C4FC9048FDF7C1FC386835
:1032200079060843386000F087FA0120E860A86159
:103230008B4804608B4804607748046004717948C7
:103240000078012814D1686177490A687D21C90096
:103250008A4202D95A4940314C605749754A0C702C
:1032600073490C601460087110710020FEF7E4FAD5
:103270005E480078052803D0042801D0032803D134
:1032800079480121046001716B4804706C48047036
:103290005448007801280FD16A4F142138684843F8
:1032A0007249884208D9307C012805D170A000F00D
:1032B0007BFA3C603C71347471484A4A007811785A
:1032C000884203D0B36B5B1CB36300E0B4638842F5
:1032D00014D0634F3868002810D0B06B02280DD38B
:1032E00068A000F061FA5F483C6004603D480178E6
:1032F0000020FEF72BFB4748047104603D48FDF7B2
:1033000043F9FEF741FDFEF735FCFEF7D1FC6048BE
:10331000604E0168B14203D10121A96104710460CA
:1033200044485D490068884213D95C480068002819
:103330000FD05BA000F038FA2C616C61EC60244A7D
:10334000203210685106884310603046FDF728FC93
:10335000EC61454801681F48814205D34F48006829
:10336000002801D021480470314E5B493068884202
:103370001ED94A48006800281AD058A000F014FA54
:1033800018480078012801D00D48C4620120286146
:1033900068610B4940314860E860A86130490C60C1
:1033A00030490C6013490C700D4908703460AFE06F
:1033B000AFE00000370100203801002002010020AA
:1033C000404200504272616B650A000000400040BC
:1033D0000000014020A10700A0860100400D03006D
:1033E00003010020ED000020FD000020FC00002073
:1033F000FE000020000100200A55700A00000000B5
:103400002C01002030010020F0000020DC00002012
:1034100036010020D4000020BC0000200101002063
:1034200094000020FF00002088000020D606000045
:10343000A4000020AC00002034010020C0C62D00F4
:103440001C010020E400002031313D25640A000009
:1034500032323D25640A0000E09304000852000067
:10346000F4000020F8000020B400002007A50700A9
:10347000526573657420446F75626C650A000000C4
:10348000EC0000202A4572726F722A0A00000000C8
:10349000C400002050C30000804F120090000020A4
:1034A000202020202020202020202020202020201C
:1034B000202020202020202020202020202020200C
:1034C0002A2A203234732020506F776572206F666D
:1034D00066202A2A0A000000F0490200202020204D
:1034E000202020202020202020202020202A2A20C8
:1034F0003373204C4544204F464620616E64204281
:10350000757A7A6572204F4646202A2A0A00000002
:103510003471F8BD10B5094C2046FDF789F9012139
:10352000002209062046FDF7F3FA0548FEF75EFE85
:10353000E1210903034800F007F810BD103D805752
:103540001000000400000540F0B504461C480D467C
:103550000FC885B06E460FC61A48416980698A0156
:103560000321960F0005070F00202063E160A0688B
:1035700015490840A060012E02D1FDF73BFA0190E9
:10358000002D1BD0B10068464058791CFCF7D8FDCF
:103590000646690840182946FCF7D2FD0B49801EF3
:1035A000884207D9E90070182946FCF7C9FD0009CF
:1035B000801E02E0032109070843606205B0F0BDE8
:1035C000E4430000000200500FFFF0FFFFFF000087
:1035D00070B50E4C0146207B0D4D8200A95000268F
:1035E0000321401CFCF7ACFD21730024A0002958E6
:1035F0003046FCF7CDFD641C0646032CF6DB05497E
:10360000FCF75CFE01498031486070BD600100201C
:10361000FC0B00200000404070B50E4C0146A07B22
:103620000D4D8200A95000260321401CFCF788FDA7
:10363000A1730024A00029583046FCF7A9FD641CA2
:103640000646032CF6DB0549FCF738FE01498031BC
:10365000C86070BD60010020140C002000004040D4
:103660001C48012101601C4A642010601B4A002094
:1036700010701B4A10701B4A11701B4A10701B4AB5
:1036800010701B4A10601B4A10601B4A10601B4AD6
:10369000106010711A4A106010711A4A10701A4A9C
:1036A00011701A4A10701A4A10701A4A10701A4A89
:1036B00010701A4A10701A4A11701B4A1949116089
:1036C000FF211A4A5F311160194A490011601949F6
:1036D0000870704790000020F000002034010020A6
:1036E00002010020ED000020030100200001002065
:1036F000AC000020A4000020B4000020DC0000206A
:10370000E4000020010100203601002037010020E4
:1037100038010020FC000020FD000020FE000020F9
:1037200035010020320200008000002084000020CB
:10373000280100202C01002010B559211623114822
:10374000882202E00160036002600468012CF9D164
:103750002B2464062046FDF76BF800220321204647
:10376000FDF7D6F9012200230321900200F00EF8A4
:10377000054801684022114301600120FEF76CFA00
:1037800010BD0000000100500040004010B5054C85
:103790006160510001431801014380200143216011
:1037A00010BD0000004000400FB410B503A9044B49
:1037B000044A029800F024F810BC08BC04B0184772
:1037C000693E00000C00002030B47446641E257869
:1037D000641CAB4200D21D46635D5B00E31830BC45
:1037E000184702E008C8121F08C1002AFAD1704722
:1037F0007047002001E001C1121F002AFBD1704771
:10380000FFB58FB00F460446002606E025280AD0F3
:10381000129A11999047641C761C20780028F5D1E3
:10382000304613B0F0BD002501219F4A009500E00D
:103830000543641C23780846203B98401042F7D18A
:1038400020782E2815D1042005436078641C2A288E
:103850000AD101CF641C00900BE000990A22514369
:1038600030394018641C009020780146303909290D
:10387000F3D920786C280ED004DC4C2813D06A28A9
:1038800012D104E074280ED07A280DD10BE001206B
:103890004005054307E00121090562780D43824296
:1038A00001D16D18641C641C2078692849D008DC9B
:1038B0000028B5D058286CD063280FD0642808D1D0
:1038C0003FE070286AD0732811D075285FD078281F
:1038D0005FD0129A11999047761CE3E038786946D8
:1038E00008720020487202A80190012003E03868A5
:1038F00001900020C0433F1D69070CD5002500E062
:103900006D1C00998D420FDA8542F9DB0199495D02
:103910000029F5D108E0002500E06D1C8542FCDBA4
:103920000199495D0029F8D1761907E001980199BC
:103930000078491C0191129A119990476D1EF5D299
:10394000B0E00A20029000216802400F0391022893
:103950000CD001CFC117844600290DDA60460A4613
:1039600040420021914184462D2008E0FF1DFF08C0
:10397000FF0003CF8446EFE7280504D52B206A46D5
:10398000107401203DE0E8073BD02020F7E70A2033
:1039900000E0102000210391029007E01020029027
:1039A0000021042005430820039100906802400F85
:1039B000022811D001CF0021844600200D90280755
:1039C00020D52078864670280CD0029A1020039BC0
:1039D00042401A430CD015E0FF1DFF08FF0003CF43
:1039E0008446EAE740206A46107401200D900CE0FE
:1039F0006046084306D030206A4610747046507402
:103A000002200D902078582804D028A001900DA8FD
:103A10000E900DE02AA0F9E76046039B029AFCF79E
:103A2000D5FC019B84469B5C0E9A521E0E9213702D
:103A300060460843F0D10E9805A9081A203001907D
:103A4000680701D40120009000990198814201DDAE
:103A5000081A00E000200025009006E004A8129A51
:103A6000405D119990476D1C761C0D988542F5DBE1
:103A700004E0129A302011999047761C0099481E54
:103A800000900029F5DC08E00E980E990078491C9A
:103A90000E91129A11999047761C0199481E019037
:103AA0000029F1DC641CB8E609280100303132330A
:103AB000343536373839616263646566000000006A
:103AC0003031323334353637383941424344454654
:103AD0000000000030B5404D0024AC636C672B46FD
:103AE0008033EC67DC63EC63AC672C671C643B4899
:103AF0002C64006868643A492A2008606C85AC85AB
:103B0000EC8539482C86374A0260374937483831C6
:103B100008601C390A60383108602C846C84EC849D
:103B20002C85EC702C71EC712C703148AC700460F9
:103B30003048046030480460304804603048046015
:103B40002C726C72AC722F481C6004606C70EC7646
:103B5000AC71AC83EC83EC72FEF774F9FEF786F976
:103B6000FEF798F9FEF7AAF91F49002024398200D0
:103B7000401C8C500328FADB1B49002018398200B6
:103B8000401C8C500328FADB6C74AC702C71AC7444
:103B90005C609C601C611C485C6104606C716C869C
:103BA0001A489C610470EC732C74FF2028756C75A6
:103BB000AC75AC84DC611C629C62DC621C635C637F
:103BC000EC745C62AC869C63EC752C7600F046FB72
:103BD0006C76AC7630BD00006001002088000020CB
:103BE0006400002091050000200C002098080000CF
:103BF0007400002038000020400000204400002015
:103C000060000020F0000020F400002020000020D0
:103C1000F3B51F4C1C2081B0205EFCF78DFBFFF735
:103C2000D7FC1C4D2868FCF792FBFFF7F5FC2246F9
:103C300080329069184FC72812D813468100443348
:103C40002E685E50C918154E03231B023668CB1828
:103C50001E620326760289193B68401C0B64906142
:103C6000014601200A2905D17D212A68C9008A421E
:103C700000D220716178012905D02179012902D172
:103C80002070074838600198E08402982085FEBDC6
:103C900060010020F4000020F0000020100100204E
:103CA000A2080000F3B51F4C1C2081B0205EFCF779
:103CB00043FBFFF78DFC1C4D2868FCF748FBFFF722
:103CC000ABFC224680329069184FC72812D81346A1
:103CD000810044333E685E50C918154E03231B0211
:103CE0003668CB181E620326760289192B68401CA1
:103CF0000B649061014601200A2904D10D493A68FC
:103D00008A4200D220716178012905D021790129E8
:103D100002D12070084828600198E084029820852C
:103D2000FEBD000060010020F0000020F400002033
:103D3000100100203A020000A2080000F0B58446FD
:103D40001D491E488A69066808468038142A05D924
:103D5000038C9B1B1E2B01DD012343711849194B5A
:103D60000C681968C72A0CD8134F950044377E5148
:103D70000326ED193602AE19346203267602AD1918
:103D800029640D4D521CAA614278002A0ED1427955
:103D90000D4D012A09D0022A02D0042A05D005E0DF
:103DA000642903D31439196000E01D606146018461
:103DB000448419888184F0BDE0010020F4000020D3
:103DC00010010020F0000020A2080000F0B52149F9
:103DD000844621488A690E460123803E07681E2AD0
:103DE00004D9308CC01B1E2800DD73711B48046889
:103DF000FF20F530844200D97371194BC72A196826
:103E00000CD8144895004430475103272D183F0221
:103E1000EF193C6203277F02E81901640D48521C28
:103E20008261707800280ED170790E4A012809D07D
:103E3000022802D0042805D005E0642903D31439F0
:103E4000196000E01A606046308474841888B08479
:103E5000F0BD0000E0010020F4000020100100206F
:103E6000F0000020A208000000B50346FEF7FAF9B2
:103E7000184600BD654C59221620882102E02260B8
:103E8000206021602368012BF9D1FEF79BF9002502
:103E90002560FFF7E5FBFDF791FAFFF73BFBFEF727
:103EA0000DF8FDF7F7FFFDF7E1FFFDF7CBFFFEF79C
:103EB000BDF8FDF7ADFCFCF739FB5548016855A08E
:103EC000FFF772FC57A0FFF76FFC5BA0FFF76CFCDD
:103ED0005DA0FFF769FC5FA0FFF766FC5FA0FFF73E
:103EE00063FC61A0FFF760FC0122114662A0FFF7AE
:103EF0005BFC664CE06864214843FCF721F96421CF
:103F00004843E168FCF71CF9014661A0FFF74CFC4F
:103F100065A168A0FFF748FC42A0FFF745FC694C8B
:103F200069A0E268A168FFF73FFCFDF7A9FB6A4AB8
:103F30009068002805D000205168002903D0002196
:103F400002E00120F8E7022141181068002801D0A2
:103F5000002000E00420091860A0FFF725FC0126DE
:103F60006348402101608021016005200007816BCA
:103F7000604A11408163584940318D60CD60826B49
:103F80005D4B1A4082630D614D61826BFF230233EA
:103F90009A4382630D604D60FEF710FBFCF736FE1E
:103FA00000210120FDF762FE01210220FDF75EFEE7
:103FB00001210420FDF75AFE00210820FDF756FEDE
:103FC00003210920FDF752FE4CA02169FFF7ECFB0D
:103FD000FFF7B2FB667026702078002803D0607867
:103FE000002800D1257020780128F5D060680128CC
:103FF00002D0FFF76FFDEFE7A078012802D000F0B4
:10400000D7F8E9E700F082F8E6E700000001005089
:10401000000000200A0A4350552020256420487AD9
:104020000A0000002A2A2A2A2A2A2A2A2A2A2A2A8E
:104030002A2A2A2A2A0A00002A2A205054412D58C6
:104040003530462000000000506F6C657320325FF1
:104050005F0000005657550A000000002A2A204938
:10406000443A5965732C00002042757A7A65723A99
:104070005965730A000000002A2A20462F57203D68
:10408000205625642E30256441200A00000004409B
:104090002A2A204D61782044757479203D202564BA
:1040A0002525200A00000000323032353035313607
:1040B000000000002A2A2053564E203D2025732060
:1040C00020200A0078000020312F34203D20256474
:1040D0002C2025640A0000000042005048616C6CEE
:1040E0002053656E736F723D202564200A00000026
:1040F00000E100E0FBFBFFFFEFEFFFFF42617474A4
:10410000657279203D25640A00000000F8B5214859
:104110000178032918D300251F4C0570E16F1F4853
:10412000491CE16707781E481E4A1F4E0068336825
:104130001268002F09D001291AD0032904D121784F
:10414000002921D0FCF7BEFEF8BD012906D00329C5
:10415000FAD191B280B2FFF7F1FD19E0E366FCF706
:10416000F6F8FEF7EBF808E0316808183060F8BDA3
:10417000E366FCF7ECF8FEF78FF8A066E16E4218F4
:104180000A498A42F3D2EFE791B280B2FFF740FDCD
:10419000E567F8BD3A01002060010020ED00002035
:1041A000F400002010010020F0000020A30800000F
:1041B000F8B52348017803291CD30024214D04704D
:1041C000296F2148491C296707782048204A214E39
:1041D000006833681268002F0DD001291ED0032912
:1041E00008D12978002925D0FCF76CFEA86B401C6B
:1041F000A8632C67F8BD012906D00329FAD191B232
:1042000080B2FFF7E3FDF4E7EB66FCF7A0F8FEF7FA
:1042100039F908E0316808183060F8BDEB66FCF742
:1042200096F8FEF7DDF8A866E96E42180A498A4258
:10423000F3D2EFE791B280B2FFF734FD2C67D5E7F8
:104240003A01002060010020ED000020F400002071
:1042500010010020F0000020A3080000F0B5244861
:10426000244D01780020244E244F254B254C264A0E
:10427000012920D0916F00291CD11070286023499A
:104280000860306022493860886148618B60CC608A
:1042900010650D461C351066A8616861AB60EC6066
:1042A00050651C4B50660B601146803108641A49FA
:1042B00090700870F0BD516F0029FBD1107028601C
:1042C00012490860124930603831386088614861AD
:1042D0008B60CC6090641C319065886148618B6014
:1042E000CC600949D0648031D065C863DFE7000045
:1042F0007A000020740000204000002044000020CC
:104300000AD7A33DCDCC4C3D6001002038000020F1
:10431000200C0020910500003901002010B5044652
:10432000016810A0FFF740FA11A06168FFF73CFA9E
:1043300012A0A168FFF738FA13A0E168FFF734FA7A
:1043400014A02169FFF730FA15A06169FFF72CFA74
:1043500016A0A169FFF728FA17A0E169FFF724FA70
:1043600010BD0000723020203D20307825780A00F2
:10437000723120203D20307825780A0072322020CA
:104380003D20307825780A00723320203D20307897
:1043900025780A00723132203D20307825780A00D5
:1043A0006C7220203D20307825780A007063202030
:1043B0003D20307825780A00707372203D203078D7
:1043C00025780A00001BB7000000000080F0FA0208
:1043D00010270000000000000000000000000000A6
:1043E00000805101001BB700000000000000000029
:1043F00000805101001BB700000000000000000019
:1044000000805101001BB700000000000000000008
:1044100000805101001BB7001027000000000000C1
:1044200000805101000000000400000000000000B6
:10443000000000000100000000000000000000007B
:10444000000000000200000000000000000000006A
:10445000000000000000000000000000000000005C
:104460000000000003000000001BB7001027000040
:104470000000000000805101000000000400000066
:10448000000000000000000001000000000000002B
:10449000000000000000000002000000000000001A
:1044A000000000000000000000000000000000000C
:1044B000000000000000000003000000DC440000D9
:1044C00000000020840B0000E23700006050000074
:1044D000840B00200C030000F237000080F0FA0289
:1044E0003200000080F0FA0200000000000000002E
:1044F00000000000000000000000000000000000BC
:1045000000000001000000000000000000000000AA
:10451000000000000000000000000000000000009B
:10452000000000000000000000000000000000008B
:10453000000000000000000000000000000000007B
:10454000000000000000000000000000000000006B
:10455000000000000001000000000000000000005A
:10456000000000000000000000000000000000004B
:10457000000000000000000000000000000000003B
:10458000000000000000000000000000000000002B
:10459000000000000000000000000000000000001B
:1045A000000000000000000000000000000000000B
:1045B00000000000000000000000000000000000FB
:1045C00000000000000000000000000000000000EB
:1045D00000000000000000000000000000000000DB
:1045E00000000000000000000000000000000000CB
:1045F00000000000000000000000000000000000BB
:1046000000000000000000000000000000000000AA
:10461000000000000000000000000000000000009A
:10462000000000000000000000000000000000008A
:10463000000000000000000000000000000000007A
:10464000000000000000000000000000000000006A
:10465000FF0000000000000000000000000000005B
:10466000000000000000000000000000000000004A
:10467000000000000000000000000000000000003A
:10468000000000000000000000000000000000002A
:10469000000000000000000000000000000000001A
:1046A000000000000000000000000000000000000A
:1046B00000000000000000000000000000000000FA
:1046C00000000000000000000000000000000000EA
:1046D00000000000000000000000000000000000DA
:1046E00000000000000000000000000000000000CA
:1046F00000000000000000000000000000000000BA
:1047000001000000000000000000000000000000A8
:104710000000000000000000000000000000000099
:104720000000000000000000000000000000000089
:104730000000000000000000000000000000000079
:104740000000000000000000000000000000000069
:04000005000000F502
:00000001FF
