:020000040000FA
:10000000980E0020F500000015010000D900000046
:1000100000000000000000000000000000000000E0
:1000200000000000000000000000000019010000B6
:1000300000000000000000001B0100001D01000086
:100040001F0100001F0100001D0D00001F01000026
:100050005D0F0000B11300001F0100001F01000030
:10006000A9260000152B00001F0100001F01000041
:100070001F0100001F0100001F0100001F01000000
:100080001F0100001F0100001F0100001F010000F0
:100090001F0100001F0100001F0100001F010000E0
:1000A0001F0100001F0100001F0100001F010000D0
:1000B0001F0100001F0100001F0100001F010000C0
:1000C0000448854600F0F4F900480047713E0000FE
:1000D000C046C046980E002004207146084202D057
:1000E000EFF3098001E0EFF308807146004A104702
:1000F0005D1800000A480B4901600B4901600B497B
:1001000001600B4A0B491160002101600A488047D9
:100110000A480047FEE7FEE7FEE7FEE7FEE7FEE7E8
:100120000001005059000000160000008800000087
:1001300024000050A55A000025260000C100000040
:1001400030B50B46014600202022012409E00D466F
:10015000D5409D4205D31D469540491B25469540F7
:1001600040191546521E002DF1DC30BD03460B43ED
:100170009B0703D009E008C9121F08C0042AFAD25D
:1001800003E00B780370401C491C521EF9D27047E3
:10019000F8B502464A40D40F42004B0052085B08B3
:1001A0009A4202D20246084611464A0023D0C30DA5
:1001B0004A00DDB2120EAD1A202D35DA49020126B1
:1001C000490AF6058A19002C00D0524220214F1B03
:1001D0001146B9402A411018C20D9A4221D0002C74
:1001E00017D0012D08DCDA05801AD20F8019D2074A
:1001F000DBB200F023F9F8BDDA05801A01234000D4
:100200001B06C01880185A428018CA0F10434900B4
:1002100007E04908C2071143DA05801A801940082F
:10022000801800F003F9F8BD61000122511A001B8B
:10023000F7E70122D2075140AAE70122D207504036
:10024000A6E7024670B54A40D30FDB0740002DD029
:100250004A002AD0010E140E000212020919400AA7
:10026000520A8418E50104465443000A120A2E0477
:100270005043A4194219200CC543AA18120C012599
:10028000AD03521C521912047F39240400D0521CB1
:10029000104301D44000491EC2B20C06C009201808
:1002A000401C4008802A02D003E0002070BD4008B6
:1002B0004000002900DA0020184370BD70B50246E6
:1002C0004A40D50F40004A00ED0740085208002878
:1002D00014D0002A12D0C40DD30D41020120C00554
:1002E0005202490A520AE41A091812187D3491423E
:1002F00001D3641C00E04900002C01DA002070BD2D
:100300000023914201D3891A034340084900002881
:10031000F7D100290AD0914202D10121C90705E095
:10032000914201D2012101E00121C943E005C01839
:10033000401900F07BF870BDC217C10F504010B5D6
:100340004018CA079623002100F078F810BD10B5B8
:1003500000229623114600F071F810BDC20F410033
:1003600040020123400ADB05D207090EC0187F298D
:1003700001DA00207047962903DC9623591AC840F9
:1003800001E096398840002AF4D04042704741008D
:1003900040020122400AD205090E80187F2901DAA5
:1003A00000207047962903DC9622511AC8407047F6
:1003B00096398840704700000122D207002800DBF0
:1003C000101A002900DB511A88427047F0B51FB49B
:1003D0000646002082B005464024019100901BE0B3
:1003E000019922460F46304600F084F8049A059B96
:1003F000801A994110D310461946224600F06AF837
:10040000361A8F410197224601200021009F00F0FB
:1004100061F838184D4100902046641E0028DFDC4A
:10042000019B00982946324607B0F0BD002904DA46
:10043000401C490001D140084000704770B40024BE
:10044000050C05D11024000402D1002921D011246B
:10045000050E01D100020834050F01D10001241D51
:10046000850F01D18000A41C002801DB4000641C22
:10047000002908D020252E1B0D46F540A14000D0B4
:1004800001212943084301061B1B000ADB1D02D57D
:10049000002070BC7047DB05181880180029F8DAB6
:1004A000401C4900F5D170BC400840007047000076
:1004B000064C0125064E05E0E36807CC2B430C3CB7
:1004C00098471034B442F7D3FFF7FEFDB84400005C
:1004D000D844000010B5202A04DB0146203A9140A0
:1004E000002010BD914020239C1A0346E34019438D
:1004F000904010BD10B5202A04DB0846203AD040B9
:10050000002110BD0B46D340D0402024A21A9140B8
:100510000843194610BD0000FF21F53110B54843CE
:100520000149FFF70DFE10BDFF0F000010B50B4C89
:10053000204600F07DF9032252040C21204600F0F1
:10054000E7FA074C7F230C220021204600F00AF82E
:10055000216A01221143216210BD00001CFE2356B6
:1005600000000E4030B50648046A064D2C400C438E
:1005700014430462416A090A09021943416230BD09
:1005800000000E40F3FBFFFFF8B58B4E8B4932782D
:10059000097800258A4200D075600278884F0121D1
:1005A000884C130003F0B8F90FEFCDDAAEEF8F8F60
:1005B00074AE744310093C2DEF007268521C7260D7
:1005C000642A19D3756016E07268521C726061610A
:1005D000A161C82A10D97C4AE12311717B4A397183
:1005E0001268DB009A4202D9A5610D2107E0784B21
:1005F000D218462A01D20170D2E0A5610E21017005
:10060000CDE07068401C70602828F5D30246283A77
:10061000282A01D8A161C3E05028EDD9656176E0B0
:100620007268521C7260282AE6D9A16149E070689C
:10063000401C7060342803D221616561A5610DE022
:100640000246343A482A02D22561616105E0024639
:100650007C3A342A06D221616561A161F62806D36D
:1006600071609DE00246B03A462AEDD3F6E7C8280D
:100670000DD1B078401CC1B2B17056A003F03CF966
:10068000B0783C2803D358A003F036F9E56187E041
:100690007268521C7260102A39D31346103B102B1B
:1006A00005D3103B102B09D3103B102B02D26161F4
:1006B000A16104E011464039102900D2A561502AF9
:1006C0006ED305706CE07068401C7060642810D2B6
:1006D00055480068012802D07078012860D17170F7
:1006E0003868142148435149884259D265612561CF
:1006F00056E00246643A642A01D261612161C82849
:100700004DD84DE07068401C70600A2801D2A56188
:1007100046E002460A3A0A2A0ED30A3A0A2A05D3C2
:100720000A3A0A2A08D30A3A0A2A01D2A56105E040
:100730000246323A1E2A01D26161A16150282ED2AE
:100740002EE07068401C7060362802D26561A56199
:1007500001E06161A161672821D821E07068401C37
:10076000706014280CD30246153A512A11D3523A1C
:10077000132A05D3143A512A0BD3523A7B2A03D2B7
:100780006561A56107E00FE00246FF3A4A3A512A47
:1007900001D26561A161FF219B31884200D975605A
:1007A000064800783070F8BD6161E1602161A161A7
:1007B000A1616161F3E70000140000200001002046
:1007C000AC00002000420050A4000020880000205F
:1007D0003EF9FFFF09096D753842757A4379636CFC
:1007E00065203D2025640A00202020202020202094
:1007F00020202020202020202020202020202020F9
:1008000020202020202020202A2A2036307320205B
:100810004944204572726F7220506F776572206F65
:100820006666202A2A0A00007C000020404B4C000B
:10083000810F8A00044951184A68C306DB0E012063
:10084000984002434A60704700020050F0B507002C
:100850000C46564885B054490162554E016813D084
:10086000042211430160102000F0BAF90120C004F5
:1008700002905048042503904F4850492018884260
:100880000DD8002004901CE00122114301601046A5
:1008900000F0A6F90020022503960290ECE74848F4
:1008A00048492018884203D801206400049008E0D9
:1008B0004548454920184942884249D80320A400A8
:1008C00004900026F64300200090019021E0294684
:1008D0000398FFF735FC3D493D4A4118914217D234
:1008E0000222354B014651435B1CCF185B429F42AD
:1008F0000AD8A14201D90B1B00E0631AB34203D20C
:100900001E000095019203D03249521C8A42E8D958
:100910006D1C212DDBD904980299800308430099AE
:10092000012249029202891A08430199891E08434B
:100930001E490862042000F053F904990098491CEC
:1009400041430398FFF7FCFB0199484305B0F0BD14
:10095000002F0FD0204915480162042000F040F913
:100960001EA0006800901148016A0013014203D0E4
:100970000020EBE71A49EEE7080300D50D4E880387
:1009800001D53046E2E70804800F6A46105CCA05CC
:100990008904C90E891CD20D4143B008921C5043F2
:1009A000FFF7CEFB8000D1E70000010000020050FD
:1009B000001BB70000805101FF1E0AFAFFE0F50599
:1009C0007F0F05FD7FF0FA02C08782FEFF95E7FFEB
:1009D000BF77CC00010200006FD6000001020204C4
:1009E0002EC2000002490A6802430A6070470000F4
:1009F0000002005008B511A0006800901048016A7C
:100A00000013014201D0002008BD080301D50D48A4
:100A100000E00D488A03F7D40A04920F6B469B5CF2
:100A2000CA058904D20DC90E891C8008921C59433D
:100A30005043FFF785FB800008BD0000010202045F
:100A40000002005000805101001BB700F8B51B4C9C
:100A50000546E668102006401948854202D8401035
:100A6000854200D2054620680427384320601020C4
:100A700000F0B6F82069072108432061A069000949
:100A80000001A06120682946C00704D00020FFF7BC
:100A9000DDFE054607E00120C004FFF7D7FEE6684B
:100AA0000546102006400021022000F00BF8002E21
:100AB00002D12068B84320602846F8BD00020050EB
:100AC00080F0FA02F3B5114C81B0E5680F461026AC
:100AD0002068354030432060304600F081F82069BE
:100AE000072108432061A069000900013843A06183
:100AF0002069C1080198C9000143216101F04AFD44
:100B0000002D02D12068B0432060FEBD00020050DD
:100B100070B5430E5B070DD083009B0F0F4C9B00FD
:100B20001B191C6805016D0FC601F60EB540AC43DC
:100B30000C431C60830A1906090E0ED00103074CF2
:100B4000890F8900083409190C68DBB28005DB4382
:100B5000C00E8340234013430B6070BD1002005051
:100B600070B50D4A0B4905260C4B156800248842C8
:100B700001D9401A01E0014600200A466A435A6141
:100B80009C611E611A69D203FCD51C610028EED15C
:100B900070BD0000B81E05000400002000E000E069
:100BA00070B50D4A0B4905260C4B15680024884288
:100BB00001D9401A01E0014600200A466A435A6101
:100BC0009C611E611A69D203FCD51C610028EED11C
:100BD00070BD0000B81E05000400002000E000E029
:100BE00010B504460749084B05E00A46491E002A8D
:100BF00001DC002010BDDA6820469043F5D10120C9
:100C000010BD0000804F120000020050F8B53648B9
:100C1000012501680024354E354800290BD0317874
:100C2000344A354F354E002928D0022925D1836B0F
:100C3000002B29D153E0816B314F002906D1C16BC4
:100C4000002903D0347011E0C46212E0816B0029E6
:100C500004D0C16B002901D035700AE0816B0029F6
:100C600009D1C16B002906D102213170F97801291F
:100C7000EAD002F0D7FF3078F870F8BD836B002B14
:100C800002D1C06B0028F8D11570002000F098FE4A
:100C90003C6031680120800781433160144F403F40
:100CA000BC611848FFF75CFFFC601748FFF758FF6E
:100CB0001648FFF755FFBD611548FFF751FFBC61AE
:100CC0001448FFF74DFFFD601348FFF749FFBD6172
:100CD000306879050843306002F0D6FDF8BDC06B7E
:100CE0000028D1D1F8BD0000F4000020ED00002064
:100CF000404200501C010020004000402000014004
:100D00001400002008CF0000400D030088FB030002
:100D1000C8A9010050C30000289A0100F8B53F4956
:100D2000086A400779D53E480068012875D1012539
:100D300002023C48026052000260042008623A4C01
:100D4000A06A3A4F3A4E01280CD13078002809D1D8
:100D500038A002F0D1FD38480078B87337480078E1
:100D6000F8733570A06A002857D13078012854D123
:100D70000220307032A002F0BFFD3348017800201D
:100D800000F01EFE314800240571314832490470DC
:100D900030480068086031480168491C01603048EB
:100DA0000178012900D00470032030701E484030C3
:100DB00045601D484038C56004618461294D29683B
:100DC0004005814329602848FFF7EAFE2868690644
:100DD0000843286025480078012808D124487D214F
:100DE0000068C900884202D90F4840304460214859
:100DF00004710460204804602048046003203070BF
:100E00000D48B97B01700D48F97B0170FF21054841
:100E100001318038016049000160F8BDC0400050D8
:100E20007C00002080E100E04042005024000020CF
:100E300034010020480A000038010020370100205A
:100E400020204C0A00000000ED000020DC00002003
:100E50003601002010010020300100208C0000200D
:100E60000001002020000140B01E0400FF0000200F
:100E700088000020D4000020F4000020F8000020AA
:100E800010B5044601F0F6F90C4908680122104338
:100E900008602220C8604C600A61BFF36F8F086948
:100EA0000028FCD10868400603D50868402210439A
:100EB000086003490020086010BD000000C0005019
:100EC00000010050F8B51D4E30682C2188430125E3
:100ED000284330601A481B4CAF220168D20000271B
:100EE000A07891420AD9401CC0B2A07014280FD338
:100EF000002001F0FDF9E576A77009E0C82907D2C6
:100F0000002804D0401E0006000EA07000D1E77635
:100F10000D480078012805D00C48E063E07E0028E9
:100F200002D004E00A48F8E70B490A480860306834
:100F30002C21884328433060F8BD00000040004069
:100F400010010020600100207A000020CDCCCC3DB3
:100F500000002041A2080000F0000020F8B5F94888
:100F6000016AC90701D0012108E0016A890701D59A
:100F7000022103E0016A490701D504210162F34916
:100F8000F1480978F44B8C46F14940790D78F149E4
:100F9000142209681B684A43F04C03280AD002282F
:100FA0001FD0062834D0042849D005285ED0012857
:100FB00074D08FE0A668002E05D000266768002F49
:100FC00003D0002702E00126F8E70227F719266878
:100FD000002E01D0002600E00426BE19012E74D098
:100FE0009AE0A668002E05D000266768002F03D07F
:100FF000002702E00126F8E70227F7192668002EED
:1010000001D0002600E00426BE19032E5DD09AE030
:10101000A668002E05D000266768002F03D00027A1
:1010200002E00126F8E70227F7192668002E01D012
:10103000002600E00426BE19022E46D09AE0A668DB
:10104000002E05D000266768002F03D0002702E09D
:101050000126F8E70227F7192668002E01D000269E
:1010600000E00426BE19062E2FD09AE0A668002EB6
:1010700005D000266768002F03D0002702E0012674
:10108000F8E70227F7192668002E01D0002600E0B5
:101090000426BE19042E18D09CE0FFE7A668002E97
:1010A00005D000266768002F03D0002702E0012644
:1010B000F8E70227F7192668002E02D0002601E083
:1010C00003E00426BE19052E0FD16646022E71D00C
:1010D00001280AD003281FD0022834D0062849D07E
:1010E00004285ED0052875D08EE0A068002805D0C1
:1010F00000206668002E03D0002602E00120F8E7F9
:10110000022680192668002E01D0002600E0042661
:101110008019032875D077E0A068002805D000204A
:101120006668002E03D0002602E00120F8E70226C0
:1011300080192668002E01D0002600E004268019C0
:1011400002285ED060E0A068002805D00020666814
:10115000002E03D0002602E00120F8E702268019C5
:101160002668002E01D0002600E0042680190628FB
:1011700047D049E0A068002805D000206668002E0E
:1011800003D0002602E00120F8E702268019266835
:10119000002E01D0002600E004268019042830D05B
:1011A00032E0A068002806D000206668002E04D037
:1011B000002603E02BE00120F7E7022680192668CD
:1011C000002E02D0002601E004E004268019052844
:1011D00017D019E0A068002805D000206668002E0E
:1011E00003D0002602E00120F8E7022680192668D5
:1011F000002E02D0002601E003E004268019012819
:1012000002D16046002802D0002D15D020E0002D2C
:101210001ED153484C4E0571056035796D1C3571F2
:101220000125504E012B35713ED1642A3CD94E4ADE
:10123000914239D2057137E0012B09D14A488142E8
:1012400006D24A48824203D93F48C16B491CC16358
:101250003D48C06B192827D93D4E002D24D1012BC4
:1012600022D143487D21C900824211D91046FEF7A0
:1012700067FF01463FA002F03FFB05203070334876
:101280000178002000F09CFB3D49072008700BE02E
:1012900003203070324B012018711046FEF750FFCA
:1012A000014638A002F028FB274D384E2879052842
:1012B00023D92C480168142041433548FEF740FFEC
:1012C000344A254910600968334F002903D0327829
:1012D000012A04D00BE000203860106007E00129EB
:1012E00005D12E4948432E49FEF72AFF38600020D9
:1012F0001C49012208600A7128712A4800780028D8
:1013000001D001280BD112480078002807D130788D
:10131000012804D10D480178012000F0D7FBA06816
:10132000002805D000206168002903D0002102E0D8
:101330000120F8E7022141182068002834D000205D
:1013400033E000000040005024000020ED000020A9
:10135000FC000020BC0000207C0000200042005067
:10136000D4000020CC000020D8C22D00B80B000013
:1013700070110100466F726365207825640A0000D1
:10138000000100207825640A0000000036010020DA
:1013900000879303F8000020F4000020B20500004D
:1013A0001027000034010020042008186871F8BDDF
:1013B00010B50B48016A090703D50821016209A08D
:1013C0000AE0074940390A6A0A62016A0162044870
:1013D0004030016A016208A002F08EFA10BD0000E0
:1013E000C040005050332E3320494E54206F636369
:1013F00075727265642E0A00556E2D65787065638E
:1014000074656420696E74657272757074732E0AE7
:101410000000000010B58369140E8C4023438361E3
:10142000C3691202120A8A401343C36110BD00004F
:10143000F8B597484168FF22120411434160052422
:101440002407606B934908406063606B5F21084329
:101450006063E06B90490840E063E06B0221084361
:10146000E0638B480322803000F030F9E06BFF210D
:1014700002318843E063E06BE06385480122114656
:10148000803000F023F9854F01253D62A06B84492F
:101490000840A063A06BA0637D480022402140303B
:1014A00000F014F97A4800228021403000F00EF953
:1014B000E06B7C490840E063E06B032109030843CB
:1014C000E063734802221021803000F0FFF870487A
:1014D00002222021803000F0F9F8206B7249084088
:1014E0002063206B20636A4E0022403E012130467B
:1014F00000F0ECF86D4A00213046FFF78BFF002228
:101500000221304600F0E2F8684A01213046FFF738
:1015100081FF00220421304600F0D8F8634A0221FE
:101520003046FFF777FF5D492820C03908607069B1
:101530000221084370617069084370617069042179
:1015400008437061084600F0C1FBA06B5849084091
:10155000A063A06BA0634E4801220221403000F03E
:10156000B5F84B4801220821403000F0AFF8484858
:1015700001222021403000F0A9F800207860F860B6
:101580007861206B4B4908402063206B20634A48F8
:101590000168414A1140016001680160012208218F
:1015A000304600F093F83D48403845610122102153
:1015B000304600F08BF8394840380561012220217F
:1015C000304600F083F83548403845613048012204
:1015D0000221C03000F07AF8304840304560E06BBE
:1015E00036490840E063E06BE063294801220821A6
:1015F000803000F06BF80020F86202462448402159
:10160000803000F063F8224800228021803000F012
:101610005DF8E06B2A490840E063E06B0421084371
:10162000E0631B480022803000F050F818481F4A41
:1016300002218030FFF7EEFE022000F047FB174941
:101640002820C039086012488030406904210843CE
:101650000F4980314861206B1A4908402063206B94
:10166000206301224021304600F030F80B4840381A
:101670008561206B144908402063206B20630122A0
:101680008021304600F022F804484038C561F8BD9A
:1016900040400050A0A0FFFFFDFDFFFF4042005072
:1016A0003F3FFFFFCFCFFFFFF8F8FFFC0100010035
:1016B000D5D5FFFFC7C7FFFF400000503737FFFFFA
:1016C000FBFBFFFFBFBFFFFF7F7FFFFFF0B50023E6
:1016D00001273C469C400C4208D005685C0003266C
:1016E000A640B5431646A640354305605B1C082B53
:1016F000EFD3F0BDF8B500264D4801220263016A20
:10170000D30219430162016BC907FCD001210163B7
:1017100000244748A10008180068002C85B20AD0B0
:10172000012C17D0062C54D0032C24D0052C24D007
:10173000022C25D04DE03F487D2105603E48C90080
:101740006843FEF7FDFC3D4908603D480168A94239
:1017500014D33EE02846FEF7DFFE3A4A116888427D
:1017600002D9431A022B04D8814232D9091A02291C
:101770002FD910602DE0344800E03448056028E09F
:10178000334F7878002831D0324F012081007A58C9
:10179000C9198039401CC0B2CA671E28F6D3284632
:1017A000FEF7BAFE7D21C9004843BE21FEF7C8FC02
:1017B000786700208100C9194968401C8E19C0B2A1
:1017C0001E28F7D31E213046FEF7BAFC22498C3082
:1017D0000860641C082C9CD31548016BC907FCD019
:1017E000016A0122D20291430162F8BD2846FEF748
:1017F00093FE7D21C9004843BE21FEF7A1FC0146AE
:101800003878144A8300401CC0B2D15038701E286A
:1018100001D1012078702846FEF77EFE7D21C900A7
:101820004843BE21FEF78CFC0B494630D0E7000050
:1018300000000E4010010020697D0000180100200A
:10184000140100200C0100200801002004010020E8
:1018500010000020880B002088000020044603A010
:1018600002F04AF8204602F057FDFEE7496E204894
:10187000617264204661756C742048616E646C65A9
:10188000720A000010B5074C2046FEF7D1FF032175
:10189000002209062046FFF73BF9034800F0DCFC74
:1018A00010BD00000800004008000004F8B5012742
:1018B00000242F4E012803D07462B462F770F8BD83
:1018C000706A401C7062C82845D2F178012901D1A4
:1018D00028494C603228B06A01D1401CB06205280A
:1018E0003ED10A20B0622348F47080388461224DD2
:1018F00029684005814329602048FFF751F928688D
:101900006906084328601E48FFF74AF919488038DD
:1019100087611CA001F0F0FF1F20000300F06EFCA7
:101920001D4DA8420CD11DA001F0E6FF1F20290982
:10193000000300F0AFFC1D4807700E4844600FE044
:101940001BA001F0D9FF1F202946000300F0A2FCD4
:101950001648047004E0C938C72801D2054847601A
:10196000FF21706A91318842A9D97462F8BD0000E4
:10197000240000208042005020000140E093040039
:1019800050C300004368616E6765205370656564ED
:10199000204D6F64650A0000A0A0A0A02A20536C0F
:1019A0006F77204D6F6465202A0A0000FF00002039
:1019B0002A2046617374204D6F6465202A0A000056
:1019C000F8B5374A0024D4605461546005231B07DE
:1019D000996B344F394099639460996B324E314022
:1019E00099631461996BFF250235A94399631460CB
:1019F000002854D100F07CFC2C49102008602C48B1
:101A000004602C48046005200007816BB310194066
:101A1000816323498C60826B33461A4082630C6178
:101A2000826B2B469A4382630C60E120234980003D
:101A3000214B05260F6803E0884201D9401A03E0D4
:101A4000014600200D467D435D619C611E611A695F
:101A5000D203FCD51C610028EED105252D07A86B0B
:101A6000002813D016A001F047FFA86B0D490840CD
:101A7000A8630B488460A96B0B4A1140A9630461F9
:101A8000AA6BFF2102318A43AA6304600449012042
:101A9000C860486148600B4908710B480470F8BD84
:101AA00040420050FBFBFFFFEFEFFFFF80E100E053
:101AB000F4000020F800002000E000E00400002016
:101AC000265F0A00DC00002036010020F0B53F4C04
:101AD0000023E3606361636005221207956B3C4E4F
:101AE00035409563A360956B3A4E3540956323610D
:101AF000956BFF260236B54395632360012844D1D8
:101B0000012942D03448006801283ED1334800788A
:101B100001283AD13248334B0068984235D22B4DD8
:101B2000403DA868002805D000206B68002B03D03A
:101B3000002302E00120F8E70223C31828680028E8
:101B400001D0002000E004201F1801200425060217
:101B50003B0001F0E1FE071A0521113538321A0069
:101B6000002904D1916B4908490031430BE0916B86
:101B7000102399431B0215E0002907D1916B012323
:101B8000A9439B02194391636061F0BD916B1023DF
:101B900099431B0219430DE0002907D1916B0123E2
:101BA000A9439B02194391636060F0BD916B4908A2
:101BB000490031439163E060F0BD0029D7D0D1E7FF
:101BC0000029E3D0DAE70029F0D0E7E740420050EF
:101BD000FBFBFFFFEFEFFFFF7C0000203601002042
:101BE000BC000020C0C62D0070B5274E27483178B4
:101BF0000068274D274C002913D00022264B0129CD
:101C00002FD002290CD19842E06801D2401CE0603C
:101C10004B21C900884203D332702A70A260E2606F
:101C200070BD1D4960318842FAD31CA0A16801F043
:101C300063FEA068FF21401C9131A0608842EFD371
:101C40001AA001F059FE1E48012404601D48C4601A
:101C5000032028701C4801780020FFF7B1FE347083
:101C600070BD0D49C94341185F2902D22978002966
:101C700006D09842F4D22A70A260E260327070BD41
:101C80000620287070BD0000FC0000200401002028
:101C9000000100203C010020360E00004D6F746FE3
:101CA000722054656D703D25642C0A002A4D6F74B6
:101CB0006F725F543E31303027432A0A0000000023
:101CC000F400002000420050ED000020C106C90EC3
:101CD00001208840014908607047000000E100E0F1
:101CE0008307FF22DB0E9A408907090E99400028DE
:101CF0000BDA0007000F0838830808489B00181803
:101D0000C36993430B43C3617047830804489B0036
:101D10001818036893430B430360704700ED00E01D
:101D200000E400E0F8B5294C2A4A20692A4D401CFD
:101D3000206161690926491C6161A169274F491C1D
:101D4000A1612349096891423AD306280CD9297820
:101D50000020FFF735FE22A001F0CEFD21493E70A4
:101D6000042008700620206119481F490068884235
:101D700028D360691E280CD929780020FFF720FE9F
:101D80001AA001F0B9FD17493E70042008701E200A
:101D900060610F48AF210068C900884214D3A06970
:101DA00078280CD929780020FFF70AFE10A001F04E
:101DB000A3FD0C493E70042008707820A061F8BD96
:101DC0000020D0E70020E3E70020F7E73C010020F7
:101DD00010010020D80E0000ED00002000010020BE
:101DE00049310A00FC000020FC08000049320A00CA
:101DF00049330A0070B51E4D1E482B78FF2200247F
:101E000091321D4E00681D49002B11D0012B0ED1BF
:101E10001B4B984229D24868401C4860904206D922
:101E20000C6018A04C6001F067FD34702C7070BD20
:101E3000134BA233984216D90868401C08609042A0
:101E4000F5D30C6013A04C6001F056FD1548012439
:101E500004601548C46003203070144801780020E5
:101E6000FFF7AEFDE2E70C6070BD4C6070BD000096
:101E7000FD00002008010020000100203C0100209E
:101E8000140D00002A5043425F543C373027432A48
:101E90000A0000002A5043425F543E383027432A4C
:101EA0000A000000F400002000420050ED00002075
:101EB0000548002141618161044A8260044AC26090
:101EC0000161044901607047780C0020CDCCCC3D05
:101ED0000AD7A33CE8080000054800214161816160
:101EE000044A8260044AC26001610449016070478B
:101EF0005C0C0020CDCCCC3D0AD7A33CE808000008
:101F00000548002141618161044A8260044AC2603F
:101F10000161044901607047400C00200AD7A33DCD
:101F2000CDCC4C3D91050000054800214161816107
:101F3000044A8260044AC26001610449016070473A
:101F4000240C00200AD7A33DCDCC4C3D91050000C8
:101F5000FFB5044649480E460FC899B0149311AB1B
:101F600007C346490125FF27442210316846FEF782
:101F7000FDF84348159043490220434A30408C42C3
:101F800006D1516903221207824011401C3004E03F
:101F9000D169302282401140001DC140022921D068
:101FA000880011A9085816901B99FEF7C9F81790D8
:101FB0002946FEF7C5F801210906884217D830499D
:101FC000411809020F0E032F00D202273946FEF7EF
:101FD000B7F801210904884209D8012800D080B24D
:101FE00015900AE000F0D6FA28480068DBE768069A
:101FF000050E112D01D21798DAE739461598694375
:1020000041431698FEF79CF816907F1E1598F9B27A
:10201000401E87B2A8006A46155C22687008844694
:10202000C000FF2383409A4381400A4322606168D5
:10203000B000072282409143854029436160A16836
:1020400001226046920782409143A160A068F2009D
:10205000082191400843A0600C214E431C9834197C
:10206000002805D0791C48436421FEF769F8401E1A
:102070002061E76016981DB0F0BD000064440000C8
:10208000FFFF00000000044000020050000000209C
:10209000C26F0A43C2677047F8B5354C2046FEF759
:1020A000C7FB344D2846FEF7C3FB334E3046FEF7E0
:1020B000BFFB0321002209072046FEF729FD00226D
:1020C00071072846FEF724FD002230213046FEF736
:1020D0001FFD2A4800F0C0F82848401C00F0BCF85A
:1020E000274D05212846FFF7D3FF264E0121304614
:1020F000FFF7CEFF244C254F00213A46284623689F
:10210000FFF726FF3A46022128462368FFF720FF03
:102110003A46002130462368FFF71AFF042128467B
:1021200000F058F80121284600F054F8012130460B
:1021300000F050F8E86864214843FEF701F80146D2
:10214000642213A001F0D8FBE86864214843FDF73E
:10215000F7FF1449144C086064212160014613A064
:1021600001F0CAFB16A0216801F0C6FBF8BD000013
:102170001400C0571500E057160040761400000404
:102180000000044000001440F0000020881300000C
:10219000504D57434D52203D202564202F2025646B
:1021A0000A0000002001002024010020677533325E
:1021B0004D415850574D203D2025640A0000000035
:1021C000677533324D494E50574D203D2025640AE6
:1021D0000000000070B500231A46012635469540E0
:1021E00034460D4202D0D500AC402343521C042A91
:1021F000F4D381681943816070BD000010B50446B6
:1022000000F038F8084908680123184308600022E4
:10221000CA604C600B61BFF36F8F08690028FCD166
:10222000886802490A6010BD00C0005000010050DB
:1022300010B50420FEF7D6FB1020FEF7D1FC0021DC
:102240000720FEF73FFC0348FEF700FC1420FEF7D2
:10225000C7FC10BD80F0FA020521020E09075118D3
:102260008B680122824013438B60886890438860AA
:102270007047000010B5592116230548882202E056
:102280000160036002600468012CF9D110BD0000F8
:102290000001005070B50D460446FEF7F1FDFFF752
:1022A000E9FF094A11680120014311602121D16031
:1022B000546095601061BFF36F8F10690028FCD1E6
:1022C0000249086070BD000000C0005000010050CD
:1022D00006498A691202FCD408600A2804D1886978
:1022E0000002FCD40D20086070470000000005408B
:1022F0000249086188620249086170470000044091
:1023000000001440F8B5244C05462068FEF714F888
:102310002946FDF78EFF214D21492865884204DAC0
:102320002049884201D200202865A069FEF704F800
:102330002169FDF786FF07466069FDF7FDFFE1684B
:10234000FDF77FFF0646A068296D0091FDF779FF34
:102350003146FDF76EFF3946FDF71AFF064628663F
:102360006069A0610098FDF7F9FF60613046FDF7F4
:10237000F5FFFDF7E1FF3F210906FDF709FF3146B3
:10238000FEF71AF8286E02D8FDF7E8FFF8BDFDF752
:10239000FEFF401CF8BD0000780C0020600100200A
:1023A0000000F0410000F0C1F8B5244C054620685B
:1023B000FDF7C2FF2946FDF73CFF214D2149E864A6
:1023C000884204DA2049884201D20020E864A069EA
:1023D000FDF7B2FF2169FDF734FF07466069FDF79D
:1023E000ABFFE168FDF72DFF0646A068E96C0091A0
:1023F000FDF727FF3146FDF71CFF3946FDF7C8FE04
:102400000646E8656069A0610098FDF7A7FF606176
:102410003046FDF7A3FFFDF78FFF3F210906FDF7CB
:10242000B7FE3146FDF7C8FFE86D02D8FDF796FF0D
:10243000F8BDFDF7ACFF401CF8BD00005C0C0020AF
:10244000600100200000F0410000F0C1F8B5244C0C
:1024500005462068FDF770FF2946FDF7EAFE214D8D
:102460002149A865884204DA2049884201D2002027
:10247000A865A069FDF760FF2169FDF7E2FE074648
:102480006069FDF759FFE168FDF7DBFE0646A068CD
:10249000A96D0091FDF7D5FE3146FDF7CAFE39461C
:1024A000FDF776FE0646A8666069A0610098FDF714
:1024B00055FF60613046FDF751FFFDF73DFF3F21BD
:1024C0000906FDF765FE3146FDF776FFA86E02D8D6
:1024D000FDF744FFF8BDFDF75AFF401CF8BD0000B2
:1024E000400C0020600100200000F0410000F0C11D
:1024F000F8B5244C05462068FDF71EFF2946FDF778
:1025000098FE214D21496865884204DA20498842B5
:1025100001D200206865A069FDF70EFF2169FDF773
:1025200090FE07466069FDF707FFE168FDF789FE49
:102530000646A068696D0091FDF783FE3146FDF700
:1025400078FE3946FDF724FE064668666069A0619C
:102550000098FDF703FF60613046FDF7FFFEFDF7D1
:10256000EBFE3F210906FDF713FE3146FDF724FF80
:10257000686E02D8FDF7F2FEF8BDFDF708FF401CBB
:10258000F8BD0000240C0020600100200000F04194
:102590000000F0C1F8B51C4D286944071BA0006875
:1025A0000090296A640F2813014201D0002016E030
:1025B000080301D5164800E016488A030FD40A0420
:1025C000920F6B469B5CCA058904D20DC90E891C0B
:1025D0008008921C59435043FDF7B2FD80000E4E17
:1025E000022CB06002D00D49A0000858A969090763
:1025F000090F491CFDF7A4FD094930604A108018F5
:10260000FDF79EFD7060F8BD00020050010202045B
:1026100000805101001BB70000000020C0430000F3
:1026200040420F007047000070B51B4C2046FEF77B
:10263000FFF81A4D2846FEF7FBF807210022090291
:102640002046FEF765FA0721002209032846FEF717
:102650005FFA144C124820606F20606020686503A8
:10266000284320600820FFF731FB2068A603304391
:1026700020600B48FC302062FF20AF306062094CC4
:1026800020342068284320600920FFF71FFB2068C2
:102690003043206070BD00000200805E0300C05E19
:1026A0000300000800000140F8B5EC48FF22006874
:1026B0001932EB490123904202D918460B7000E011
:1026C000002000240C70E7498B60E74DE74E296B32
:1026D000491C29633268521C3260EA69521CEA6163
:1026E000642A03D3EC612A6A521C2A623768FF22EB
:1026F000F532974203D334606A69521C6A61322909
:1027000016D3DB49DB4A0B701178491C11702C631E
:102710006978884202D0AC61687009E0A969322901
:1027200003D2491CA961322902D3D3492870086019
:10273000E86A401CE862D1480179012969D0046047
:10274000CF480179012968D00460CE480179012978
:1027500067D00460CC480179012966D00460CB4879
:102760000179012965D00460C9480179012964D043
:102770000460C84800790128C64862D00460C64891
:102780000179012961D00460C4480179012960D030
:102790000460C34FC34E387901285ED03C60C24804
:1027A000017901297FD00460C048C1490068C14B4C
:1027B000884202D8197801290AD0AF21C90088427D
:1027C00002D81978002903D0BB490978052909D90D
:1027D000B049142209685143B84A914202D931786C
:1027E000002976D01978CB220129AA4909685ED040
:1027F00014235943B14B99426CD23278022A3A6879
:1028000069D014235A43AE4B9A4201D932285ED381
:1028100093E00168491C016092E70168491C01606E
:1028200093E70168491C016094E70168491C016055
:1028300095E70168491C016096E70168491C016041
:1028400097E70168491C016099E70168491C01602C
:102850009AE70168491C01609BE738681421401C15
:10286000386048439749884299D3974800780028B0
:1028700095D181480068012891D1944801780529B3
:102880008DD093490978012989D1052101703178CA
:102890000020FFF795F88F49072008708EA001F0FF
:1028A0002BF87CE7FFE70168491C01607CE71423F3
:1028B0005943824B994258D23278022A3A680BD057
:1028C00014235A437E4B9A4216D9322814D213202D
:1028D00031E04BE049E021E014235A43804B9A4217
:1028E00006D87D22D200904204D27E48814201D98E
:1028F000662020E099201EE07B4B9A4204D9714A61
:10290000914201D90A2016E0784A914204D96849D7
:10291000884201D215200EE034200CE014235A43E3
:102920006F4B9A42E4D8FF22F532904202D26D48B2
:102930008142DDD8C920286418E06B4B9A4209D93E
:10294000604A914206D90A20286469480168091D35
:1029500001600BE0654A914205D9AF21C900884268
:1029600001D26520E7E7CA20E5E72A64296CE86A16
:10297000884200D9EC625E495E480A68006882427B
:1029800001D8104600E00860FFF7B2FC5A48C06862
:1029900005273F0701280DD1B86B40050AD53178CE
:1029A000012907D034480068012803D1484800783D
:1029B000012805D02C725048406801280ED01BE039
:1029C000287A401CC0B228720228F4D30020FEF7F7
:1029D000F7FF317849A000F08FFFECE7B86BC00536
:1029E0000AD53178012907D023480068012803D18E
:1029F00037480078012805D0EC713F48406901282C
:102A00000ED01BE0E879401CC0B2E8710228F4D374
:102A10000020FEF7D5FF31783AA000F06DFFECE71B
:102A2000B86BC0040AD53178012907D01248006874
:102A3000012803D126480078012801D0AC71F8BDE7
:102A4000A879401CC0B2A8710228F8D30020FEF774
:102A5000B7FF31782DA000F04FFFF8BD0C0100202A
:102A600079000020000001402400002074000020B4
:102A7000390100203A0100207C000020E400002001
:102A8000C4000020CC000020AC000020B4000020D6
:102A9000A4000020BC000020940000209C00002026
:102AA000D4000020ED000020DC000020F400002015
:102AB000CA0800007A0000202C010020E0930400E6
:102AC00030750000A086010034010020FC000020C9
:102AD000360100200001002053746C0A0000000041
:102AE000204E000050C3000088130000400D03007A
:102AF000F000002020010020404200507E25640AA2
:102B0000000000002125640A000000004025640A3E
:102B100000000000F0B5FD488BB001218160FC4849
:102B200002682C239A430A430260FA48417A491CFE
:102B300041728178491C8170FEF7DCFDF64FF74D3C
:102B400038680024002829D1F548FDF71DFD3968B3
:102B5000002923D10126F3483E6004600471F24845
:102B6000F34B04600471F1480068984202D26E6130
:102B7000AE6110E07D21C900884205D20A4619469F
:102B8000ECA000F0B9FE06E0EFA000F0B5FEE548CD
:102B90000671E5480671E248FDF7F6FCDD4E707AF5
:102BA000C82830D17472386800283BD0DE48142120
:102BB00000684843E849FDF7C3FAE849F36B0A683F
:102BC000E74903AF09780690E64807930992089110
:102BD0000378E5480268E5480168D4480068029037
:102BE0000EC7E3480168E34800680090E24801919D
:102BF0000368E2480268E2480178E2A000F07CFE47
:102C0000EEA000F079FEC448006800287ED0FDF7F1
:102C1000FDFFDA480768EA48002F0AD0007901284A
:102C200017D034E0E7A000F067FEBD480A2101702C
:102C3000E9E7017901292AD1006814214843E349D1
:102C4000884206D9E2480068002802D1E149012003
:102C50000870DB48142100684843DF49884216D9D0
:102C600005200007816BDD4A11408163AB4940318B
:102C70008C60826BDA4B1A4082630C61826BFF239B
:102C800002339A4382630C60CC604C614C60D04844
:102C90000068012802D000287ED07BE301207073F9
:102CA000A148A24A04609F48A14904601068884274
:102CB00001D2002F13D074637D23DB00984207D22A
:102CC000C849142209685143C82901D20121B172AF
:102CD0007D21C90088422CD2002F04D029E0716BDD
:102CE000491C7163E8E7A6480078012821D1307BB0
:102CF00000281ED1BC48007800281AD1BBA000F0E3
:102D0000FBFD01203073AC61EC6000E094E37F4F89
:102D10003868790688433860B648FDF741FF38685F
:102D2000790608433860B348FDF73AFF0120A861EF
:102D3000E860706B3C2802D3F17A00290BD09049EF
:102D40000978012979D0794F79493A688A4201D9BD
:102D5000002822D0F0E1824804700120F072A6A081
:102D600000F0CAFD05200007816BC905CB0F816B00
:102D7000806B4905CA0FC004C10FA3A000F0BCFDC1
:102D8000664840304368C26841699FA000F0B4FDC6
:102D9000634802210170CFE1EDE18E4800780128FF
:102DA000D8D1764800680028D4D16C48FF2100684B
:102DB0000F318842CED996480178C907CAD16949EE
:102DC0000A78944909780A43934909780A43C1D19A
:102DD0007B490C710C600121017061480470FF2077
:102DE0000630B064401EF0647F480470614804609F
:102DF0005F48046057A000F07FFD88A000F07CFDD4
:102E000087480078002804D0012808D0022808D07C
:102E10000AE05B48017883A000F06EFD04E083A027
:102E200000E083A000F068FDA868002806D000201C
:102E30006968002904D0002103E035E10120F7E7AB
:102E4000022140182968002901D0002100E0042156
:102E500041187BA000F050FD7BA0396800F04CFDCC
:102E60003CA000F049FD2E4804706D48F4630078E2
:102E7000012807D17D203968C000814202D9274846
:102E80008030446021482038006801218907884348
:102E90001E49203908601D480068890388431B4982
:102EA000086005200007816B4C4A114081631B4F6D
:102EB0004037BC60816B4A4A114081633C61816B41
:102EC000FF220232914381633C600120F860786107
:102ED00078605F48FDF764FE0C48203800683906CA
:102EE00008430A49203908600848006889030843F4
:102EF00006490860FC607C617C605548FDF750FE27
:102F0000F869012800D0A5E0C6E0000020000140DB
:102F100000400040240000209000002000420050AB
:102F200000010020A4000020AC0000208800002048
:102F3000D6060000090923232025643C2056203CA6
:102F400025640A0A000000000909232320256420C3
:102F50003C20560A0A00000040420F000C010020ED
:102F600037010020FD00002004010020080100209E
:102F70001401002010010020F0000020F4000020C7
:102F8000ED00002025642C2025642C2025642C20B5
:102F90005B25642F25642C2025642C205D2C207B50
:102FA00025642F25642C2025647D2C2025642C206D
:102FB00025642C205B25642C202564000A0A00006F
:102FC000DC00002049445F4E470A0000671E0600EF
:102FD0007C00002036010020673C0100FBFBFFFF66
:102FE000EFEFFFFFBC000020030100203132330A65
:102FF0000000000050C300006C6F772062617474A1
:103000006572790A000000002564256425640A00C1
:1030100038010020FC000020FE000020446E3D002E
:10302000FF000020463A25640A0000002A530A00E7
:103030002A2A204944204572726F72202A2A0A00E7
:1030400048533D25640A0000563D25640A000000EF
:10305000204E0000F9A000F04FFCFB480470FB4834
:1030600004700120F862FA4F3978FEF72FFDF94914
:1030700001200871F84839780170F848FA4904606D
:103080000471F74804600471F6480460047101207B
:1030900008711020F5494EE0F5A000F02DFCEB4939
:1030A00001200870E848DBE7F44F3878012803D1A5
:1030B000F3490978002906D0F24909780143F0481C
:1030C0000078014338D1F0490120C862EFA000F038
:1030D00013FCEB493C7001200870EE480460EE4898
:1030E00000680127BF07EC49B8430860EA48203070
:1030F0000068E949B84320310860EC60AC61E748FA
:10310000FDF74EFD0120E860A861E548FDF748FDA8
:10311000AC61E448FDF744FD0120A86100F0B4FB78
:10312000DD480068DC4938430860DB48203000682F
:10313000D949384320310860D148007801287DD131
:10314000B07A0128FBD1D84800780028F7D1C048D0
:103150000078012873D0D548007800280AD1D448D7
:1031600000780028FAD1D34800780028F6D1D24957
:103170000120087022E1707B0128E0D1BF4800786F
:10318000C007DCD1CDA000F0B7FB6E20BE4F70644D
:10319000FC62AD480470BA48007801281BD1B07AAF
:1031A000012818D1C0480078002814D1A848007818
:1031B000012810D0BD48007800280CD1BC48007808
:1031C000002808D1BB480078002804D1BA480C2157
:1031D0000170FDF7D9F9FC607C607C61B94864211D
:1031E0000460B9480160B94901200871B8490C7000
:1031F000B849F4630C710C609B490C710C60B649C2
:103200000C707463B4729D49F47208709E49403129
:103210004860A64FA64A397812781143A54A127819
:10322000114300D1E860974901200870AB48046061
:103230000471AB480078002807D001E0AAE0ADE0B7
:10324000A8480168A84881420BD28449844A0C608E
:103250000120146008711071894804700020FEF785
:1032600025FBA2480078032868D03878002865D16B
:103270008F480078002861D18E48007800285DD101
:1032800079489B490068884258D2714800780128E3
:1032900004D09848007800282AD04FE0307C0028DD
:1032A00002D0012813D049E0934F142138684843D5
:1032B0007D21C900FCF744FF014690A000F01CFBF3
:1032C00001203C603871307C401C307436E08A4804
:1032D000142100684843714988422FD27D21C900DA
:1032E000FCF72EFF014687A000F006FB347425E0B2
:1032F000EC60AC61674804606748203000680127D3
:10330000BF076549B843203108608048FDF748FC95
:103310007E48FDF745FC7E48FDF742FC5E482030C4
:1033200000685D4938432031086000F0ADFA0120A3
:10333000E860A86177480460774804604A48046000
:10334000047167480078012814D1686165490A68EA
:103350007D21C9008A4202D94B4940314C6048491D
:103360003F4A0C703D490C601460087110710020D8
:10337000FEF79CFA4E480078052803D0042801D0B7
:10338000032803D1374801210460017157480470B4
:10339000584804702E48007801280FD1564F142148
:1033A000386848435D49884208D9307C012805D1F6
:1033B0005BA000F0A1FA3C603C7134742648244FB5
:1033C00000783978884203D0B26B521CB26300E0B7
:1033D000B463884214D04F480068002810D0B06B06
:1033E00002280DD352A000F087FA4A4804604A48E8
:1033F000046039780020FEF7E3FA3648047104606F
:103400002D48FDF7C1F8FEF7F5FCFEF7EDFBFEF7E2
:1034100089FC1048494E0168B14203D10121A961DC
:10342000047104600E4846490068884205D9454841
:103430000068002801D087E0C3E094E05370656520
:1034400064204C4F0A0000002C0100207A0000206C
:10345000ED000020C4000020EC000020A4000020AB
:10346000AC000020B4000020BC00002000E100E01F
:1034700053706565642048490A0000003701002048
:103480003801002002010020404200504272616B6E
:10349000650A0000004000400000014020A1070034
:1034A000A0860100400D030003010020FD00002064
:1034B000FC000020FE000020000100200A55700AD8
:1034C0000000000030010020F0000020DC0000209F
:1034D00036010020D40000200101002094000020CB
:1034E000FF00002088000020D606000034010020E4
:1034F000C0C62D001C010020E400002031313D2514
:10350000640A000032323D25640A0000E0930400A2
:1035100008520000F4000020F800002007A5070072
:10352000526573657420446F75626C650A00000013
:103530002A4572726F722A0A0000000050C3000010
:10354000804F1200900000201FA000F0D5F92C61E0
:103550006C61EC602A4A106851068843106030465E
:10356000FDF71EFBEC61274801682748814205D31F
:1035700026480068002801D025480470254E2649B9
:10358000306888421DD921480068002819D023A03E
:1035900000F0B2F93878012801D02D48C46201202A
:1035A000286168612A4940314860E860A86129497A
:1035B0000C6029490C6029490C7029490870346055
:1035C00034710BB0F0BD00002020202020202020EE
:1035D00020202020202020202020202020202020EB
:1035E00020202020202020202A2A2032347320204E
:1035F000506F776572206F6666202A2A0A000000E5
:1036000020000140B400002020A10700900000200D
:10361000FC000020A4000020F0490200202020200F
:10362000202020202020202020202020202A2A2086
:103630003373204C4544204F464620616E6420423F
:10364000757A7A6572204F4646202A2A0A000000C1
:1036500040420050F4000020F8000020000100204B
:103660000301002010B5094C2046FDF7E1F80121C7
:10367000002209062046FDF74BFA0548FEF7ECFD4F
:10368000E1210903034800F007F810BD103D805701
:103690001000000400000540F0B504461C480D462B
:1036A0000FC885B06E460FC61A48416980698A0105
:1036B0000321960F0005070F00202063E160A0683A
:1036C00015490840A060012E02D1FDF793F9019041
:1036D000002D1BD0B10068464058791CFCF730FD26
:1036E0000646690840182946FCF72AFD0B49801E4A
:1036F000884207D9E90070182946FCF721FD000926
:10370000801E02E0032109070843606205B0F0BD96
:10371000E0430000000200500FFFF0FFFFFF000039
:1037200070B50E4C0146207B0D4D8200A95000263D
:103730000321401CFCF704FD21730024A00029583C
:103740003046FCF725FD641C0646032CF6DB0549D4
:10375000FCF7B4FD01498031886070BD6001002034
:10376000000C00200000404070B50E4C0146A07BCC
:103770000D4D8200A95000260321401CFCF7E0FCFF
:10378000A1730024A00029583046FCF701FD641CF9
:103790000646032CF6DB0549FCF790FD0149803114
:1037A000086170BD60010020180C0020000040403E
:1037B0001C48012101601C4A642010601B4A002043
:1037C00010701B4A10701B4A11701B4A10701B4A64
:1037D00010701B4A10601B4A10601B4A10601B4A85
:1037E000106010711A4A106010711A4A10701A4A4B
:1037F00011701A4A10701A4A10701A4A10701A4A38
:1038000010701A4A10701A4A11701B4A1949116037
:10381000FF211A4A5F311160194A490011601949A4
:103820000870704790000020F00000203401002054
:1038300002010020ED000020030100200001002013
:10384000AC000020A4000020B4000020DC00002018
:10385000E400002001010020360100203701002093
:1038600038010020FC000020FD000020FE000020A8
:10387000350100203202000080000020840000207A
:10388000280100202C01002010B5592116231148D1
:10389000882202E00160036002600468012CF9D113
:1038A0002B2464062046FCF7C3FF00220321204698
:1038B000FDF72EF9012200230321900200F00EF8FB
:1038C000054801684022114301600120FEF7FEF91E
:1038D00010BD0000000100500040004010B5054C34
:1038E00061605100014318010143802001432160C0
:1038F00010BD0000004000400FB410B503A9044BF8
:10390000044A029800F024F810BC08BC04B0184720
:10391000653E00000C00002030B47446641E25781B
:10392000641CAB4200D21D46635D5B00E31830BCF3
:10393000184702E008C8121F08C1002AFAD17047D0
:103940007047002001E001C1121F002AFBD170471F
:10395000FFB58FB00F460446002606E025280AD0A2
:10396000129A11999047641C761C20780028F5D192
:10397000304613B0F0BD002501219F4A009500E0BC
:103980000543641C23780846203B98401042F7D139
:1039900020782E2815D1042005436078641C2A283D
:1039A0000AD101CF641C00900BE000990A22514318
:1039B00030394018641C00902078014630390929BC
:1039C000F3D920786C280ED004DC4C2813D06A2858
:1039D00012D104E074280ED07A280DD10BE001201A
:1039E0004005054307E00121090562780D43824245
:1039F00001D16D18641C641C2078692849D008DC4A
:103A00000028B5D058286CD063280FD0642808D17E
:103A10003FE070286AD0732811D075285FD07828CD
:103A20005FD0129A11999047761CE3E03878694686
:103A300008720020487202A80190012003E0386853
:103A400001900020C0433F1D69070CD5002500E010
:103A50006D1C00998D420FDA8542F9DB0199495DB1
:103A60000029F5D108E0002500E06D1C8542FCDB53
:103A70000199495D0029F8D1761907E0019801996B
:103A80000078491C0191129A119990476D1EF5D248
:103A9000B0E00A20029000216802400F0391022842
:103AA0000CD001CFC117844600290DDA60460A46C2
:103AB00040420021914184462D2008E0FF1DFF086F
:103AC000FF0003CF8446EFE7280504D52B206A4684
:103AD000107401203DE0E8073BD02020F7E70A20E2
:103AE00000E0102000210391029007E010200290D6
:103AF0000021042005430820039100906802400F34
:103B0000022811D001CF0021844600200D90280703
:103B100020D52078864670280CD0029A1020039B6E
:103B200042401A430CD015E0FF1DFF08FF0003CFF1
:103B30008446EAE740206A46107401200D900CE0AC
:103B40006046084306D030206A46107470465074B0
:103B500002200D902078582804D028A001900DA8AC
:103B60000E900DE02AA0F9E76046039B029AFCF74D
:103B70002DFC019B84469B5C0E9A521E0E92137084
:103B800060460843F0D10E9805A9081A203001902C
:103B9000680701D40120009000990198814201DD5D
:103BA000081A00E000200025009006E004A8129A00
:103BB000405D119990476D1C761C0D988542F5DB90
:103BC00004E0129A302011999047761C0099481E03
:103BD00000900029F5DC08E00E980E990078491C49
:103BE0000E91129A11999047761C0199481E0190E6
:103BF0000029F1DC641CB8E60928010030313233B9
:103C00003435363738396162636465660000000018
:103C10003031323334353637383941424344454602
:103C20000000000030B5404D0024AC632B468033CB
:103C3000AC671C601C642C64EC676C675C643B487C
:103C40006C640068A8643A492A2008606C85AC85D9
:103C5000EC8539482C86374A026037493748383175
:103C600008601C390A60383108602C846C84EC844C
:103C70002C85EC702C71EC712C703148AC700460A8
:103C800030480460304804603048046030480460C4
:103C90002C726C72AC722F485C6004606C70EC76B5
:103CA000AC71AC83EC83EC72FEF702F9FEF714F909
:103CB000FEF726F9FEF738F91F4900202439820063
:103CC000401C8C500328FADB1B4900201839820065
:103CD000401C8C500328FADB6C74AC702C71AC74F3
:103CE0009C60DC605C611C489C6104606C716C864B
:103CF0001A48DC610470EC732C74FF2028756C7515
:103D0000AC75AC841C625C62DC621C635C639C63AB
:103D1000EC749C62AC86DC63EC752C7600F09AFA4D
:103D20006C76AC7630BD0000600100208800002079
:103D30006400002091050000240C0020E808000029
:103D400074000020380000204000002044000020C3
:103D500060000020F0000020F4000020200000207F
:103D6000F3B507461B4D1C2081B0285EFCF7E4FA32
:103D7000FFF7D6FC184C2068FCF7E9FAFFF7F4FCD3
:103D800016480078012818D12A468032D069C72801
:103D900013D8134916460B688100483673508919A9
:103DA000104B032636021B688E19336203267602F7
:103DB00089192368401C0B64D0616878012805D0FC
:103DC0002879012802D1287007482060EF840298E2
:103DD0002885FEBD60010020F00000207A00002050
:103DE000F400002010010020A2080000F3B50746EF
:103DF000184C1C2081B0205EFCF79EFAFFF790FC67
:103E0000154D2868FCF7A3FAFFF7AEFC2246803276
:103E1000D069C72813D8114916460B688100483667
:103E2000735089190E4B032636021B688E193362B4
:103E30002B6803256D024919401C0B64D061607822
:103E4000012803D02079012800D12070E78402984E
:103E50002085FEBD60010020F0000020F40000205D
:103E60001001002000B50346FEF732FA184600BDE7
:103E7000654C59221620882102E0226020602160D2
:103E80002368012BF9D1FEF7D3F900252560FFF750
:103E90008FFCFDF7CDFAFFF7E5FBFEF745F8FEF7DF
:103EA0002FF8FEF719F8FEF703F8FEF7F5F8FDF71F
:103EB000E9FCFCF73BFB5548016855A0FFF71CFDEA
:103EC00057A0FFF719FD5BA0FFF716FD5DA0FFF7F8
:103ED00013FD5FA0FFF710FD5FA0FFF70DFD61A0D0
:103EE000FFF70AFD0122114662A0FFF705FD664CAF
:103EF000E06864214843FCF723F964214843E16802
:103F0000FCF71EF9014661A0FFF7F6FC65A168A069
:103F1000FFF7F2FC42A0FFF7EFFC694C69A0E268F2
:103F2000A168FFF7E9FCFDF7E5FB6A4A9068002805
:103F300005D000205168002903D0002102E00120B3
:103F4000F8E7022141181068002801D0002000E0A5
:103F50000420091860A0FFF7CFFC01266348402128
:103F600001608021016005200007816B604A1140DB
:103F70008163584940318D60CD60826B5D4B1A4042
:103F800082630D614D61826BFF2302339A4382632A
:103F90000D604D60FEF748FBFCF738FE0021012064
:103FA000FDF79EFE01210220FDF79AFE012104206B
:103FB000FDF796FE00210820FDF792FE032109205F
:103FC000FDF78EFE4CA02169FFF796FCFFF75CFC25
:103FD000667026702078002803D06078002800D111
:103FE000257020780128F5D06068012802D0FFF7FD
:103FF00019FEEFE7A078012802D000F0D9F8E9E730
:1040000000F082F8E6E70000000100500000002008
:104010000A0A4350552020256420487A0A000000EF
:104020002A2A2A2A2A2A2A2A2A2A2A2A2A2A2A2AF0
:104030002A0A00002A2A205054412D4235304620B9
:1040400000000000506F6C657320325F5F0000005D
:104050005657550A000000002A2A2049443A59655B
:10406000732C00002042757A7A65723A5965730A9A
:10407000000000002A2A20462F57203D20562564A4
:104080002E30256441200A00000004402A2A204DD9
:1040900061782044757479203D2025642525200A07
:1040A000000000003230323530353136000000007B
:1040B0002A2A2053564E203D2025732020200A0016
:1040C00078000020312F34203D2025642C202564E9
:1040D0000A0000000042005048616C6C2053656E7D
:1040E000736F723D202564200A00000000E100E0AB
:1040F000FBFBFFFFEFEFFFFF4261747465727920F5
:104100003D25640A00000000F8B522480178032923
:104110001BD3214E0025057031682048491C3160B1
:1041200003781F481F4F34463A680068803C002BD4
:104130000CD001291AD0032907D12178002921D0D8
:10414000FCF7C0FEA06B401CA063F8BD012903D0A2
:104150000329FAD13560F5E72267FCF7F8F8FEF796
:1041600023F908E0396808183860F8BD2267FCF7C1
:10417000EEF8FEF7C7F8E066216F42180A498A4256
:10418000F3D2EFE7094980B2098889B2FFF7E8FD69
:10419000E0E700003A010020E0010020ED000020EF
:1041A000F4000020F0000020A3080000100100200F
:1041B000F8B521480178032920D300241F4D04704D
:1041C000696F1F48491C696703781E481F4F1E4EC0
:1041D0003A680068002B0CD001291AD003290DD1B0
:1041E0002978002920D0FCF76DFEA86B401CA8633D
:1041F00003E0012903D0032900D16C67F8BD2A67C9
:10420000FCF7A5F8FEF774F908E03968081838607B
:10421000F8BD2A67FCF79BF8FEF718F9E866296FE6
:104220004118B142F4D2F0E7094980B2098889B255
:10423000FFF7DCFD6C67D8E73A0100206001002041
:10424000ED000020F4000020A3080000F000002092
:1042500010010020F0B52348274F01783A4600208E
:10426000214B224C224D234E803A01291FD0D16F81
:1042700000291BD110701860206028601F49306031
:10428000886148611E4C8C601E4DCD6050650B46A8
:104290001C335066986158619C60DD6090651A4BD4
:1042A00090660B607864194990700870F0BD916F4A
:1042B0000029FBD110701860206010492860383147
:1042C000306088614861124C8C60124BCB60D064C6
:1042D0001C31D065886148618C60CB6010651066C8
:1042E0003864E0E77A0000207400002038000020E5
:1042F0004000002044000020E0010020240C0020A9
:104300000AD7A33DCDCC4C3D9105000039010020DA
:10431000CDCCCC3D0AD7A33C10B50446016810A013
:10432000FFF7EAFA11A06168FFF7E6FA12A0A168A8
:10433000FFF7E2FA13A0E168FFF7DEFA14A02169A3
:10434000FFF7DAFA15A06169FFF7D6FA16A0A1699E
:10435000FFF7D2FA17A0E169FFF7CEFA10BD00000F
:10436000723020203D20307825780A0072312020DC
:104370003D20307825780A00723220203D203078A8
:1043800025780A00723320203D20307825780A00F5
:10439000723132203D20307825780A006C7220205E
:1043A0003D20307825780A00706320203D20307849
:1043B00025780A00707372203D20307825780A0035
:1043C000001BB7000000000080F0FA021027000078
:1043D000000000000000000000000000008051010B
:1043E000001BB70000000000000000000080510129
:1043F000001BB70000000000000000000080510119
:10440000001BB70000000000000000000080510108
:10441000001BB700102700000000000000805101C1
:104420000000000004000000000000000000000088
:10443000010000000000000000000000000000007B
:10444000020000000000000000000000000000006A
:10445000000000000000000000000000000000005C
:1044600003000000001BB700102700000000000040
:104470000080510100000000040000000000000066
:10448000000000000100000000000000000000002B
:10449000000000000200000000000000000000001A
:1044A000000000000000000000000000000000000C
:1044B0000000000003000000D844000000000020BD
:1044C000880B00003239000060500000880B00208B
:1044D000100300004239000080F0FA0232000000B0
:1044E00080F0FA0200000000000000000000000060
:1044F00000000000000000000000000000000001BB
:1045000000000000000000000000000000000000AB
:10451000000000000000000000000000000000009B
:10452000000000000000000000000000000000008B
:10453000000000000000000000000000000000007B
:10454000000000000000000000000000000000006B
:10455000000100000000000000000000000000005A
:10456000000000000000000000000000000000004B
:10457000000000000000000000000000000000003B
:10458000000000000000000000000000000000002B
:10459000000000000000000000000000000000001B
:1045A000000000000000000000000000000000000B
:1045B00000000000000000000000000000000000FB
:1045C00000000000000000000000000000000000EB
:1045D00000000000000000000000000000000000DB
:1045E00000000000000000000000000000000000CB
:1045F00000000000000000000000000000000000BB
:1046000000000000000000000000000000000000AA
:10461000000000000000000000000000000000009A
:10462000000000000000000000000000000000008A
:10463000000000000000000000000000000000007A
:10464000000000000000000000000000FF0000006B
:10465000000000000000000000000000000000005A
:10466000000000000000000000000000000000004A
:10467000000000000000000000000000000000003A
:10468000000000000000000000000000000000002A
:10469000000000000000000000000000000000001A
:1046A000000000000000000000000000000000000A
:1046B00000000000000000000000000000000000FA
:1046C00000000000000000000000000000000000EA
:1046D00000000000000000000000000000000000DA
:1046E00000000000000000000000000000000000CA
:1046F00000000000000000000000000000000000BA
:1047000001000000000000000000000000000000A8
:104710000000000000000000000000000000000099
:104720000000000000000000000000000000000089
:104730000000000000000000000000000000000079
:104740000000000000000000000000000000000069
:04000005000000F502
:00000001FF
