:020000040000FA
:10000000C8040020F500000015010000D900000020
:1000100000000000000000000000000000000000E0
:1000200000000000000000000000000019010000B6
:1000300000000000000000001B0100001D01000086
:100040001F0100001F010000310B00001F01000014
:10005000D90C00002D1100001F0100001F0100003D
:100060003D230000152600001F0100001F010000B5
:100070001F0100001F0100001F0100001F01000000
:100080001F0100001F0100001F0100001F010000F0
:100090001F0100001F0100001F0100001F010000E0
:1000A0001F0100001F0100001F0100001F010000D0
:1000B0001F0100001F0100001F0100001F010000C0
:1000C0000448854600F002F900480047C5370000A3
:1000D000C046C046C804002004207146084202D031
:1000E000EFF3098001E0EFF308807146004A104702
:1000F000D91500000A480B4901600B4901600B4902
:1001000001600B4A0B491160002101600A488047D9
:100110000A480047FEE7FEE7FEE7FEE7FEE7FEE7E8
:100120000001005059000000160000008800000087
:1001300024000050A55A0000B9220000C1000000B0
:1001400030B50B46014600202022012409E00D466F
:10015000D5409D4205D31D469540491B25469540F7
:1001600040191546521E002DF1DC30BD03460B43ED
:100170009B0703D009E008C9121F08C0042AFAD25D
:1001800003E00B780370401C491C521EF9D27047E3
:10019000420005D04200120E52428A4201DB00208A
:1001A0007047C9050818704710B5002296231146FC
:1001B00000F052F810BDC20F410040020123400A76
:1001C000DB05D207090EC0187F2901DA002070472D
:1001D000962903DC9623591AC84001E096398840D5
:1001E000002AF4D040427047F0B51FB40646002004
:1001F00082B005464024019100901BE001992246FF
:100200000F46304600F084F8049A059B801A994105
:1002100010D310461946224600F06AF8361A8F416C
:100220000197224601200021009F00F061F8381854
:100230004D4100902046641E0028DFDC019B0098A1
:100240002946324607B0F0BD002904DA401C4900B7
:1002500001D140084000704770B40024050C05D15E
:100260001024000402D1002921D01124050E01D14F
:1002700000020834050F01D10001241D850F01D1B2
:100280008000A41C002801DB4000641C002908D069
:1002900020252E1B0D46F540A14000D00121294309
:1002A000084301061B1B000ADB1D02D5002070BCA1
:1002B0007047DB05181880180029F8DA401C49003F
:1002C000F5D170BC4008400070470000064C012585
:1002D000064E05E0E36807CC2B430C3C98471034EE
:1002E000B442F7D3FFF7F0FE103E0000303E0000AE
:1002F00010B5202A04DB0146203A9140002010BDB1
:10030000914020239C1A0346E3401943904010BDBE
:1003100010B5202A04DB0846203AD040002110BD49
:100320000B46D340D0402024A21A914008431946DE
:1003300010BD0000FF21F53110B548430149FFF71A
:10034000FFFE10BDFF0F000010B50B4C204600F063
:100350007DF9032252040C21204600F0E7FA074CF5
:100360007F230C220021204600F00AF8216A012296
:100370001143216210BD00001CFE235600000E40F8
:1003800030B50648046A064D2C400C431443046201
:10039000416A090A09021943416230BD00000E405A
:1003A000F3FBFFFFF8B58B4E8B49327809780025B7
:1003B0008A4200D075600278884F0121884C130072
:1003C00002F08CFF0FEFCDDAAEEF8F8F74AE744377
:1003D00010093C2DEF007268521C7260642A19D318
:1003E000756016E07268521C72606161A161C82A72
:1003F00010D97C4AE12311717B4A39711268DB0004
:100400009A4202D9A5610D2107E0784BD218462AFD
:1004100001D20170D2E0A5610E210170CDE07068BB
:10042000401C70602828F5D30246283A282A01D8B3
:10043000A161C3E05028EDD9656176E07268521C75
:100440007260282AE6D9A16149E07068401C70609A
:10045000342803D221616561A5610DE00246343A7A
:10046000482A02D22561616105E002467C3A342ABD
:1004700006D221616561A161F62806D371609DE015
:100480000246B03A462AEDD3F6E7C8280DD1B07837
:10049000401CC1B2B17056A002F0F8FEB0783C2802
:1004A00003D358A002F0F2FEE56187E07268521CA7
:1004B0007260102A39D31346103B102B05D3103B22
:1004C000102B09D3103B102B02D26161A16104E013
:1004D00011464039102900D2A561502A6ED305700B
:1004E0006CE07068401C7060642810D25548006849
:1004F000012802D07078012860D171703868142109
:1005000048435149884259D26561256156E0024607
:10051000643A642A01D261612161C8284DD84DE056
:100520007068401C70600A2801D2A56146E002464E
:100530000A3A0A2A0ED30A3A0A2A05D30A3A0A2A9A
:1005400008D30A3A0A2A01D2A56105E00246323AE6
:100550001E2A01D26161A16150282ED22EE070685E
:10056000401C7060362802D26561A56101E06161BE
:10057000A161672821D821E07068401C70601428B0
:100580000CD30246153A512A11D3523A132A05D3F5
:10059000143A512A0BD3523A7B2A03D26561A561E2
:1005A00007E00FE00246FF3A4A3A512A01D265615C
:1005B000A161FF219B31884200D97560064800780F
:1005C0003070F8BD6161E1602161A161A16161618B
:1005D000F3E7000014000020EC0000209800002049
:1005E0000042005090000020740000203EF9FFFF00
:1005F00009096D753842757A4379636C65203D2031
:1006000025640A00202020202020202020202020D7
:1006100020202020202020202020202020202020DA
:10062000202020202A2A20363073202049442045CB
:1006300072726F7220506F776572206F6666202A23
:100640002A0A000068000020404B4C00810F8A00FD
:10065000044951184A68C306DB0E01209840024342
:100660004A60704700020050F0B507000C4656483B
:1006700085B054490162554E016813D004221143DC
:100680000160102000F0BAF90120C0040290504827
:10069000042503904F485049201888420DD8002067
:1006A00004901CE0012211430160104600F0A6F9FD
:1006B0000020022503960290ECE74848484920189C
:1006C000884203D801206400049008E04548454969
:1006D00020184942884249D80320A40004900026EB
:1006E000F64300200090019021E029460398FFF78F
:1006F00027FD3D493D4A4118914217D20222354B10
:10070000014651435B1CCF185B429F420AD8A1426D
:1007100001D90B1B00E0631AB34203D21E000095FF
:10072000019203D03249521C8A42E8D96D1C212D16
:10073000DBD90498029980030843009901224902F9
:100740009202891A08430199891E08431E490862CA
:10075000042000F053F904990098491C4143039880
:10076000FFF7EEFC0199484305B0F0BD002F0FD014
:10077000204915480162042000F040F91EA00068DD
:1007800000901148016A0013014203D00020EBE7FA
:100790001A49EEE7080300D50D4E880301D530460F
:1007A000E2E70804800F6A46105CCA058904C90E96
:1007B000891CD20D4143B008921C5043FFF7C0FC86
:1007C0008000D1E70000010000020050001BB700CC
:1007D00000805101FF1E0AFAFFE0F5057F0F05FDBD
:1007E0007FF0FA02C08782FEFF95E7FFBF77CC005B
:1007F000010200006FD60000010202042EC20000B8
:1008000002490A6802430A60704700000002005073
:1008100008B511A0006800901048016A0013014259
:1008200001D0002008BD080301D50D4800E00D48A7
:100830008A03F7D40A04920F6B469B5CCA058904AD
:10084000D20DC90E891C8008921C59435043FFF7F2
:1008500077FC800008BD0000010202040002005085
:1008600000805101001BB700F8B51B4C0546E66837
:10087000102006401948854202D84010854200D217
:1008800005462068042738432060102000F0B6F8A1
:100890002069072108432061A06900090001A061C7
:1008A00020682946C00704D00020FFF7DDFE05467A
:1008B00007E00120C004FFF7D7FEE66805461020D8
:1008C00006400021022000F00BF8002E02D1206823
:1008D000B84320602846F8BD0002005080F0FA02BC
:1008E000F3B5114C81B0E5680F46102620683540FD
:1008F00030432060304600F081F82069072108432A
:100900002061A069000900013843A0612069C10885
:100910000198C9000143216101F086FC002D02D13C
:100920002068B0432060FEBD0002005070B5430E49
:100930005B070DD083009B0F0F4C9B001B191C689D
:1009400005016D0FC601F60EB540AC430C431C60AB
:10095000830A1906090E0ED00103074C890F89007E
:10096000083409190C68DBB28005DB43C00E8340F4
:10097000234013430B6070BD1002005070B50D4A48
:100980000B4905260C4B15680024884201D9401AF2
:1009900001E0014600200A466A435A619C611E61DB
:1009A0001A69D203FCD51C610028EED170BD00008D
:1009B000B81E05000400002000E000E070B50D4AFC
:1009C0000B4905260C4B15680024884201D9401AB2
:1009D00001E0014600200A466A435A619C611E619B
:1009E0001A69D203FCD51C610028EED170BD00004D
:1009F000B81E05000400002000E000E010B5044629
:100A00000749084B05E00A46491E002A01DC002080
:100A100010BDDA6820469043F5D1012010BD0000DA
:100A2000804F120000020050F8B5344801250168DB
:100A300000243348334A00290BD001783248334F21
:100A4000334E002925D0022922D1936B002B26D1C9
:100A500050E0936B2F49002B04D1D36B002B01D0B6
:100A600004700FE0936B002B04D0D36B002B01D0EC
:100A700005700BE0936B002B08D1D36B002B05D1D5
:100A800002230370CB78012B00D1D4620078C870A8
:100A9000F8BD936B002B02D1D26B002AF8D1057000
:100AA000002000F04BFE3C6031680120800781434C
:100AB0003160144F403FBC611748FFF75FFFFC6097
:100AC0001648FFF75BFF1648FFF758FFBD61154852
:100AD000FFF754FFBC611448FFF750FFFD60134857
:100AE000FFF74CFFBD61306879050843306002F0C4
:100AF00095FBF8BDD26B002AD1D1F8BDE0000020F3
:100B0000D900002040420050080100200040004071
:100B1000200001401400002008CF0000400D030019
:100B200088FB0300C8A9010050C30000289A0100F7
:100B3000F8B53F49086A400779D53E480068012862
:100B400075D1012502023C48026052000260042077
:100B500008623A4CA06A3A4F3A4E01280CD13078DC
:100B6000002809D138A002F091FB38480078B8730A
:100B700037480078F8733570A06A002857D130786C
:100B8000012854D10220307032A002F07FFB33489C
:100B90000178002000F0D2FD314800240571314871
:100BA0003249047030480068086031480168491CC7
:100BB000016030480178012900D0047003203070B2
:100BC0001E48403045601D484038C560046184615E
:100BD000294D29684005814329602848FFF7EEFE2A
:100BE000286869060843286025480078012808D14C
:100BF00024487D210068C900884202D90F4840304E
:100C00004460214804710460204804602048046066
:100C1000032030700D48B97B01700D48F97B0170DD
:100C2000FF21054801318038016049000160F8BDAD
:100C3000C04000506800002080E100E040420050C9
:100C40002000002020010020480A0000240100208C
:100C50002301002020204C0A00000000D9000020C1
:100C6000C800002022010020FC0000201C01002000
:100C700078000020EC00002020000140B01E04009D
:100C8000EB00002074000020C0000020E0000020E5
:100C9000E400002010B5044601F0AEF90C490868E4
:100CA0000122104308602220C8604C600A61BFF333
:100CB0006F8F08690028FCD10868400603D50868D2
:100CC00040221043086003490020086010BD000066
:100CD00000C0005000010050F8B5F948016AC9078A
:100CE00001D0012108E0016A890701D5022103E052
:100CF000016A490701D504210162F349F1480978E5
:100D0000F44B8C46F14940790D78F1491422096879
:100D10001B684A43F04C03280AD002281FD006283B
:100D200034D0042849D005285ED0012874D08FE043
:100D3000A668002E05D000266768002F03D0002784
:100D400002E00126F8E70227F7192668002E01D0F5
:100D5000002600E00426BE19012E74D09AE0A66891
:100D6000002E05D000266768002F03D0002702E080
:100D70000126F8E70227F7192668002E01D0002681
:100D800000E00426BE19032E5DD09AE0A668002E6E
:100D900005D000266768002F03D0002702E0012657
:100DA000F8E70227F7192668002E01D0002600E098
:100DB0000426BE19022E46D09AE0A668002E05D061
:100DC00000266768002F03D0002702E00126F8E71D
:100DD0000227F7192668002E01D0002600E004261D
:100DE000BE19062E2FD09AE0A668002E05D0002648
:100DF0006768002F03D0002702E00126F8E70227EA
:100E0000F7192668002E01D0002600E00426BE193E
:100E1000042E18D09CE0FFE7A668002E05D000261F
:100E20006768002F03D0002702E00126F8E70227B9
:100E3000F7192668002E02D0002601E003E0042600
:100E4000BE19052E0FD16646022E71D001280AD098
:100E500003281FD0022834D0062849D004285ED0A9
:100E6000052875D08EE0A068002805D000206668AF
:100E7000002E03D0002602E00120F8E702268019A8
:100E80002668002E01D0002600E0042680190328E1
:100E900075D077E0A068002805D000206668002E95
:100EA00003D0002602E00120F8E702268019266818
:100EB000002E01D0002600E00426801902285ED012
:100EC00060E0A068002805D000206668002E03D0EE
:100ED000002602E00120F8E7022680192668002E8D
:100EE00001D0002600E004268019062847D049E0FA
:100EF000A068002805D000206668002E03D00026D8
:100F000002E00120F8E7022680192668002E01D0B1
:100F1000002600E004268019042830D032E0A068C2
:100F2000002806D000206668002E04D0002603E0CA
:100F30002BE00120F7E7022680192668002E02D058
:100F4000002601E004E004268019052817D019E0E6
:100F5000A068002805D000206668002E03D0002677
:100F600002E00120F8E7022680192668002E02D050
:100F7000002601E003E004268019012802D1604622
:100F8000002802D0002D15D020E0002D1ED153489E
:100F90004C4E0571056035796D1C35710125504E3B
:100FA000012B35713ED1642A3CD94E4A914239D247
:100FB000057137E0012B09D14A48814206D24A48DF
:100FC000824203D93F48016B491C01633D48006BD5
:100FD000192827D93D4E002D24D1012B22D1434879
:100FE0007D21C900824211D91046FFF7A9F80146B8
:100FF0003FA002F04BF90520307033480178002003
:1010000000F09CFB3D49072008700BE00320307086
:10101000324B012018711046FFF792F8014638A0B4
:1010200002F034F9274D384E2879052823D92C4869
:101030000168142041433548FFF782F8344A2549B6
:1010400010600968334F002903D03278012A04D098
:101050000BE000203860106007E0012905D12E491F
:1010600048432E49FFF76CF8386000201C490122E4
:1010700008600A7128712A480078002801D00128E8
:101080000BD112480078002807D13078012804D10C
:101090000D480178012000F0D7FBA068002805D09A
:1010A00000206168002903D0002102E00120F8E758
:1010B000022141182068002834D0002033E00000CD
:1010C0000040005020000020D9000020E80000204F
:1010D000A80000206800002000420050C00000204E
:1010E000B8000020D8C22D00B80B0000701101001C
:1010F000466F726365207825640A0000EC000020CA
:101100007825640A00000000220100200087930374
:10111000E4000020E0000020B205000010270000DD
:1011200020010020042008186871F8BD10B50B4894
:10113000016A090703D50821016209A00AE00749ED
:1011400040390A6A0A62016A016204484030016A51
:10115000016208A002F09AF810BD0000C0400050E3
:1011600050332E3320494E54206F6363757272657D
:10117000642E0A00556E2D65787065637465642071
:10118000696E74657272757074732E0A00000000C7
:1011900010B58369140E8C4023438361C369120226
:1011A000120A8A401343C36110BD0000F8B5974886
:1011B0004168FF2212041143416005242407606B3B
:1011C000934908406063606B5F2108436063E06B94
:1011D00090490840E063E06B02210843E0638B48DC
:1011E0000322803000F030F9E06BFF2102318843A8
:1011F000E063E06BE063854801221146803000F037
:1012000023F9854F01253D62A06B84490840A06306
:10121000A06BA0637D4800224021403000F014F90B
:101220007A4800228021403000F00EF9E06B7C49C2
:101230000840E063E06B032109030843E06373485F
:1012400002221021803000F0FFF870480222202195
:10125000803000F0F9F8206B724908402063206B61
:1012600020636A4E0022403E0121304600F0ECF837
:101270006D4A00213046FFF78BFF002202213046E5
:1012800000F0E2F8684A01213046FFF781FF0022B2
:101290000421304600F0D8F8634A02213046FFF7B7
:1012A00077FF5D492820C039086070690221084332
:1012B000706170690843706170690421084370614E
:1012C000084600F0C1FBA06B58490840A063A06B22
:1012D000A0634E4801220221403000F0B5F84B488F
:1012E00001220821403000F0AFF8484801222021B7
:1012F000403000F0A9F800207860F8607861206B39
:101300004B4908402063206B20634A480168414AEA
:10131000114001600168016001220821304600F09F
:1013200093F83D484038456101221021304600F0D5
:101330008BF839484038056101222021304600F001
:1013400083F8354840384561304801220221C030D9
:1013500000F07AF8304840304560E06B364908408C
:10136000E063E06BE063294801220821803000F04F
:101370006BF80020F862024624484021803000F0DB
:1013800063F8224800228021803000F05DF8E06B95
:101390002A490840E063E06B04210843E0631B48EE
:1013A0000022803000F050F818481F4A0221803097
:1013B000FFF7EEFE022000F047FB17492820C03956
:1013C0000860124880304069042108430F49803189
:1013D0004861206B1A4908402063206B206301227A
:1013E0004021304600F030F80B4840388561206BD2
:1013F000144908402063206B20630122802130467D
:1014000000F022F804484038C561F8BD4040005063
:10141000A0A0FFFFFDFDFFFF404200503F3FFFFF48
:10142000CFCFFFFFF8F8FFFC01000100D5D5FFFF8B
:10143000C7C7FFFF400000503737FFFFFBFBFFFF30
:10144000BFBFFFFF7F7FFFFFF0B5002301273C46B2
:101450009C400C4208D005685C000326A640B543BA
:101460001646A640354305605B1C082BEFD3F0BD44
:10147000F8B500264D4801220263016AD3021943E0
:101480000162016BC907FCD00121016300244748B8
:10149000A10008180068002C85B20AD0012C17D0D2
:1014A000062C54D0032C24D0052C24D0022C25D07B
:1014B0004DE03F487D2105603E48C9006843FEF786
:1014C0003FFE3D4908603D480168A94214D33EE013
:1014D0002846FEF72FFF3A4A1168884202D9431A7C
:1014E000022B04D8814232D9091A02292FD910605F
:1014F0002DE0344800E03448056028E0334F787828
:10150000002831D0324F012081007A58C919803922
:10151000401CC0B2CA671E28F6D32846FEF70AFF51
:101520007D21C9004843BE21FEF70AFE78670020EE
:101530008100C9194968401C8E19C0B21E28F7D312
:101540001E213046FEF7FCFD22498C300860641CE9
:10155000082C9CD31548016BC907FCD0016A0122F5
:10156000D20291430162F8BD2846FEF7E3FE7D21D9
:10157000C9004843BE21FEF7E3FD01463878144A0E
:101580008300401CC0B2D15038701E2801D1012008
:1015900078702846FEF7CEFE7D21C9004843BE2163
:1015A000FEF7CEFD0B494630D0E7000000000E40AC
:1015B000FC000020697D00000401002000010020E3
:1015C000F8000020F4000020F000002010000020AF
:1015D000C801002074000020044603A001F056FE5C
:1015E000204602F045FBFEE7496E20486172642008
:1015F0004661756C742048616E646C65720A000007
:1016000010B5074C2046FFF721F8032100220906F8
:101610002046FFF78BF9034800F0E0FC10BD000006
:101620000800004008000004F8B5012700242F4EF0
:10163000012803D0B461F461F770F8BDB069401CB3
:10164000B061C82845D2F178012901D128494C6000
:101650003228F06901D1401CF06105283ED10A20F2
:10166000F0612348F47080388461224D2968400578
:10167000814329602048FFF7A1F9286869060843DB
:1016800028601E48FFF79AF91948803887611CA026
:1016900001F0FCFD1F20000300F072FC1D4DA8426C
:1016A0000CD11DA001F0F2FD1F202909000300F05C
:1016B000B3FC1D4807700E4844600FE01BA001F00A
:1016C000E5FD1F202946000300F0A6FC1648047023
:1016D00004E0C938C72801D205484760FF21B06936
:1016E00091318842A9D9B461F8BD000020000020E2
:1016F0008042005020000140E093040050C30000ED
:101700004368616E6765205370656564204D6F6442
:10171000650A0000A0A0A0A02A20536C6F77204D7E
:101720006F6465202A0A0000EB0000202A20466131
:101730007374204D6F6465202A0A0000F8B5374A9B
:101740000024D4605461546005231B07996B344F07
:10175000394099639460996B324E314099631461BA
:10176000996BFF250235A94399631460002854D171
:1017700000F080FC2C49102008602C4804602C48A4
:10178000046005200007816BB31019408163234971
:101790008C60826B33461A4082630C61826B2B46ED
:1017A0009A4382630C60E12023498000214B052687
:1017B0000F6803E0884201D9401A03E00146002087
:1017C0000D467D435D619C611E611A69D203FCD5A3
:1017D0001C610028EED105252D07A86B002813D029
:1017E00016A001F053FDA86B0D490840A8630B48F3
:1017F0008460A96B0B4A1140A9630461AA6BFF21A5
:1018000002318A43AA63046004490120C860486128
:1018100048600B4908710B480470F8BD4042005005
:10182000FBFBFFFFEFEFFFFF80E100E0E0000020A7
:10183000E400002000E000E004000020265F0A0031
:10184000C800002022010020F0B53F4C0023E360D7
:101850006361636005221207956B3C4E35409563CA
:10186000A360956B3A4E354095632361956BFF26D7
:101870000236B54395632360012844D1012942D043
:101880003448006801283ED13348007801283AD115
:101890003248334B0068984235D22B4D403DA86802
:1018A000002805D000206B68002B03D0002302E045
:1018B0000120F8E70223C3182868002801D000207F
:1018C00000E004201F180120042506023B0001F05F
:1018D00005FD071A0521113538321A00002904D1F7
:1018E000916B4908490031430BE0916B10239943F8
:1018F0001B0215E0002907D1916B0123A9439B022C
:10190000194391636061F0BD916B102399431B02F1
:1019100019430DE0002907D1916B0123A9439B02D4
:10192000194391636060F0BD916B490849003143F0
:101930009163E060F0BD0029D7D0D1E70029E3D062
:10194000DAE70029F0D0E7E740420050FBFBFFFF59
:10195000EFEFFFFF6800002022010020A800002018
:10196000C0C62D0070B5274E274831780068274D36
:10197000274C002913D00022264B01292FD0022901
:101980000CD19842E06801D2401CE0604B21C900B4
:10199000884203D332702A70A260E26070BD1D4994
:1019A00060318842FAD31CA0A16801F06FFCA068E6
:1019B000FF21401C9131A0608842EFD31AA001F0B2
:1019C00065FC1E48012404601D48C4600320287083
:1019D0001C4801780020FFF7B1FE347070BD0D493E
:1019E000C94341185F2902D22978002906D09842BC
:1019F000F4D22A70A260E260327070BD06202870B6
:101A000070BD0000E8000020F0000020EC00002085
:101A100028010020360E00004D6F746F722054654F
:101A20006D703D25642C0A002A4D6F746F725F54EF
:101A30003E31303027432A0A00000000E000002039
:101A400000420050D9000020C106C90E0120884084
:101A5000014908607047000000E100E08307FF22B1
:101A6000DB0E9A408907090E994000280BDA00071F
:101A7000000F0838830808489B001818C36993436F
:101A80000B43C3617047830804489B001818036820
:101A900093430B430360704700ED00E000E400E077
:101AA000F8B52B4C2C4A20692C4D401C20616169F3
:101AB0000926491C6161A169294F491CA161254979
:101AC000096891423DD313280CD929780020FFF7EB
:101AD00035FE24A001F0DAFB23493E700420087093
:101AE000132020611B482149006888422BD360697C
:101AF00030280CD929780020FFF720FE1CA001F027
:101B0000C5FB19493E7004200870302060611148FF
:101B1000AF210068C900884217D32D20A1690001B8
:101B200081420DD929780020FFF708FE11A001F0AD
:101B3000ADFB0D493E70042008702D200001A0610E
:101B4000F8BD0020CDE70020E0E70020F7E7000027
:101B500028010020FC000020D80E0000D900002041
:101B6000EC00002049310A00E8000020FC080000D9
:101B700049320A0049330A0070B51E4D1E482B78C1
:101B8000FF22002491321D4E00681D49002B11D008
:101B9000012B0ED11B4B984229D24868401C48604B
:101BA000904206D90C6018A04C6001F06FFB3470B5
:101BB0002C7070BD134BA233984216D90868401C94
:101BC00008609042F5D30C6013A04C6001F05EFBFE
:101BD0001548012404601548C4600320307014487F
:101BE00001780020FFF7AAFDE2E70C6070BD4C60B1
:101BF00070BD0000E9000020F4000020EC0000208F
:101C000028010020140D00002A5043425F543C3745
:101C10003027432A0A0000002A5043425F543E38CE
:101C20003027432A0A000000E00000200042005054
:101C3000D9000020054800210161054A4260416148
:101C4000044A8260C160044901607047AC02002010
:101C5000B81E00007A1400000000E30805480021C7
:101C60000161054A42604161044A8260C1600449E1
:101C70000160704794020020B81E00007A14000032
:101C80000000E308054800210161054A4260416106
:101C9000044A8260C1600449016070477C020020F0
:101CA0007A140000CC0C00000000960505480021C5
:101CB0000161054A42604161044A8260C160044991
:101CC00001607047640200207A140000CC0C000010
:101CD00000009605FFB5044649480E460FC899B066
:101CE000149311AB07C346490125FF274422103145
:101CF0006846FEF73BFA4348159043490220434AA1
:101D000030408C4206D151690322120782401140B3
:101D10001C3004E0D169302282401140001DC140D6
:101D2000022921D0880011A9085816901B99FEF7A6
:101D300007FA17902946FEF703FA0121090688429F
:101D400017D83049411809020F0E032F00D202277D
:101D50003946FEF7F5F901210904884209D801281E
:101D600000D080B215900AE000F05EFA28480068C2
:101D7000DBE76806050E112D01D21798DAE7394620
:101D80001598694341431698FEF7DAF916907F1EBD
:101D90001598F9B2401E87B2A8006A46155C226801
:101DA00070088446C000FF2383409A4381400A4361
:101DB00022606168B0000722824091438540294338
:101DC0006160A16801226046920782409143A16050
:101DD000A068F200082191400843A0600C214E4306
:101DE0001C983419002805D0791C48436421FEF75B
:101DF000A7F9401E2061E76016981DB0F0BD0000F5
:101E0000BC3D0000FFFF0000000004400002005045
:101E100000000020C26F0A43C2677047F8B5354C16
:101E20002046FEF713FC344D2846FEF70FFC334ED8
:101E30003046FEF70BFC0321002209072046FEF77F
:101E400075FD002271072846FEF770FD0022302143
:101E50003046FEF76BFD2A4800F0C0F82848401CC9
:101E600000F0BCF8274D05212846FFF7D3FF264E8A
:101E700001213046FFF7CEFF244C254F00213A4682
:101E800028462368FFF726FF3A46022128462368A2
:101E9000FFF720FF3A46002130462368FFF71AFF7C
:101EA0000421284600F058F80121284600F054F893
:101EB0000121304600F050F8E86864214843FEF7FD
:101EC0003FF90146642213A001F0E0F9E8686421BB
:101ED0004843FEF735F91449144C08606421216029
:101EE000014613A001F0D2F916A0216801F0CEF945
:101EF000F8BD00001400C0571500E05716004076EA
:101F0000140000040000044000001440DC00002025
:101F100088130000504D57434D52203D202564202A
:101F20002F2025640A0000000C0100201001002071
:101F3000677533324D415850574D203D2025640A76
:101F400000000000677533324D494E50574D203D1B
:101F50002025640A0000000070B500231A460126FF
:101F60003546954034460D4202D0D500AC4023435F
:101F7000521C042AF4D381681943816070BD0000AB
:101F800010B5044600F038F80849086801231843E2
:101F900008600022CA604C600B61BFF36F8F086954
:101FA0000028FCD1886802490A6010BD00C00050BA
:101FB0000001005010B50420FEF722FC1020FEF7AF
:101FC0001DFD00210720FEF78BFC0348FEF74CFCAB
:101FD0001420FEF713FD10BD80F0FA020521020E59
:101FE000090751188B680122824013438B6088686F
:101FF000904388607047000010B5592116230548AA
:10200000882202E00160036002600468012CF9D1BB
:1020100010BD00000001005070B50D460446FEF7EB
:1020200039FEFFF7E9FF094A1168012001431160F9
:102030002121D160546095601061BFF36F8F1069EA
:102040000028FCD10249086070BD000000C00050AB
:102050000001005006498A691202FCD408600A286F
:1020600004D188690002FCD40D200860704700008C
:102070000000054002490861886202490861704712
:102080000000044000001440F8B516490A68161A0A
:102090001548164A3018904200D2002611481149BE
:1020A0008068096901F002F904460E480D4640684F
:1020B000314601F0FBF80F46041B0A480949AF41BD
:1020C000C068496901F0F2F820184F413A04010C48
:1020D0001143044A38141369536116610204080C51
:1020E0001043F8BDAC020020FFFF1D00FFFF3B00C6
:1020F000F8B516490A68161A1548164A301890425B
:1021000000D20026114811498068096901F0CEF813
:1021100004460E480D464068314601F0C7F80F46A8
:10212000041B0A480949AF41C068496901F0BEF87B
:1021300020184F413A04010C1143044A3814136922
:10214000536116610204080C1043F8BD940200208C
:10215000FFFF1D00FFFF3B00F8B516490A68161A7D
:102160001548164A3018904200D2002611481149ED
:102170008068096901F09AF804460E480D464068E7
:10218000314601F093F80F46041B0A480949AF4154
:10219000C068496901F08AF820184F413A04010CDF
:1021A0001143044A38141369536116610204080C80
:1021B0001043F8BD7C020020FFFF1D00FFFF3B0025
:1021C000F8B516490A68161A1548164A301890428A
:1021D00000D20026114811498068096901F066F8AB
:1021E00004460E480D464068314601F05FF80F4640
:1021F000041B0A480949AF41C068496901F056F813
:1022000020184F413A04010C1143044A3814136951
:10221000536116610204080C1043F8BD64020020EB
:10222000FFFF1D00FFFF3B00F8B51C4D2869440768
:102230001BA000680090296A640F2813014201D096
:10224000002016E0080301D5164800E016488A036E
:102250000FD40A04920F6B469B5CCA058904D20D09
:10226000C90E891C8008921C59435043FDF768FF32
:1022700080000E4E022CB06002D00D49A00008581C
:10228000A9690907090F491CFDF75AFF0949306080
:102290004A108018FDF754FF7060F8BD000200502E
:1022A0000102020400805101001BB7000000002061
:1022B000183D000040420F007047000070B51B4CF5
:1022C0002046FEF7C3F91A4D2846FEF7BFF907214D
:1022D000002209022046FEF729FB072100220903FC
:1022E0002846FEF723FB144C124820606F206060E4
:1022F00020686503284320600820FFF7A5FB2068BD
:10230000A603304320600B48FC302062FF20AF3032
:102310006062094C20342068284320600920FFF7C0
:1023200093FB20683043206070BD00000200805E97
:102330000300C05E0300000800000140F8B59348A8
:10234000FF230068193301229149984202D91046AF
:102350000A7000E0002000240C708E498A608E4DC7
:102360008E4E696A491C6962322913D38C490A78F6
:10237000521C0A706C626978884202D06C61687085
:1023800008E06969322903D2491C6961322901D305
:1023900028703060286A401C28628248017901292F
:1023A0003BD004608048017901293AD004607F481D
:1023B0000179012939D004607D480179012938D09B
:1023C00004607C480179012937D004607A4801799A
:1023D000012936D0046079480179012935D004609B
:1023E00077480179012934D00460764801790129C0
:1023F00033D004607449754F0879012831D00C60DE
:1024000073480179012950D00460724972480A6802
:10241000006882424DD810464CE00168491C0160BA
:10242000C0E70168491C0160C1E70168491C0160FF
:10243000C2E70168491C0160C3E70168491C0160EB
:10244000C4E70168491C0160C5E70168491C0160D7
:10245000C6E70168491C0160C7E70168491C0160C3
:10246000C8E70868401C0860142148435B4988425B
:10247000C6D35B4800780028C2D130680128BFD19C
:10248000584801780529BBD0574909780129B7D1A7
:102490000521017039780020FFF750F953490720D2
:1024A000087053A000F0F2FEAAE70168491C016021
:1024B000ABE70860FFF7DEFD4F48C06801280ED18A
:1024C00005200007806B400509D53978012906D021
:1024D0003068012803D144480078012805D02C72C7
:1024E0004548406801280ED01CE0287A401CC0B244
:1024F00028720228F4D30020FFF720F939783FA092
:1025000000F0C4FEECE705200007806BC00509D58C
:102510003978012906D03068012803D13248007883
:10252000012805D0EC713448406901280ED01CE028
:10253000E879401CC0B2E8710228F4D30020FFF70C
:10254000FDF839782FA000F0A1FEECE70520000788
:10255000806BC00409D53978012906D0306801287C
:1025600003D121480078012801D0AC71F8BDA879C9
:10257000401CC0B2A8710228F8D30020FFF7DEF893
:10258000397822A000F082FEF8BD0000F80000209B
:1025900065000020000001402000002068000020AD
:1025A00025010020D0000020B0000020B80000204D
:1025B00098000020A000002090000020A80000202B
:1025C0008000002088000020C0000020D9000020EA
:1025D000C8000020DC0000200C010020C0270900FA
:1025E00020010020E800002022010020EC00002053
:1025F00053746C0A00000000404200507E25640ABB
:10260000000000002125640A000000004025640A43
:1026100000000000F8B5FA4901208860F9490A680D
:102620002C239A4302430A60F74E707A401C707262
:10263000B078401CB070FEF71BFFF448F44D006802
:10264000002400282AD1F348FDF7ACFEEF480168CA
:10265000002923D101270760EF48F24B0460047181
:10266000EE4804600471EE480068984202D26F613F
:10267000AF6110E07D21C900884205D20A461946A3
:10268000E9A000F003FE06E0ECA000F0FFFDE24848
:102690000771E2480771DF48FDF784FE707AC828A9
:1026A0000AD1DA4874720068002809D1E7A000F066
:1026B000EDFDD8480A210170D448006800287DD07B
:1026C000FEF7B2F9E3480768E348002F03D000792A
:1026D000012810D02DE0017901292AD100681421A8
:1026E0004843DE49884206D9DD480068002802D107
:1026F000DC4901200870D848142100684843DA49B1
:10270000884216D905200007816BD84A11408163A1
:10271000BF4940318C60826BD54B1A4082630C619B
:10272000826BFF2302339A4382630C60CC604C615E
:102730004C60CB480068012802D000287ED061E3BD
:1027400001207073B548B64A0460B348B5490460C7
:102750001068884201D2002F13D0B4627D23DB00C1
:10276000984207D2C349142209685143C82901D2AB
:102770000121B1727D21C90088422CD2002F04D0E2
:1027800029E0B16A491CB162E8E7BB48007801283A
:1027900021D1307B00281ED1B848007800281AD1FA
:1027A000B7A000F073FD01203073AC61EC60944F72
:1027B0003868790688433860B34800E0B2E3FEF732
:1027C000FDF83868790608433860AF48FEF7F6F838
:1027D0000120A861E860B06A3C2802D3F17A0029A0
:1027E0000BD0A5490978012979D08D4F8D493A68D8
:1027F0008A4201D9002822D0DCE1A44804700120DB
:10280000F072A3A000F042FD05200007816BC9050E
:10281000CB0F816B806B4905CA0FC004C10FA0A00C
:1028200000F034FD7A4840304368C26841699CA09A
:1028300000F02CFD774802210170BBE1D9E1894805
:1028400000780128D8D1834800680028D4D1964860
:10285000FF2100680F318842CED994480178C9071A
:10286000CAD193490A78934909780A439249097869
:102870000A43C1D178490C710C6001210170834871
:102880000470FF200630B063401EF0637B48047084
:102890008A4804608A4804606BA000F0F7FC89A0B5
:1028A00000F0F4FC88480078002804D0012808D003
:1028B000022808D00AE07048017884A000F0E6FC05
:1028C00004E084A000E084A000F0E0FCA8680028F8
:1028D00006D000206968002904D0002103E025E12A
:1028E0000120F7E7022140182968002901D00021C2
:1028F00000E0042141187CA000F0C8FC7CA03968ED
:1029000000F0C4FC50A000F0C1FC424804706E48C6
:1029100034630078012807D17D203968C0008142E6
:1029200002D93B4880304460354820380168800334
:1029300081433348203801603148016840068143B3
:102940002F48016005200007816B484A11408163D0
:102950002F4F4037BC60816B454A114081633C6119
:10296000816BFF220232914381633C600120F86059
:10297000786178606048FEF721F8214820380068C7
:10298000390608431E49203908601D48006889033C
:1029900008431B490860FC607C617C605648FEF778
:1029A0000DF8F869012822D054A000F06FFC5648B9
:1029B0000470564804700120F8622F4F3978FEF7F2
:1029C00043FF534901200871524938780870124872
:1029D0002849046004711148046004714E48046081
:1029E0000471012008714D4910200860E2E04CA0FC
:1029F00000F04CFC4549012008704348DAE700002C
:102A00002000014000400040200000207C00002009
:102A100000420050EC0000209000002098000020B0
:102A200074000020D6060000090923232025643CF9
:102A30002056203C25640A0A0000000009092323CF
:102A4000202564203C20560A0A00000049445F4EBD
:102A5000470A0000E0000020C8000020671E0600B2
:102A60006800002022010020673C0100FBFBFFFF03
:102A7000EFEFFFFFA8000020D9000020EF000020AA
:102A80003132330A0000000050C30000230100204F
:102A90006C6F7720626174746572790A00000000BF
:102AA0002564256425640A00F80000202401002024
:102AB000E9000020E8000020EA000020FC000020DF
:102AC00000010020446E3D00EB000020463A2564E2
:102AD0000A0000002A530A002A2A2049442045728D
:102AE000726F72202A2A0A0048533D25640A0000AA
:102AF000563D25640A000000204E000053706565B5
:102B000064204C4F0A0000001801002066000020DD
:102B1000B0000020D8000020A000002000E100E06C
:102B200053706565642048490A000000FE4F3878FC
:102B3000012803D1FD490978002906D0FC4909780C
:102B40000143FA480078014334D1FA490120C862B0
:102B5000F9A000F09BFBF5493C7001200870F84893
:102B60000460F848016880038143F6480160F54F2E
:102B700020373868790688433860EC60AC61F248E9
:102B8000FDF71CFF0120E860A861F048FDF716FF83
:102B9000AC61EF48FDF712FF0120A86100F03EFB99
:102BA000E848006879060843E64908603868890300
:102BB00008433860DD48007801287DD1B07A0128CB
:102BC000FBD1E44800780028F7D1E34800780128D9
:102BD00073D0E248007800280AD1E1480078002844
:102BE000FAD1E04800780028F6D1DF4901200870CA
:102BF0001CE1707B0128E0D1CB480078C007DCD114
:102C0000DAA000F043FB6E20CA4F7063FC62D94823
:102C10000470C648007801281BD1B07A012818D169
:102C2000CC480078002814D1CB480078012810D077
:102C3000CA48007800280CD1C9480078002808D17B
:102C4000C8480078002804D1C7480C210170FDF75E
:102C5000A9FBFC607C607C61C748C84904606420B3
:102C60000860C74901200871C6490C70C649346321
:102C70000C710C60C5490C710C60C5490C70B462D4
:102C8000B472A949F4720870AA4940314860B34F40
:102C9000B34A397812781143B24A1278114300D1FD
:102CA000E860A34901200870BA4804600471BA487A
:102CB0000078002807D001E0A4E0A7E0B748016849
:102CC000B74881420BD2B749B74A0C600120146063
:102CD00008711071954804700020FEF7A5FCB348F8
:102CE0000078032862D0387800285FD19C480078AB
:102CF00000285BD19B480078002857D1A348AC49F5
:102D00000068884252D294480078012804D0A9482B
:102D1000007800282AD049E0307C002802D0012821
:102D200013D043E0A44F1421386848437D21C900E3
:102D3000FDF706FA0146A1A000F0A8FA01203C60C8
:102D40003871307C401C307430E09B48142100689E
:102D500048437D49884229D27D21C900FDF7F0F919
:102D6000014698A000F092FA34741FE0EC60AC6168
:102D700073480460734F2037386879068843386099
:102D80009248FDF71BFE9148FDF718FE9048FDF7AD
:102D900015FE386879060843386000F03FFA0120D4
:102DA000E860A8618B4804608B4804607748046041
:102DB000047179480078012814D1686177490A685C
:102DC0007D21C9008A4202D95A4940314C60574995
:102DD000754A0C7073490C60146008711071002002
:102DE000FEF722FC5E480078052803D0042801D0B5
:102DF000032803D179480121046001716B480470F4
:102E00006C4804705448007801280FD16A4F14218F
:102E1000386848437249884208D9307C012805D176
:102E200070A000F033FA3C603C71347471484A4A37
:102E300000781178884203D0F36A5B1CF36200E0EB
:102E4000F462884214D0634F3868002810D0F06ACA
:102E500002280DD368A000F019FA5F483C600460B6
:102E60003D4801780020FEF769FC47480471046082
:102E70003D48FDF797FAFEF77FFEFEF773FDFEF77C
:102E80000FFE6048604E0168B14203D10121A96183
:102E90000471046044485D490068884213D95C4865
:102EA000006800280FD05BA000F0F0F92C616C6185
:102EB000EC60244A20321068510688431060304686
:102EC000FDF77CFDEC61454801681F48814205D350
:102ED0004F480068002801D021480470314E5B49FA
:102EE000306888421ED94A48006800281AD058A085
:102EF00000F0CCF918480078012801D00D48C462D0
:102F00000120286168610B4940314860E860A86190
:102F100030490C6030490C6013490C700D49087041
:102F20003460AFE0AFE00000230100202401002066
:102F3000EE000020404200504272616B650A0000C2
:102F4000004000400000014020A10700A0860100D1
:102F5000400D0300EF000020D9000020E900002010
:102F6000E8000020EA000020EC0000200A55700A6A
:102F700000000000180100201C010020DC000020DF
:102F8000C800002022010020C0000020A80000206E
:102F9000ED00002080000020EB00002074000020E5
:102FA000D60600009000002098000020200100209C
:102FB000C0C62D0008010020D000002031313D2581
:102FC000640A000032323D25640A0000E0930400E8
:102FD00008520000E0000020E4000020A0000020D3
:102FE00007A50700526573657420446F75626C65B0
:102FF0000A000000D80000202A4572726F722A0A67
:1030000000000000B000002050C30000804F1200FC
:103010007C00002020202020202020202020202094
:1030200020202020202020202020202020202020A0
:10303000202020202A2A203234732020506F7765E8
:1030400072206F6666202A2A0A000000F0490200FA
:103050002020202020202020202020202020202070
:10306000202A2A203373204C4544204F46462061B5
:103070006E642042757A7A6572204F4646202A2A6D
:103080000A0000003471F8BD10B5094C2046FDF768
:10309000DDFA0121002209062046FDF747FC05481C
:1030A000FEF79CFFE1210903034800F007F810BD7B
:1030B000103D80571000000400000540F0B50446A4
:1030C0001C480D460FC885B06E460FC61A484169A8
:1030D00080698A010321960F0005070F00202063F5
:1030E000E160A06815490840A060012E02D1FDF7FB
:1030F0008FFB0190002D1BD0B10068464058791C11
:10310000FDF71EF80646690840182946FDF718F82D
:103110000B49801E884207D9E90070182946FDF73F
:103120000FF80009801E02E00321090708436062CE
:1031300005B0F0BD383D0000000200500FFFF0FF69
:10314000FFFF00001C48012101601C4A6420106040
:103150001B4A002010701B4A10701B4A11701B4A3A
:1031600010701B4A10701B4A10601B4A10601B4AEB
:1031700010601B4A106010711A4A106010711A4AD0
:1031800010701A4A11701A4A10701A4A10701A4AAE
:1031900010701A4A10701A4A10701A4A11701B4A9D
:1031A00019491160FF211A4A5F311160194A49001B
:1031B00011601949087070477C000020DC00002075
:1031C00020010020EE000020D9000020EF000020A8
:1031D000EC0000209800002090000020A0000020BB
:1031E000C8000020D0000020ED00002022010020B7
:1031F0002301002024010020E8000020E900002035
:10320000EA00002021010020320200006C000020B2
:1032100070000020140100201801002010B5592171
:1032200016231148882202E00160036002600468EE
:10323000012CF9D12B2464062046FDF707FA002261
:1032400003212046FDF772FB012200230321900297
:1032500000F00EF80548016840221143016001208A
:10326000FEF7F2FB10BD00000001005000400040DE
:1032700010B5054C616051000143180101438020E5
:103280000143216010BD0000004000400FB410B5A4
:1032900003A9044B044A029800F03CF810BC08BC97
:1032A00004B01847B93700000C000020F8B504142A
:1032B0008BB2264682B25E430D1410463714584333
:1032C000360480190021794116466E4337143604BE
:1032D0008019794126466E438919F8BD30B4744689
:1032E000641E2578641CAB4200D21D46635D5B0002
:1032F000E31830BC184702E008C8121F08C1002AB2
:10330000FAD170477047002001E001C1121F002A66
:10331000FBD17047FFB58FB00F460446002606E08C
:1033200025280AD0129A11999047641C761C20789F
:103330000028F5D1304613B0F0BD002501219F4A89
:10334000009500E00543641C23780846203B984024
:103350001042F7D120782E2815D10420054360783B
:10336000641C2A280AD101CF641C00900BE000994C
:103370000A22514330394018641C009020780146DD
:1033800030390929F3D920786C280ED004DC4C2878
:1033900013D06A2812D104E074280ED07A280DD1F7
:1033A0000BE001204005054307E001210905627893
:1033B0000D43824201D16D18641C641C2078692879
:1033C00049D008DC0028B5D058286CD063280FD02D
:1033D000642808D13FE070286AD0732811D075287E
:1033E0005FD078285FD0129A11999047761CE3E05D
:1033F0003878694608720020487202A801900120BE
:1034000003E0386801900020C0433F1D69070CD5D8
:10341000002500E06D1C00998D420FDA8542F9DB32
:103420000199495D0029F5D108E0002500E06D1CF7
:103430008542FCDB0199495D0029F8D1761907E046
:10344000019801990078491C0191129A11999047AD
:103450006D1EF5D2B0E00A20029000216802400FF4
:10346000039102280CD001CFC117844600290DDA40
:1034700060460A4640420021914184462D2008E0E2
:10348000FF1DFF08FF0003CF8446EFE7280504D5A2
:103490002B206A46107401203DE0E8073BD0202035
:1034A000F7E70A2000E0102000210391029007E0D6
:1034B0001020029000210420054308200391009071
:1034C0006802400F022811D001CF0021844600205D
:1034D0000D90280720D52078864670280CD0029AB7
:1034E0001020039B42401A430CD015E0FF1DFF083B
:1034F000FF0003CF8446EAE740206A4610740120AB
:103500000D900CE06046084306D030206A461074E7
:103510007046507402200D902078582804D028A0BE
:1035200001900DA80E900DE02AA0F9E76046039BDC
:10353000029AFCF759FE019B84469B5C0E9A521E30
:103540000E92137060460843F0D10E9805A9081A30
:1035500020300190680701D4012000900099019863
:10356000814201DD081A00E000200025009006E0FD
:1035700004A8129A405D119990476D1C761C0D9815
:103580008542F5DB04E0129A302011999047761CB1
:103590000099481E00900029F5DC08E00E980E996D
:1035A0000078491C0E91129A11999047761C019946
:1035B000481E01900029F1DC641CB8E609280100CE
:1035C0003031323334353637383961626364656699
:1035D000000000003031323334353637383941425B
:1035E000434445460000000010B51E4C00232370E4
:1035F0006370A370E37023676365E3656367E361EA
:10360000A3652365A36718482362006860621749B1
:103610002A2008606382A382E38216492383144828
:10362000086018310860144848390860183108608B
:1036300023816381E3812382104823710360104852
:1036400023660360FEF7F6FAFEF708FBFEF71AFBA7
:10365000FEF72CFB0B4803602367A38100F0C0FA40
:1036600010BD00004C01002074000020600000200C
:103670000000E3089402002000009605500000209E
:10368000DC000020E000002030B50C4A0124136F5C
:103690005B1C13670A2B07D1094BFF251B68F53507
:1036A000AB4201D2D47002E0D378012B03D1147164
:1036B000054C044B2360D081118230BD4C010020A9
:1036C000E0000020A2080000DC00002030B50C4A19
:1036D0000124136F5B1C13670A2B07D1094B4B2581
:1036E0001B68ED00AB4201D2947002E09378012B8D
:1036F00003D11471054C044B2360D081118230BD7D
:103700004C010020E0000020A2080000DC000020A6
:1037100070B50F4B0F491A6F01250968052A05D9A5
:103720000D4E1C893668A41B282C03DCFF24F534BD
:10373000A14200D91D70521C1A671C78074A012C3F
:1037400001D1074C1460188159811088988170BD8F
:103750004C010020FC000020E0000020DC000020E4
:10376000A208000070B50F4B0F491A6F01250968B8
:10377000052A05D90D4E1C893668A41B192C03DCBB
:10378000FF24F534A14200D95D70521C1A675C78A1
:10379000074A012C01D1074C146018815981108807
:1037A000988170BD4C010020FC000020E00000204A
:1037B000DC000020A208000000B50346FEF74AFC2A
:1037C000184600BD654C59221620882102E022606F
:1037D000206021602368012BF9D1FEF7EBFB002567
:1037E0002560FFF7AFFCFDF7E1FCFFF74DFCFEF7AE
:1037F0005DFAFEF747FAFEF731FAFEF71BFAFEF71D
:103800000DFBFDF7FDFEFCF79FFD5548016855A037
:10381000FFF73CFD57A0FFF739FD5BA0FFF736FD32
:103820005DA0FFF733FD5FA0FFF730FD5FA0FFF75E
:103830002DFD61A0FFF72AFD0122114662A0FFF7CE
:1038400025FD664CE06864214843FCF779FC64215F
:103850004843E168FCF774FC014661A0FFF716FDE0
:1038600065A168A0FFF712FD42A0FFF70FFD694CAC
:1038700069A0E268A168FFF709FDFDF7F9FD6A4A52
:103880009068002805D000205168002903D000214D
:1038900002E00120F8E7022141181068002801D059
:1038A000002000E00420091860A0FFF7EFFC0126CB
:1038B0006348402101608021016005200007816B81
:1038C000604A11408163584940318D60CD60826B00
:1038D0005D4B1A4082630D614D61826BFF230233A1
:1038E0009A4382630D604D60FEF7E8FCFDF79CF89B
:1038F00000210120FEF7B2F801210220FEF7AEF808
:1039000001210420FEF7AAF800210820FEF7A6F8FE
:1039100003210920FEF7A2F84CA02169FFF7B6FCAD
:10392000FFF77CFC667026702078002803D0607852
:10393000002800D1257020780128F5D06068012882
:1039400002D0FFF751FEEFE7A078012802D000F087
:10395000EDF8E9E700F082F8E6E70000000100502A
:10396000000000200A0A4350552020256420487A90
:103970000A0000002A2A2A2A2A2A2A2A2A2A2A2A45
:103980002A2A2A2A2A0A00002A2A205054412D587D
:103990003530462000000000506F6C657320325FA8
:1039A0005F0000005657550A000000002A2A2049EF
:1039B000443A5965732C00002042757A7A65723A50
:1039C0005965730A000000002A2A20462F57203D1F
:1039D000205625642E30256441200A000000044052
:1039E0002A2A204D61782044757479203D20256471
:1039F0002525200A000000003230323530353136BE
:103A0000000000002A2A2053564E203D2025732016
:103A100020200A0064000020312F34203D2025643E
:103A20002C2025640A0000000042005048616C6CA4
:103A30002053656E736F723D202564200A000000DC
:103A400000E100E0FBFBFFFFEFEFFFFF426174745A
:103A5000657279203D25640A00000000F8B5294808
:103A6000017803291BD30025274C0570E06D2749F9
:103A7000401CE0650F78264A2649274E12683368B5
:103A80000968002F0CD0012829D0032807D189B25A
:103A900090B2FFF7F9FD2079002800D1E565F8BD67
:103AA000012806D00328FAD189B290B2FFF730FE80
:103AB000F4E71046E364FCF777FB1021FCF768FBA2
:103AC000FCF779FBFEF714FB0146A06413A0FFF797
:103AD000DDFBA06C0FE0316808183060F8BD1046BF
:103AE000E364FCF761FB1021FCF752FBFCF763FB7E
:103AF000FEF7CAFAA064E16C42180B498A42EAD385
:103B0000F8BD0000250100204C010020D900002054
:103B1000E0000020FC000020DC00002074656D70D7
:103B200070776D3D25640A00A3080000F8B52548AC
:103B3000017803291BD30025234C0570216D2348F0
:103B4000491C216507782248224A234E00683368C1
:103B50001268002F0CD0012922D0032907D191B27D
:103B600080B2FFF7B3FD2079002800D12565F8BDAC
:103B7000012906D00329FAD191B280B2FFF7F2FDF4
:103B8000F4E7E364FCF710FB1021FCF701FBFCF702
:103B900012FBFEF715FB0DE0316808183060F8BD28
:103BA000E364FCF701FB1021FCF7F2FAFCF703FBDE
:103BB000FEF7D2FAA064E16C421808498A42EBD3BE
:103BC000F8BD0000250100204C010020D900002094
:103BD000E0000020FC000020DC000020A308000022
:103BE00070B51B481B4C027800201B4D1B49012A55
:103BF00018D08A6D002A14D1194A08715061194EE3
:103C00009660546010610863134618330864586165
:103C10009E605C6018614863134B4864136088675A
:103C2000287070BD4A6D002AFBD10D4A08713032F0
:103C300050610E4B94605360106188621832886343
:103C40005061946053601061C862C8634867E7E7D9
:103C5000660000207A140000250100204C0100209D
:103C600064020020CC0C000000009605B81E000085
:103C700010B50446016810A0FFF708FB11A06168A9
:103C8000FFF704FB12A0A168FFF700FB13A0E16897
:103C9000FFF7FCFA14A02169FFF7F8FA15A0616993
:103CA000FFF7F4FA16A0A169FFF7F0FA17A0E1698F
:103CB000FFF7ECFA10BD0000723020203D20307874
:103CC00025780A00723120203D20307825780A00BE
:103CD000723220203D20307825780A00723320206F
:103CE0003D20307825780A00723132203D2030782E
:103CF00025780A006C7220203D20307825780A0053
:103D0000706320203D20307825780A00707372207F
:103D10003D20307825780A00001BB7000000000025
:103D200080F0FA02102700000000000000000000F0
:103D30000000000000805101001BB70000000000DF
:103D40000000000000805101001BB70000000000CF
:103D50000000000000805101001BB70000000000BF
:103D60000000000000805101001BB7001027000078
:103D7000000000000080510100000000040000006D
:103D80000000000000000000010000000000000032
:103D90000000000000000000020000000000000021
:103DA0000000000000000000000000000000000013
:103DB000000000000000000003000000001BB7002E
:103DC00010270000000000000080510100000000EA
:103DD00004000000000000000000000001000000DE
:103DE00000000000000000000000000002000000D1
:103DF00000000000000000000000000000000000C3
:103E000000000000000000000000000003000000AF
:103E1000303E000000000020C8010000F632000023
:103E2000F83F0000C8010020000300000633000036
:103E300080F0FA023200000080F0FA020000000078
:103E40000000000000000000000000000000000072
:103E50000000000100000000000000000000000061
:103E60000000000000000000000000000000000052
:103E70000000000000000000000000000000000042
:103E80000000000000000000000000000000000032
:103E90000000000000010000000000000000000021
:103EA0000000000000000000000000000000000012
:103EB0000000000000000000000000000000000002
:103EC00000000000000000000000000000000000F2
:103ED00000000000000000000000000000000000E2
:103EE00000000000000000000000000000000000D2
:103EF00000000000000000000000000000000000C2
:103F000000000000000000000000000000000000B1
:103F100000000000000000000000000000000000A1
:103F20000000000000000000000000000000000091
:103F30000000000000000000000000000000000081
:103F40000000000000000000000000000000000071
:103F50000000000000000000000000000000000061
:103F60000000000000000000000000000000000051
:103F70000000000000000000000000000000000041
:103F80000000000000000000000000000000000031
:103F90000000000000000000000000000000000021
:103FA0000000000000000000000000000000000011
:103FB0000000000000000000000000000000000001
:103FC00000000000000000000000000000000000F1
:103FD00000000000000000000000000000000000E1
:103FE00000000000000000000000000000000000D1
:083FF0000000000000000000C9
:04000005000000F502
:00000001FF
