:020000040000FA
:10000000700E0020F500000015010000D90000006E
:1000100000000000000000000000000000000000E0
:1000200000000000000000000000000019010000B6
:1000300000000000000000001B0100001D01000086
:100040001F0100001F0100001D0D00001F01000026
:100050001D0F0000711300001F0100001F010000B0
:10006000F9230000652800001F0100001F010000A7
:100070001F0100001F0100001F0100001F01000000
:100080001F0100001F0100001F0100001F010000F0
:100090001F0100001F0100001F0100001F010000E0
:1000A0001F0100001F0100001F0100001F010000D0
:1000B0001F0100001F0100001F0100001F010000C0
:1000C0000448854600F0F4F900480047E93C000088
:1000D000C046C046700E002004207146084202D07F
:1000E000EFF3098001E0EFF308807146004A104702
:1000F0001D1800000A480B4901600B4901600B49BB
:1001000001600B4A0B491160002101600A488047D9
:100110000A480047FEE7FEE7FEE7FEE7FEE7FEE7E8
:100120000001005059000000160000008800000087
:1001300024000050A55A000075230000C1000000F3
:1001400030B50B46014600202022012409E00D466F
:10015000D5409D4205D31D469540491B25469540F7
:1001600040191546521E002DF1DC30BD03460B43ED
:100170009B0703D009E008C9121F08C0042AFAD25D
:1001800003E00B780370401C491C521EF9D27047E3
:10019000F8B502464A40D40F42004B0052085B08B3
:1001A0009A4202D20246084611464A0023D0C30DA5
:1001B0004A00DDB2120EAD1A202D35DA49020126B1
:1001C000490AF6058A19002C00D0524220214F1B03
:1001D0001146B9402A411018C20D9A4221D0002C74
:1001E00017D0012D08DCDA05801AD20F8019D2074A
:1001F000DBB200F023F9F8BDDA05801A01234000D4
:100200001B06C01880185A428018CA0F10434900B4
:1002100007E04908C2071143DA05801A801940082F
:10022000801800F003F9F8BD61000122511A001B8B
:10023000F7E70122D2075140AAE70122D207504036
:10024000A6E7024670B54A40D30FDB0740002DD029
:100250004A002AD0010E140E000212020919400AA7
:10026000520A8418E50104465443000A120A2E0477
:100270005043A4194219200CC543AA18120C012599
:10028000AD03521C521912047F39240400D0521CB1
:10029000104301D44000491EC2B20C06C009201808
:1002A000401C4008802A02D003E0002070BD4008B6
:1002B0004000002900DA0020184370BD70B50246E6
:1002C0004A40D50F40004A00ED0740085208002878
:1002D00014D0002A12D0C40DD30D41020120C00554
:1002E0005202490A520AE41A091812187D3491423E
:1002F00001D3641C00E04900002C01DA002070BD2D
:100300000023914201D3891A034340084900002881
:10031000F7D100290AD0914202D10121C90705E095
:10032000914201D2012101E00121C943E005C01839
:10033000401900F07BF870BDC217C10F504010B5D6
:100340004018CA079623002100F078F810BD10B5B8
:1003500000229623114600F071F810BDC20F410033
:1003600040020123400ADB05D207090EC0187F298D
:1003700001DA00207047962903DC9623591AC840F9
:1003800001E096398840002AF4D04042704741008D
:1003900040020122400AD205090E80187F2901DAA5
:1003A00000207047962903DC9622511AC8407047F6
:1003B00096398840704700000122D207002800DBF0
:1003C000101A002900DB511A88427047F0B51FB49B
:1003D0000646002082B005464024019100901BE0B3
:1003E000019922460F46304600F084F8049A059B96
:1003F000801A994110D310461946224600F06AF837
:10040000361A8F410197224601200021009F00F0FB
:1004100061F838184D4100902046641E0028DFDC4A
:10042000019B00982946324607B0F0BD002904DA46
:10043000401C490001D140084000704770B40024BE
:10044000050C05D11024000402D1002921D011246B
:10045000050E01D100020834050F01D10001241D51
:10046000850F01D18000A41C002801DB4000641C22
:10047000002908D020252E1B0D46F540A14000D0B4
:1004800001212943084301061B1B000ADB1D02D57D
:10049000002070BC7047DB05181880180029F8DAB6
:1004A000401C4900F5D170BC400840007047000076
:1004B000064C0125064E05E0E36807CC2B430C3CB7
:1004C00098471034B442F7D3FFF7FEFD40430000D5
:1004D0006043000010B5202A04DB0146203A914019
:1004E000002010BD914020239C1A0346E34019438D
:1004F000904010BD10B5202A04DB0846203AD040B9
:10050000002110BD0B46D340D0402024A21A9140B8
:100510000843194610BD0000FF21F53110B54843CE
:100520000149FFF70DFE10BDFF0F000010B50B4C89
:10053000204600F07DF9032252040C21204600F0F1
:10054000E7FA074C7F230C220021204600F00AF82E
:10055000216A01221143216210BD00001CFE2356B6
:1005600000000E4030B50648046A064D2C400C438E
:1005700014430462416A090A09021943416230BD09
:1005800000000E40F3FBFFFFF8B58B4E8B4932782D
:10059000097800258A4200D075600278884F0121D1
:1005A000884C130003F05AF80FEFCDDAAEEF8F8FBF
:1005B00074AE744310093C2DEF007268521C7260D7
:1005C000642A19D3756016E07268521C726061610A
:1005D000A161C82A10D97C4AE12311717B4A397183
:1005E0001268DB009A4202D9A5610D2107E0784B21
:1005F000D218462A01D20170D2E0A5610E21017005
:10060000CDE07068401C70602828F5D30246283A77
:10061000282A01D8A161C3E05028EDD9656176E0B0
:100620007268521C7260282AE6D9A16149E070689C
:10063000401C7060342803D221616561A5610DE022
:100640000246343A482A02D22561616105E0024639
:100650007C3A342A06D221616561A161F62806D36D
:1006600071609DE00246B03A462AEDD3F6E7C8280D
:100670000DD1B078401CC1B2B17056A002F0DEFFBF
:10068000B0783C2803D358A002F0D8FFE56187E09A
:100690007268521C7260102A39D31346103B102B1B
:1006A00005D3103B102B09D3103B102B02D26161F4
:1006B000A16104E011464039102900D2A561502AF9
:1006C0006ED305706CE07068401C7060642810D2B6
:1006D00055480068012802D07078012860D17170F7
:1006E0003868142148435149884259D265612561CF
:1006F00056E00246643A642A01D261612161C82849
:100700004DD84DE07068401C70600A2801D2A56188
:1007100046E002460A3A0A2A0ED30A3A0A2A05D3C2
:100720000A3A0A2A08D30A3A0A2A01D2A56105E040
:100730000246323A1E2A01D26161A16150282ED2AE
:100740002EE07068401C7060362802D26561A56199
:1007500001E06161A161672821D821E07068401C37
:10076000706014280CD30246153A512A11D3523A1C
:10077000132A05D3143A512A0BD3523A7B2A03D2B7
:100780006561A56107E00FE00246FF3A4A3A512A47
:1007900001D26561A161FF219B31884200D975605A
:1007A000064800783070F8BD6161E1602161A161A7
:1007B000A1616161F3E70000140000200001002046
:1007C000AC00002000420050A4000020880000205F
:1007D0003EF9FFFF09096D753842757A4379636CFC
:1007E00065203D2025640A00202020202020202094
:1007F00020202020202020202020202020202020F9
:1008000020202020202020202A2A2036307320205B
:100810004944204572726F7220506F776572206F65
:100820006666202A2A0A00007C000020404B4C000B
:10083000810F8A00044951184A68C306DB0E012063
:10084000984002434A60704700020050F0B507002C
:100850000C46564885B054490162554E016813D084
:10086000042211430160102000F0BAF90120C004F5
:1008700002905048042503904F4850492018884260
:100880000DD8002004901CE00122114301601046A5
:1008900000F0A6F90020022503960290ECE74848F4
:1008A00048492018884203D801206400049008E0D9
:1008B0004548454920184942884249D80320A400A8
:1008C00004900026F64300200090019021E0294684
:1008D0000398FFF735FC3D493D4A4118914217D234
:1008E0000222354B014651435B1CCF185B429F42AD
:1008F0000AD8A14201D90B1B00E0631AB34203D20C
:100900001E000095019203D03249521C8A42E8D958
:100910006D1C212DDBD904980299800308430099AE
:10092000012249029202891A08430199891E08434B
:100930001E490862042000F053F904990098491CEC
:1009400041430398FFF7FCFB0199484305B0F0BD14
:10095000002F0FD0204915480162042000F040F913
:100960001EA0006800901148016A0013014203D0E4
:100970000020EBE71A49EEE7080300D50D4E880387
:1009800001D53046E2E70804800F6A46105CCA05CC
:100990008904C90E891CD20D4143B008921C5043F2
:1009A000FFF7CEFB8000D1E70000010000020050FD
:1009B000001BB70000805101FF1E0AFAFFE0F50599
:1009C0007F0F05FD7FF0FA02C08782FEFF95E7FFEB
:1009D000BF77CC00010200006FD6000001020204C4
:1009E0002EC2000002490A6802430A6070470000F4
:1009F0000002005008B511A0006800901048016A7C
:100A00000013014201D0002008BD080301D50D48A4
:100A100000E00D488A03F7D40A04920F6B469B5CF2
:100A2000CA058904D20DC90E891C8008921C59433D
:100A30005043FFF785FB800008BD0000010202045F
:100A40000002005000805101001BB700F8B51B4C9C
:100A50000546E668102006401948854202D8401035
:100A6000854200D2054620680427384320601020C4
:100A700000F0B6F82069072108432061A069000949
:100A80000001A06120682946C00704D00020FFF7BC
:100A9000DDFE054607E00120C004FFF7D7FEE6684B
:100AA0000546102006400021022000F00BF8002E21
:100AB00002D12068B84320602846F8BD00020050EB
:100AC00080F0FA02F3B5114C81B0E5680F461026AC
:100AD0002068354030432060304600F081F82069BE
:100AE000072108432061A069000900013843A06183
:100AF0002069C1080198C9000143216101F0F2FB9E
:100B0000002D02D12068B0432060FEBD00020050DD
:100B100070B5430E5B070DD083009B0F0F4C9B00FD
:100B20001B191C6805016D0FC601F60EB540AC43DC
:100B30000C431C60830A1906090E0ED00103074CF2
:100B4000890F8900083409190C68DBB28005DB4382
:100B5000C00E8340234013430B6070BD1002005051
:100B600070B50D4A0B4905260C4B156800248842C8
:100B700001D9401A01E0014600200A466A435A6141
:100B80009C611E611A69D203FCD51C610028EED15C
:100B900070BD0000B81E05000400002000E000E069
:100BA00070B50D4A0B4905260C4B15680024884288
:100BB00001D9401A01E0014600200A466A435A6101
:100BC0009C611E611A69D203FCD51C610028EED11C
:100BD00070BD0000B81E05000400002000E000E029
:100BE00010B504460749084B05E00A46491E002A8D
:100BF00001DC002010BDDA6820469043F5D10120C9
:100C000010BD0000804F120000020050F8B53648B9
:100C1000012501680024354E354800290BD0317874
:100C2000344A354F354E002928D0022925D1836B0F
:100C3000002B29D153E0816B314F002906D1C16BC4
:100C4000002903D0347011E0C46212E0816B0029E6
:100C500004D0C16B002901D035700AE0816B0029F6
:100C600009D1C16B002906D102213170F97801291F
:100C7000EAD002F079FE3078F870F8BD836B002B73
:100C800002D1C06B0028F8D11570002000F078FE6A
:100C90003C6031680120800781433160144F403F40
:100CA000BC611848FFF75CFFFC601748FFF758FF6E
:100CB0001648FFF755FFBD611548FFF751FFBC61AE
:100CC0001448FFF74DFFFD601348FFF749FFBD6172
:100CD000306879050843306002F078FCF8BDC06BDD
:100CE0000028D1D1F8BD0000F4000020ED00002064
:100CF000404200501C010020004000402000014004
:100D00001400002008CF0000400D030088FB030002
:100D1000C8A9010050C30000289A0100F8B53F4956
:100D2000086A400779D53E480068012875D1012539
:100D300002023C48026052000260042008623A4C01
:100D4000A06A3A4F3A4E01280CD13078002809D1D8
:100D500038A002F073FC38480078B8733748007840
:100D6000F8733570A06A002857D13078012854D123
:100D70000220307032A002F061FC3348017800207C
:100D800000F0FEFD314800240571314832490470FD
:100D900030480068086031480168491C01603048EB
:100DA0000178012900D00470032030701E484030C3
:100DB00045601D484038C56004618461294D29683B
:100DC0004005814329602848FFF7EAFE2868690644
:100DD0000843286025480078012808D124487D214F
:100DE0000068C900884202D90F4840304460214859
:100DF00004710460204804602048046003203070BF
:100E00000D48B97B01700D48F97B0170FF21054841
:100E100001318038016049000160F8BDC0400050D8
:100E20007C00002080E100E04042005024000020CF
:100E300034010020480A000038010020370100205A
:100E400020204C0A00000000ED000020DC00002003
:100E50003601002010010020300100208C0000200D
:100E60000001002020000140B01E0400FF0000200F
:100E700088000020D4000020F4000020F8000020AA
:100E800010B5044601F09EF80C4908680122104391
:100E900008602220C8604C600A61BFF36F8F086948
:100EA0000028FCD10868400603D50868402210439A
:100EB000086003490020086010BD000000C0005019
:100EC0000001005010B50E4908682C229043012300
:100ED000184308600B4804780B48012C05D00B4CD4
:100EE000C463C07E002802D004E0094CF8E70A4C35
:100EF00008482060086890431843086010BD00004F
:100F0000004000407A0000203C010020CDCCCC3DC8
:100F100000002041A2080000F0000020F8B5F948C8
:100F2000016AC90701D0012108E0016A890701D5DA
:100F3000022103E0016A490701D504210162F34956
:100F4000F1480978F44B8C46F14940790D78F14924
:100F5000142209681B684A43F04C03280AD002286F
:100F60001FD0062834D0042849D005285ED0012897
:100F700074D08FE0A668002E05D000266768002F89
:100F800003D0002702E00126F8E70227F7192668B8
:100F9000002E01D0002600E00426BE19012E74D0D8
:100FA0009AE0A668002E05D000266768002F03D0BF
:100FB000002702E00126F8E70227F7192668002E2D
:100FC00001D0002600E00426BE19032E5DD09AE071
:100FD000A668002E05D000266768002F03D00027E2
:100FE00002E00126F8E70227F7192668002E01D053
:100FF000002600E00426BE19022E46D09AE0A6681C
:10100000002E05D000266768002F03D0002702E0DD
:101010000126F8E70227F7192668002E01D00026DE
:1010200000E00426BE19062E2FD09AE0A668002EF6
:1010300005D000266768002F03D0002702E00126B4
:10104000F8E70227F7192668002E01D0002600E0F5
:101050000426BE19042E18D09CE0FFE7A668002ED7
:1010600005D000266768002F03D0002702E0012684
:10107000F8E70227F7192668002E02D0002601E0C3
:1010800003E00426BE19052E0FD16646022E71D04C
:1010900001280AD003281FD0022834D0062849D0BE
:1010A00004285ED0052875D08EE0A068002805D001
:1010B00000206668002E03D0002602E00120F8E739
:1010C000022680192668002E01D0002600E00426A2
:1010D0008019032875D077E0A068002805D000208B
:1010E0006668002E03D0002602E00120F8E7022601
:1010F00080192668002E01D0002600E00426801901
:1011000002285ED060E0A068002805D00020666854
:10111000002E03D0002602E00120F8E70226801905
:101120002668002E01D0002600E00426801906283B
:1011300047D049E0A068002805D000206668002E4E
:1011400003D0002602E00120F8E702268019266875
:10115000002E01D0002600E004268019042830D09B
:1011600032E0A068002806D000206668002E04D077
:10117000002603E02BE00120F7E70226801926680D
:10118000002E02D0002601E004E004268019052884
:1011900017D019E0A068002805D000206668002E4E
:1011A00003D0002602E00120F8E702268019266815
:1011B000002E02D0002601E003E004268019012859
:1011C00002D16046002802D0002D15D020E0002D6D
:1011D0001ED153484C4E0571056035796D1C357133
:1011E0000125504E012B35713ED1642A3CD94E4A1F
:1011F000914239D2057137E0012B09D14A48814229
:1012000006D24A48824203D93F48C16B491CC16398
:101210003D48C06B192827D93D4E002D24D1012B04
:1012200022D143487D21C900824211D91046FEF7E0
:1012300087FF01463FA002F001FA052030703348D5
:101240000178002000F09CFB3D49072008700BE06E
:1012500003203070324B012018711046FEF770FFEA
:10126000014638A002F0EAF9274D384E28790528C2
:1012700023D92C480168142041433548FEF760FF0C
:10128000344A254910600968334F002903D0327869
:10129000012A04D00BE000203860106007E001292B
:1012A00005D12E4948432E49FEF74AFF38600020F9
:1012B0001C49012208600A7128712A480078002818
:1012C00001D001280BD112480078002807D13078CE
:1012D000012804D10D480178012000F0D7FBA06857
:1012E000002805D000206168002903D0002102E019
:1012F0000120F8E7022141182068002834D000209E
:1013000033E000000040005024000020ED000020E9
:10131000FC000020BC0000207C00002000420050A7
:10132000D4000020CC000020D8C22D00B80B000053
:1013300070110100466F726365207825640A000011
:10134000000100207825640A00000000360100201A
:1013500000879303F8000020F4000020B20500008D
:101360001027000034010020042008186871F8BD1F
:1013700010B50B48016A090703D50821016209A0CD
:101380000AE0074940390A6A0A62016A01620448B0
:101390004030016A016208A002F050F910BD00005F
:1013A000C040005050332E3320494E54206F6363A9
:1013B00075727265642E0A00556E2D6578706563CE
:1013C00074656420696E74657272757074732E0A28
:1013D0000000000010B58369140E8C402343836124
:1013E000C3691202120A8A401343C36110BD000090
:1013F000F8B597484168FF22120411434160052463
:101400002407606B934908406063606B5F21084369
:101410006063E06B90490840E063E06B02210843A1
:10142000E0638B480322803000F030F9E06BFF214D
:1014300002318843E063E06BE06385480122114696
:10144000803000F023F9854F01253D62A06B84496F
:101450000840A063A06BA0637D480022402140307B
:1014600000F014F97A4800228021403000F00EF993
:10147000E06B7C490840E063E06B0321090308430B
:10148000E063734802221021803000F0FFF87048BA
:1014900002222021803000F0F9F8206B72490840C8
:1014A0002063206B20636A4E0022403E01213046BB
:1014B00000F0ECF86D4A00213046FFF78BFF002268
:1014C0000221304600F0E2F8684A01213046FFF779
:1014D00081FF00220421304600F0D8F8634A02213F
:1014E0003046FFF777FF5D492820C03908607069F2
:1014F00002210843706170690843706170690421BA
:1015000008437061084600F04FFBA06B5849084043
:10151000A063A06BA0634E4801220221403000F07E
:10152000B5F84B4801220821403000F0AFF8484898
:1015300001222021403000F0A9F800207860F860F6
:101540007861206B4B4908402063206B20634A4838
:101550000168414A114001600168016001220821CF
:10156000304600F093F83D48403845610122102193
:10157000304600F08BF839484038056101222021BF
:10158000304600F083F83548403845613048012244
:101590000221C03000F07AF8304840304560E06BFE
:1015A00036490840E063E06BE063294801220821E6
:1015B000803000F06BF80020F86202462448402199
:1015C000803000F063F8224800228021803000F053
:1015D0005DF8E06B2A490840E063E06B04210843B2
:1015E000E0631B480022803000F050F818481F4A82
:1015F00002218030FFF7EEFE022000F0D5FA1749F5
:101600002820C0390860124880304069042108430E
:101610000F4980314861206B1A4908402063206BD4
:10162000206301224021304600F030F80B4840385A
:101630008561206B144908402063206B20630122E0
:101640008021304600F022F804484038C561F8BDDA
:1016500040400050A0A0FFFFFDFDFFFF40420050B2
:101660003F3FFFFFCFCFFFFFF8F8FFFC0100010075
:10167000D5D5FFFFC7C7FFFF400000503737FFFF3A
:10168000FBFBFFFFBFBFFFFF7F7FFFFFF0B5002326
:1016900001273C469C400C4208D005685C000326AC
:1016A000A640B5431646A640354305605B1C082B93
:1016B000EFD3F0BDF8B500264D4801220263016A60
:1016C000D30219430162016BC907FCD001210163F8
:1016D00000244748A10008180068002C85B20AD0F1
:1016E000012C17D0062C54D0032C24D0052C24D048
:1016F000022C25D04DE03F487D2105603E48C900C1
:101700006843FEF71DFD3D4908603D480168A94258
:1017100014D33EE02846FEF7FFFE3A4A116888429D
:1017200002D9431A022B04D8814232D9091A02295C
:101730002FD910602DE0344800E03448056028E0DF
:10174000334F7878002831D0324F012081007A5809
:10175000C9198039401CC0B2CA671E28F6D3284672
:10176000FEF7DAFE7D21C9004843BE21FEF7E8FC02
:10177000786700208100C9194968401C8E19C0B2E1
:101780001E28F7D31E213046FEF7DAFC22498C30A2
:101790000860641C082C9CD31548016BC907FCD059
:1017A000016A0122D20291430162F8BD2846FEF788
:1017B000B3FE7D21C9004843BE21FEF7C1FC0146AE
:1017C0003878144A8300401CC0B2D15038701E28AB
:1017D00001D1012078702846FEF79EFE7D21C900C8
:1017E0004843BE21FEF7ACFC0B494630D0E7000071
:1017F00000000E4010010020697D0000180100204B
:10180000140100200C010020080100200401002028
:1018100010000020640B002088000020044603A074
:1018200001F00CFF204602F0BBFCFEE7496E2048A9
:10183000617264204661756C742048616E646C65E9
:10184000720A000010B5074C2046FEF7F1FF032195
:10185000002209062046FFF75BF9034800F0A4FBCD
:1018600010BD00000800004008000004F8B5012782
:1018700000242F4E012803D07462B462F770F8BDC3
:10188000706A401C7062C82845D2F178012901D1E4
:1018900028494C603228B06A01D1401CB06205284A
:1018A0003ED10A20B0622348F47080388461224D12
:1018B00029684005814329602048FFF771F92868AD
:1018C0006906084328601E48FFF76AF919488038FE
:1018D00087611CA001F0B2FE1F20000300F036FB60
:1018E0001D4DA8420CD11DA001F0A8FE1F20290902
:1018F000000300F077FB1D4807700E4844600FE0BE
:101900001BA001F09BFE1F202946000300F06AFB8C
:101910001648047004E0C938C72801D2054847605A
:10192000FF21706A91318842A9D97462F8BD000024
:10193000240000208042005020000140E093040079
:1019400050C300004368616E67652053706565642D
:10195000204D6F64650A0000A0A0A0A02A20536C4F
:101960006F77204D6F6465202A0A0000FF00002079
:101970002A2046617374204D6F6465202A0A000096
:10198000F8B5374A0024D4605461546005231B071E
:10199000996B344F394099639460996B324E314062
:1019A00099631461996BFF250235A943996314600B
:1019B000002854D100F044FB2C49102008602C482A
:1019C00004602C48046005200007816BB3101940A7
:1019D000816323498C60826B33461A4082630C61B9
:1019E000826B2B469A4382630C60E120234980007E
:1019F000214B05260F6803E0884201D9401A03E015
:101A0000014600200D467D435D619C611E611A699F
:101A1000D203FCD51C610028EED105252D07A86B4B
:101A2000002813D016A001F009FEA86B0D4908404C
:101A3000A8630B488460A96B0B4A1140A963046139
:101A4000AA6BFF2102318A43AA6304600449012082
:101A5000C860486148600B4908710B480470F8BDC4
:101A600040420050FBFBFFFFEFEFFFFF80E100E093
:101A7000F4000020F800002000E000E00400002056
:101A8000265F0A00DC00002036010020F0B53F4C44
:101A90000023E3606361636005221207956B3C4E8F
:101AA00035409563A360956B3A4E3540956323614D
:101AB000956BFF260236B54395632360012844D118
:101AC000012942D03448006801283ED133480078CB
:101AD00001283AD13248334B0068984235D22B4D19
:101AE000403DA868002805D000206B68002B03D07B
:101AF000002302E00120F8E70223C3182868002829
:101B000001D0002000E004201F1801200425060257
:101B10003B0001F0A3FD071A0521113538321A00E8
:101B2000002904D1916B4908490031430BE0916BC6
:101B3000102399431B0215E0002907D1916B012363
:101B4000A9439B02194391636061F0BD916B10231F
:101B500099431B0219430DE0002907D1916B012322
:101B6000A9439B02194391636060F0BD916B4908E2
:101B7000490031439163E060F0BD0029D7D0D1E73F
:101B80000029E3D0DAE70029F0D0E7E7404200502F
:101B9000FBFBFFFFEFEFFFFF7C0000203601002082
:101BA000BC000020C0C62D00C106C90E012088401F
:101BB000014908607047000000E100E08307FF2250
:101BC000DB0E9A408907090E994000280BDA0007BE
:101BD000000F0838830808489B001818C36993430E
:101BE0000B43C3617047830804489B0018180368BF
:101BF00093430B430360704700ED00E000E400E016
:101C00000548002141618161044A8260044AC26042
:101C10000161044901607047540C00200AD7A33DBC
:101C2000CDCC4C3D98080000054800214161816100
:101C3000044A8260044AC26001610449016070473D
:101C4000380C00200AD7A33DCDCC4C3D98080000AD
:101C50000548002141618161044A8260044AC260F2
:101C600001610449016070471C0C00200AD7A33DA4
:101C7000CDCC4C3D910500000548002141618161BA
:101C8000044A8260044AC2600161044901607047ED
:101C9000000C00200AD7A33DCDCC4C3D910500009F
:101CA000FFB5044649480E460FC899B0149311ABCE
:101CB00007C346490125FF27442210316846FEF735
:101CC00055FA4348159043490220434A30408C421C
:101CD00006D1516903221207824011401C3004E0F2
:101CE000D169302282401140001DC140022921D01B
:101CF000880011A9085816901B99FEF721FA179031
:101D00002946FEF71DFA01210906884217D83049F5
:101D1000411809020F0E032F00D202273946FEF7A1
:101D20000FFA01210904884209D8012800D080B2A5
:101D300015900AE000F0D6FA28480068DBE768064C
:101D4000050E112D01D21798DAE739461598694327
:101D500041431698FEF7F4F916907F1E1598F9B2D4
:101D6000401E87B2A8006A46155C22687008844647
:101D7000C000FF2383409A4381400A432260616888
:101D8000B000072282409143854029436160A168E9
:101D900001226046920782409143A160A068F20050
:101DA000082191400843A0600C214E431C9834192F
:101DB000002805D0791C48436421FEF7C1F9401E74
:101DC0002061E76016981DB0F0BD0000EC420000F5
:101DD000FFFF00000000044000020050000000204F
:101DE000C26F0A43C2677047F8B5354C2046FEF70C
:101DF0001FFD344D2846FEF71BFD334E3046FEF7DF
:101E000017FD0321002209072046FEF781FE00226C
:101E100071072846FEF77CFE002230213046FEF78F
:101E200077FE2A4800F0C0F82848401C00F0BCF8B3
:101E3000274D05212846FFF7D3FF264E01213046C6
:101E4000FFF7CEFF244C254F00213A462846236851
:101E5000FFF726FF3A46022128462368FFF720FFB6
:101E60003A46002130462368FFF71AFF042128462E
:101E700000F058F80121284600F054F801213046BE
:101E800000F050F8E86864214843FEF759F901462C
:101E9000642213A001F0D2FBE86864214843FEF7F6
:101EA0004FF91449144C086064212160014613A0C5
:101EB00001F0C4FB16A0216801F0C0FBF8BD0000D2
:101EC0001400C0571500E0571600407614000004B7
:101ED0000000044000001440F000002088130000BF
:101EE000504D57434D52203D202564202F2025641E
:101EF0000A00000020010020240100206775333211
:101F00004D415850574D203D2025640A00000000E7
:101F1000677533324D494E50574D203D2025640A98
:101F20000000000070B500231A4601263546954092
:101F300034460D4202D0D500AC402343521C042A43
:101F4000F4D381681943816070BD000010B5044668
:101F500000F038F808490868012318430860002297
:101F6000CA604C600B61BFF36F8F08690028FCD119
:101F7000886802490A6010BD00C00050000100508E
:101F800010B50420FEF72EFD1020FEF729FE0021DB
:101F90000720FEF797FD0348FEF758FD1420FEF7D3
:101FA0001FFE10BD80F0FA020521020E090751182C
:101FB0008B680122824013438B608868904388605D
:101FC0007047000010B5592116230548882202E009
:101FD0000160036002600468012CF9D110BD0000AB
:101FE0000001005070B50D460446FEF749FFFFF7AB
:101FF000E9FF094A11680120014311602121D160E4
:10200000546095601061BFF36F8F10690028FCD198
:102010000249086070BD000000C00050000100507F
:1020200006498A691202FCD408600A2804D188692A
:102030000002FCD40D20086070470000000005403D
:102040000249086188620249086170470000044043
:1020500000001440F8B5244C05462068FEF76CF9E2
:102060002946FEF7E6F8214D21492865884204DA21
:102070002049884201D200202865A069FEF75CF95A
:102080002169FEF7DEF807466069FEF755F9E16859
:10209000FEF7D7F80646A068296D0091FEF7D1F843
:1020A0003146FEF7C6F83946FEF772F8064628664E
:1020B0006069A0610098FEF751F960613046FEF753
:1020C0004DF9FEF739F93F210906FEF761F831466F
:1020D000FEF772F9286E02D8FEF740F9F8BDFEF758
:1020E00056F9401CF8BD0000540C00203C010020B3
:1020F0000000F0410000F0C1F8B5244C054620680E
:10210000FEF71AF92946FEF794F8214D2149E864B3
:10211000884204DA2049884201D20020E864A0699C
:10212000FEF70AF92169FEF78CF807466069FEF7A9
:1021300003F9E168FEF785F80646A068E96C0091AE
:10214000FEF77FF83146FEF774F83946FEF720F8BF
:102150000646E8656069A0610098FEF7FFF86061D7
:102160003046FEF7FBF8FEF7E7F83F210906FEF7D9
:102170000FF83146FEF720F9E86D02D8FEF7EEF8C9
:10218000F8BDFEF704F9401CF8BD0000380C002033
:102190003C0100200000F0410000F0C1F8B5244CE3
:1021A00005462068FEF7C8F82946FEF742F8214D9B
:1021B0002149A865884204DA2049884201D20020DA
:1021C000A865A069FEF7B8F82169FEF73AF8074656
:1021D0006069FEF7B1F8E168FEF733F80646A068DB
:1021E000A96D0091FEF72DF83146FEF722F8394629
:1021F000FDF7CEFF0646A8666069A0610098FEF76D
:10220000ADF860613046FEF7A9F8FEF795F83F217A
:102210000906FDF7BDFF3146FEF7CEF8A86E02D8DD
:10222000FEF79CF8F8BDFEF7B2F8401CF8BD0000C0
:102230001C0C00203C0100200000F0410000F0C117
:10224000F8B5244C05462068FEF776F82946FDF7D8
:10225000F0FF214D21496865884204DA204988420F
:1022600001D200206865A069FEF766F82169FDF7D4
:10227000E8FF07466069FEF75FF8E168FDF7E1FFF8
:102280000646A068696D0091FDF7DBFF3146FDF75A
:10229000D0FF3946FDF77CFF064668666069A0619D
:1022A0000098FEF75BF860613046FEF757F8FEF7DE
:1022B00043F83F210906FDF76BFF3146FEF77CF836
:1022C000686E02D8FEF74AF8F8BDFEF760F8401CC9
:1022D000F8BD0000000C00203C0100200000F0418F
:1022E0000000F0C1F8B51C4D286944071BA0006828
:1022F0000090296A640F2813014201D0002016E0E3
:10230000080301D5164800E016488A030FD40A04D2
:10231000920F6B469B5CCA058904D20DC90E891CBD
:102320008008921C59435043FDF70AFF80000E4E6F
:10233000022CB06002D00D49A0000858A969090715
:10234000090F491CFDF7FCFE094930604A1080184E
:10235000FDF7F6FE7060F8BD0002005001020204B5
:1023600000805101001BB70000000020484200001F
:1023700040420F007047000070B51B4C2046FEF72E
:1023800057FA1A4D2846FEF753FA07210022090290
:102390002046FEF7BDFB0721002209032846FEF771
:1023A000B7FB144C124820606F2060602068650302
:1023B000284320600820FFF7F7FB2068A60330437E
:1023C00020600B48FC302062FF20AF306062094C77
:1023D00020342068284320600920FFF7E5FB2068AF
:1023E0003043206070BD00000200805E0300C05ECC
:1023F0000300000800000140F8B5EC48FF22006827
:102400001932EB490123904202D918460B7000E0C3
:10241000002000240C70E7498B60E74DE74E296BE4
:10242000491C29633268521C3260EA69521CEA6115
:10243000642A03D3EC612A6A521C2A623768FF229D
:10244000F532974203D334606A69521C6A613229BB
:1024500016D3DB49DB4A0B701178491C11702C63D1
:102460006978884202D0AC61687009E0A9693229B4
:1024700003D2491CA961322902D3D34928700860CC
:10248000E86A401CE862D1480179012969D00460FA
:10249000CF480179012968D00460CE48017901292B
:1024A00067D00460CC480179012966D00460CB482C
:1024B0000179012965D00460C9480179012964D0F6
:1024C0000460C84800790128C64862D00460C64844
:1024D0000179012961D00460C4480179012960D0E3
:1024E0000460C34FC34E387901285ED03C60C248B7
:1024F000017901297FD00460C048C1490068C14BFF
:10250000884202D8197801290AD0AF21C90088422F
:1025100002D81978002903D0BB490978052909D9BF
:10252000B049142209685143B84A914202D931781E
:10253000002976D01978CB220129AA4909685ED0F2
:1025400014235943B14B99426CD23278022A3A682B
:1025500069D014235A43AE4B9A4201D932285ED334
:1025600093E00168491C016092E70168491C016021
:1025700093E70168491C016094E70168491C016008
:1025800095E70168491C016096E70168491C0160F4
:1025900097E70168491C016099E70168491C0160DF
:1025A0009AE70168491C01609BE738681421401CC8
:1025B000386048439749884299D397480078002863
:1025C00095D181480068012891D194480178052966
:1025D0008DD093490978012989D10521017031787D
:1025E0000020FFF7CDF98F49072008708EA001F079
:1025F00025F87CE7FFE70168491C01607CE71423AC
:102600005943824B994258D23278022A3A680BD009
:1026100014235A437E4B9A4216D9322814D21320DF
:1026200031E04BE049E021E014235A43804B9A42C9
:1026300006D87D22D200904204D27E48814201D940
:10264000662020E099201EE07B4B9A4204D97B4A09
:10265000914201D90A2016E06E4A914204D9684994
:10266000884201D215200EE034200CE014235A4396
:102670006F4B9A42E4D8FF22F532904202D26D4865
:102680008142DDD8C920286418E06B4B9A4209D9F1
:102690006A4A914206D90A20286469480168091DDE
:1026A00001600BE05B4A914205D9AF21C900884225
:1026B00001D26520E7E7CA20E5E72A64296CE86AC9
:1026C000884200D9EC625E495E480A68006882422E
:1026D00001D8104600E00860FFF7B2FC5A48C06815
:1026E00005273F0701280DD1B86B40050AD5317881
:1026F000012907D034480068012803D148480078F0
:10270000012805D02C725048406801280ED01BE0EB
:10271000287A401CC0B228720228F4D30020FFF7A8
:102720002FF9317849A000F089FFECE7B86BC005BC
:102730000AD53178012907D023480068012803D140
:1027400037480078012805D0EC713F4840690128DE
:102750000ED01BE0E879401CC0B2E8710228F4D327
:102760000020FFF70DF931783AA000F067FFECE7A1
:10277000B86BC0040AD53178012907D01248006827
:10278000012803D126480078012801D0AC71F8BD9A
:10279000A879401CC0B2A8710228F8D30020FFF726
:1027A000EFF831782DA000F049FFF8BD0C010020B2
:1027B0007900002000000140240000207400002067
:1027C000390100203A0100207C000020E4000020B4
:1027D000C4000020CC000020AC000020B400002089
:1027E000A4000020BC000020940000209C000020D9
:1027F000D4000020ED000020DC000020F4000020C8
:10280000CA0800007A0000202C010020E093040098
:1028100030750000400D030034010020FC00002052
:10282000360100200001002053746C0A00000000F3
:10283000204E000050C3000088130000A086010055
:10284000F000002020010020404200507E25640A54
:10285000000000002125640A000000004025640AF1
:1028600000000000F0B5FD488BB001218160FC48FC
:1028700002682C239A430A430260FA48417A491CB1
:1028800041728178491C8170FEF714FFF64FF74DB5
:1028900038680024002829D1F548FDF775FE39680D
:1028A000002923D10126F3483E6004600471F248F8
:1028B000F34B04600471F1480068984202D26E61E3
:1028C000AE6110E07D21C900884205D20A46194652
:1028D000ECA000F0B3FE06E0EFA000F0AFFEE5488C
:1028E0000671E5480671E248FDF74EFEDD4E707A4E
:1028F000C82830D17472386800283BD0DE481421D3
:1029000000684843E849FDF71BFCE849F36B0A6897
:10291000E74903AF09780690E648079309920891C2
:102920000378E5480268E5480168D44800680290E9
:102930000EC7E3480168E34800680090E24801914F
:102940000368E2480268E2480178E2A000F076FEFF
:10295000EEA000F073FEC448006800287ED0FEF7A9
:1029600055F9DA480768EA48002F0AD000790128AB
:1029700017D034E0E7A000F061FEBD480A210170E5
:10298000E9E7017901292AD1006814214843E34984
:10299000884206D9E2480068002802D1E1490120B6
:1029A0000870DB48142100684843DF49884216D983
:1029B00005200007816BDD4A11408163AB4940313E
:1029C0008C60826BDA4B1A4082630C61826BFF234E
:1029D00002339A4382630C60CC604C614C60D048F7
:1029E0000068012802D000287ED07BE301207073AC
:1029F000A148A24A04609F48A14904601068884227
:102A000001D2002F13D074637D23DB00984207D2DC
:102A1000C849142209685143C82901D20121B17261
:102A20007D21C90088422CD2002F04D029E0716B8F
:102A3000491C7163E8E7A6480078012821D1307B62
:102A400000281ED1BC48007800281AD1BBA000F095
:102A5000F5FD01203073AC61EC6000E08EE37F4F48
:102A60003868790688433860B648FEF799F83868C0
:102A7000790608433860B348FEF792F80120A86150
:102A8000E860706B3C2802D3F17A00290BD09049A2
:102A90000978012979D0794F79493A688A4201D970
:102AA000002822D0F0E1824804700120F072A6A034
:102AB00000F0C4FD05200007816BC905CB0F816BB9
:102AC000806B4905CA0FC004C10FA3A000F0B6FD7A
:102AD000664840304368C26841699FA000F0AEFD7F
:102AE000634802210170CFE1EDE18E4800780128B2
:102AF000D8D1764800680028D4D16C48FF210068FE
:102B00000F318842CED996480178C907CAD16949A0
:102B10000A78944909780A43934909780A43C1D14C
:102B20007B490C710C600121017061480470FF2029
:102B30000630B064401EF0647F4804706148046051
:102B40005F48046057A000F079FD88A000F076FD92
:102B500087480078002804D0012808D0022808D02F
:102B60000AE05B48017883A000F068FD04E083A0E0
:102B700000E083A000F062FDA868002806D00020D5
:102B80006968002904D0002103E035E10120F7E75E
:102B9000022140182968002901D0002100E0042109
:102BA00041187BA000F04AFD7BA0396800F046FD8B
:102BB0003CA000F043FD2E4804706D48F46300789B
:102BC000012807D17D203968C000814202D92748F9
:102BD00080304460214820380068012189078843FB
:102BE0001E49203908601D480068890388431B4935
:102BF000086005200007816B4C4A114081631B4F20
:102C00004037BC60816B4A4A114081633C61816BF3
:102C1000FF220232914381633C600120F8607861B9
:102C200078605F48FDF7BCFF0C4820380068390623
:102C300008430A49203908600848006889030843A6
:102C400006490860FC607C617C605548FDF7A8FF80
:102C5000F869012800D0A5E0C6E00000200001408E
:102C6000004000402400002090000020004200505E
:102C700000010020A4000020AC00002088000020FB
:102C8000D6060000090923232025643C2056203C59
:102C900025640A0A00000000090923232025642076
:102CA0003C20560A0A00000040420F000C010020A0
:102CB00037010020FD000020040100200801002051
:102CC0001401002010010020F0000020F40000207A
:102CD000ED00002025642C2025642C2025642C2068
:102CE0005B25642F25642C2025642C205D2C207B03
:102CF00025642F25642C2025647D2C2025642C2020
:102D000025642C205B25642C202564000A0A000021
:102D1000DC00002049445F4E470A0000671E0600A1
:102D20007C00002036010020673C0100FBFBFFFF18
:102D3000EFEFFFFFBC000020030100203132330A17
:102D40000000000050C300006C6F77206261747453
:102D50006572790A000000002564256425640A0074
:102D600038010020FC000020FE000020446E3D00E1
:102D7000FF000020463A25640A0000002A530A009A
:102D80002A2A204944204572726F72202A2A0A009A
:102D900048533D25640A0000563D25640A000000A2
:102DA000204E0000F6A000F049FCF8480470F848F6
:102DB00004700120F862F74F3978FEF767FEF64994
:102DC00001200871F54839780170F548F749046029
:102DD0000471F44804600471F34804600471012034
:102DE00008711020F2494EE0F2A000F027FCE849FB
:102DF00001200870E548DBE7F14F3878012803D15E
:102E0000F0490978002906D0EF4909780143ED48D7
:102E10000078014338D1ED490120C862ECA000F0F0
:102E20000DFCE8493C7001200870EB480460EB4859
:102E300000680127BF07E949B8430860E748203028
:102E40000068E649B84320310860EC60AC61E448B2
:102E5000FDF7A6FE0120E860A861E248FDF7A0FEAC
:102E6000AC61E148FDF79CFE0120A86100F0AEFBDB
:102E7000DA480068D94938430860D84820300068EB
:102E8000D649384320310860CE48007801287DD1EA
:102E9000B07A0128FBD1D54800780028F7D1BD4889
:102EA0000078012873D0D248007800280AD1D14890
:102EB00000780028FAD1D04800780028F6D1CF4910
:102EC0000120087022E1707B0128E0D1BC48007825
:102ED000C007DCD1CAA000F0B1FB6E20BB4F70640C
:102EE000FC62AA480470B748007801281BD1B07A68
:102EF000012818D1BD480078002814D1A5480078D1
:102F0000012810D0BA48007800280CD1B9480078C0
:102F1000002808D1B8480078002804D1B7480C210F
:102F20000170FDF731FBFC607C607C61B648642178
:102F30000460B6480160B64901200871B5490C70BB
:102F4000B549F4630C710C6098490C710C60B3497D
:102F50000C707463B4729A49F47208709B494031E2
:102F60004860A34FA34A397812781143A24A1278D5
:102F7000114300D1E860944901200870A84804601A
:102F80000471A8480078002807D001E0AAE0ADE06D
:102F9000A5480168A54881420BD28149814A0C604D
:102FA0000120146008711071864804700020FEF73B
:102FB0005DFC9F480078032868D03878002865D1E8
:102FC0008C480078002861D18B48007800285DD1BA
:102FD000764898490068884258D26E48007801289F
:102FE00004D09548007800282AD04FE0307C002893
:102FF00002D0012813D049E0904F1421386848438B
:103000007D21C900FDF79CF801468DA000F016FB5C
:1030100001203C603871307C401C307436E08748B9
:103020001421006848436E4988422FD27D21C9008F
:10303000FDF786F8014684A000F000FB347425E01B
:10304000EC60AC616448046064482030006801278B
:10305000BF076249B843203108607D48FDF7A0FDF5
:103060007B48FDF79DFD7B48FDF79AFD5B482030CE
:1030700000685A4938432031086000F0A7FA01205F
:10308000E860A861744804607448046047480460BC
:10309000047164480078012814D1686162490A68A3
:1030A0007D21C9008A4202D9484940314C604549D6
:1030B0003C4A0C703A490C60146008711071002091
:1030C000FEF7D4FB4B480078052803D0042801D034
:1030D000032803D13448012104600171544804706D
:1030E000554804702B48007801280FD1534F142104
:1030F000386848435A49884208D9307C012805D1AC
:1031000058A000F09BFA3C603C7134742348214F76
:1031100000783978884203D0B26B521CB26300E069
:10312000B463884214D04C480068002810D0B06BBB
:1031300002280DD34FA000F081FA474804604748A9
:10314000046039780020FEF71BFC334804710460EA
:103150002A48FDF719FA1048494E0168B14203D1D7
:103160000121A961047104600E4846490068884243
:1031700005D945480068002801D087E0C3E094E005
:103180005370656564204C4F0A0000002C0100203C
:103190007A000020ED000020C4000020EC00002098
:1031A000A4000020AC000020B4000020BC000020DF
:1031B00000E100E053706565642048490A000000A2
:1031C0003701002038010020020100204042005059
:1031D0004272616B650A000000400040000001403F
:1031E00020A10700A0860100400D0300030100207C
:1031F000FD000020FC000020FE0000200001002057
:103200000A55700A0000000030010020F000002084
:10321000DC00002036010020D40000200101002045
:1032200094000020FF00002088000020D606000047
:1032300034010020C0C62D001C010020E400002045
:1032400031313D25640A000032323D25640A000018
:10325000E093040008520000F4000020F800002071
:1032600007A50700526573657420446F75626C652D
:103270000A0000002A4572726F722A0A00000000DC
:1032800050C30000804F1200900000201FA000F0EB
:10329000D5F92C616C61EC602A4A106851068843AC
:1032A00010603046FDF77CFCEC6127480168274838
:1032B000814205D326480068002801D025480470C3
:1032C000254E2649306888421DD9214800680028CB
:1032D00019D023A000F0B2F93878012801D02D4888
:1032E000C4620120286168612A4940314860E86071
:1032F000A86129490C6029490C6029490C702949A9
:103300000870346034710BB0F0BD00002020202024
:1033100020202020202020202020202020202020AD
:103320002020202020202020202020202A2A203277
:1033300034732020506F776572206F6666202A2ACA
:103340000A00000020000140B400002020A1070076
:1033500090000020FC000020A4000020F0490200A2
:10336000202020202020202020202020202020205D
:10337000202A2A203373204C4544204F46462061A2
:103380006E642042757A7A6572204F4646202A2A5A
:103390000A00000040420050F4000020F800002025
:1033A000000100200301002010B5094C2046FDF764
:1033B0003FFA0121002209062046FDF7A9FB054836
:1033C000FEF7F2FDE1210903034800F007F810BD04
:1033D000103D80571000000400000540F0B5044681
:1033E0001C480D460FC885B06E460FC61A48416985
:1033F00080698A010321960F0005070F00202063D2
:10340000E160A06815490840A060012E02D1FDF7D7
:10341000F1FA0190002D1BD0B10068464058791C8C
:10342000FCF78EFE0646690840182946FCF788FE20
:103430000B49801E884207D9E90070182946FCF71D
:103440007FFE0009801E02E0032109070843606235
:1034500005B0F0BD68420000000200500FFFF0FF11
:10346000FFFF000070B50E4C0146207B0D4D820021
:10347000A95000260321401CFCF762FE21730024A2
:10348000A00029583046FCF783FE641C0646032C36
:10349000F6DB0549FCF712FF01498031886070BDF9
:1034A0003C010020DC0B00200000404070B50E4CB9
:1034B0000146A07B0D4D8200A95000260321401C2F
:1034C000FCF73EFEA1730024A00029583046FCF70B
:1034D0005FFE641C0646032CF6DB0549FCF7EEFE96
:1034E00001498031086170BD3C010020F40B0020CF
:1034F000000040401C48012101601C4A642010600B
:103500001B4A002010701B4A10701B4A11701B4A86
:1035100010701B4A10701B4A10601B4A10601B4A37
:1035200010601B4A106010711A4A106010711A4A1C
:1035300010701A4A11701A4A10701A4A10701A4AFA
:1035400010701A4A10701A4A10701A4A11701B4AE9
:1035500019491160FF211A4A5F311160194A490067
:10356000116019490870704790000020F000002099
:103570003401002002010020ED00002003010020A2
:1035800000010020AC000020A4000020B4000020B6
:10359000DC000020E40000200101002036010020B2
:1035A0003701002038010020FC000020FD00002031
:1035B000FE000020350100203202000080000020C3
:1035C00084000020280100202C01002010B5592182
:1035D00016231148882202E001600360026004683B
:1035E000012CF9D12B2464062046FDF721F9002295
:1035F00003212046FDF78CFA0122002303219002CB
:1036000000F00EF8054801684022114301600120D6
:10361000FEF7CAFA10BD0000000100500040004053
:1036200010B5054C61605100014318010143802031
:103630000143216010BD0000004000400FB410B5F0
:1036400003A9044B044A029800F024F810BC08BCFB
:1036500004B01847DD3C00000C00002030B4744674
:10366000641E2578641CAB4200D21D46635D5B007E
:10367000E31830BC184702E008C8121F08C1002A2E
:10368000FAD170477047002001E001C1121F002AE3
:10369000FBD17047FFB58FB00F460446002606E009
:1036A00025280AD0129A11999047641C761C20781C
:1036B0000028F5D1304613B0F0BD002501219F4A06
:1036C000009500E00543641C23780846203B9840A1
:1036D0001042F7D120782E2815D1042005436078B8
:1036E000641C2A280AD101CF641C00900BE00099C9
:1036F0000A22514330394018641C0090207801465A
:1037000030390929F3D920786C280ED004DC4C28F4
:1037100013D06A2812D104E074280ED07A280DD173
:103720000BE001204005054307E00121090562780F
:103730000D43824201D16D18641C641C20786928F5
:1037400049D008DC0028B5D058286CD063280FD0A9
:10375000642808D13FE070286AD0732811D07528FA
:103760005FD078285FD0129A11999047761CE3E0D9
:103770003878694608720020487202A8019001203A
:1037800003E0386801900020C0433F1D69070CD555
:10379000002500E06D1C00998D420FDA8542F9DBAF
:1037A0000199495D0029F5D108E0002500E06D1C74
:1037B0008542FCDB0199495D0029F8D1761907E0C3
:1037C000019801990078491C0191129A119990472A
:1037D0006D1EF5D2B0E00A20029000216802400F71
:1037E000039102280CD001CFC117844600290DDABD
:1037F00060460A4640420021914184462D2008E05F
:10380000FF1DFF08FF0003CF8446EFE7280504D51E
:103810002B206A46107401203DE0E8073BD02020B1
:10382000F7E70A2000E0102000210391029007E052
:1038300010200290002104200543082003910090ED
:103840006802400F022811D001CF002184460020D9
:103850000D90280720D52078864670280CD0029A33
:103860001020039B42401A430CD015E0FF1DFF08B7
:10387000FF0003CF8446EAE740206A461074012027
:103880000D900CE06046084306D030206A46107464
:103890007046507402200D902078582804D028A03B
:1038A00001900DA80E900DE02AA0F9E76046039B59
:1038B000029AFCF78BFD019B84469B5C0E9A521E7C
:1038C0000E92137060460843F0D10E9805A9081AAD
:1038D00020300190680701D40120009000990198E0
:1038E000814201DD081A00E000200025009006E07A
:1038F00004A8129A405D119990476D1C761C0D9892
:103900008542F5DB04E0129A302011999047761C2D
:103910000099481E00900029F5DC08E00E980E99E9
:103920000078491C0E91129A11999047761C0199C2
:10393000481E01900029F1DC641CB8E6092801004A
:103940003031323334353637383961626364656615
:1039500000000000303132333435363738394142D7
:10396000434445460000000030B5404D0024AC63A0
:103970002B468033AC671C601C642C64EC676C675E
:103980005C643B486C640068A8643A492A2008607B
:103990006C85AC85EC8539482C86374A02603749FE
:1039A0003748383108601C390A60383108602C8487
:1039B0006C84EC842C85EC702C71EC712C7031488B
:1039C000AC700460304804603048046030480460E3
:1039D000304804602C726C72AC722F485C600460DA
:1039E0006C70EC76AC71AC83EC83EC72FEF708F98A
:1039F000FEF71AF9FEF72CF9FEF73EF91F490020F1
:103A000024398200401C8C500328FADB1B4900201B
:103A100018398200401C8C500328FADB6C74AC709F
:103A20002C71AC749C60DC605C611C489C6104601F
:103A30006C716C861A48DC610470EC732C74FF2086
:103A400028756C75AC75AC841C625C62DC621C63AE
:103A50005C639C63EC749C62AC86DC63EC752C76D6
:103A600000F03EFB6C76AC7630BD00003C010020DF
:103A7000880000206400002091050000000C002058
:103A8000980800007400002038000020400000204A
:103A90004400002060000020F0000020F40000201E
:103AA00020000020F3B51E4D1C2081B0285EFCF7DD
:103AB00043FCFFF7D7FC1B4C2068FCF748FCFFF7E2
:103AC000F5FC2A468032D069174FC72812D8134612
:103AD000810048333E685E50C918144E03231B0210
:103AE0003668CB181E620326760289192368401CAB
:103AF0000B64D06101202871D1690A2905D17D228A
:103B00003968D200914200D228716978012902D027
:103B10002870074820600198E88402982885FEBD37
:103B20003C010020F0000020F400002010010020E3
:103B3000A2080000F3B51F4C1C2081B0205EFCF7EA
:103B4000FBFBFFF78FFC1C4D2868FCF700FCFFF720
:103B5000ADFC22468032D069184FC72812D81346D0
:103B6000810048333E685E50C918154E03231B027E
:103B70003668CB181E620326760289192B68401C12
:103B80000B64D061014601200A2904D10D493A682D
:103B90008A4200D220716178012905D0217901295A
:103BA00002D12070084828600198E084029820859E
:103BB000FEBD00003C010020F0000020F4000020C9
:103BC000100100203A020000A2080000F0B584466F
:103BD00019481A491A4AC4690B681168C72C0ED8CB
:103BE000184D06462F68A50048367751AD190326B3
:103BF0003602AE19336203267602AD192964641CBD
:103C0000C4610D4C803C607800280ED160790E4D67
:103C1000012809D0022802D0042805D005E0642933
:103C200003D31439116000E015606046208463847A
:103C30001088A084F0BD0000BC010020100100200D
:103C4000F0000020F4000020A2080000F0B5844637
:103C50001D491E48CA690668084680381E2A05D9CB
:103C6000038C9B1B142B01DD012343711849194B55
:103C70000C681968C72A0CD8134F950048377E5135
:103C80000326ED193602AE19346203267602AD1909
:103C900029640D4D521CEA614278002A0ED1427906
:103CA0000D4D012A09D0022A02D0042A05D005E0D0
:103CB000642903D31439196000E01D606146018452
:103CC000448419888184F0BDBC010020F4000020E8
:103CD00010010020F0000020A208000000B50346FB
:103CE000FEF79EF9184600BD654C59221620882122
:103CF00002E02260206021602368012BF9D1FEF7E9
:103D00003FF900252560FFF7F5FBFDF771FBFFF795
:103D10004BFBFDF7B1FFFDF79BFFFDF785FFFDF7BF
:103D20006FFFFEF761F8FDF78DFDFCF7FFFB5548CF
:103D3000016855A0FFF782FC57A0FFF77FFC5BA04E
:103D4000FFF77CFC5DA0FFF779FC5FA0FFF776FC36
:103D50005FA0FFF773FC61A0FFF770FC0122114622
:103D600062A0FFF76BFC664CE06864214843FCF7F7
:103D7000E7F964214843E168FCF7E2F9014661A0F4
:103D8000FFF75CFC65A168A0FFF758FC42A0FFF7B5
:103D900055FC694C69A0E268A168FFF74FFCFDF78C
:103DA00089FC6A4A9068002805D0002051680029E3
:103DB00003D0002102E00120F8E702214118106839
:103DC000002801D0002000E00420091860A0FFF7BF
:103DD00035FC0126634840210160802101600520F7
:103DE0000007816B604A11408163584940318D6002
:103DF000CD60826B5D4B1A4082630D614D61826BB9
:103E0000FF2302339A4382630D604D60FEF7B4FADC
:103E1000FCF7FCFE00210120FDF7D0FE012102206D
:103E2000FDF7CCFE01210420FDF7C8FE002108208B
:103E3000FDF7C4FE03210920FDF7C0FE4CA0216957
:103E4000FFF7FCFBFFF7C2FB6670267020780028A6
:103E500003D06078002800D1257020780128F5D0A3
:103E60006068012802D0FFF77FFDEFE7A078012806
:103E700002D000F0DFF8E9E700F082F8E6E70000A2
:103E800000010050000000200A0A43505520202560
:103E90006420487A0A0000002A2A2A2A2A2A2A2A82
:103EA0002A2A2A2A2A2A2A2A2A0A00002A2A2050CA
:103EB00054412D583530462000000000506F6C658D
:103EC0007320325F5F0000005657550A0000000063
:103ED0002A2A2049443A5965732C00002042757AF9
:103EE0007A65723A5965730A000000002A2A204652
:103EF0002F57203D205625642E30256441200A008E
:103F0000000004402A2A204D6178204475747920ED
:103F10003D2025642525200A00000000323032357E
:103F200030353136000000002A2A2053564E203DFD
:103F30002025732020200A0078000020312F342013
:103F40003D2025642C2025640A000000004200501A
:103F500048616C6C2053656E736F723D2025642040
:103F60000A00000000E100E0FBFBFFFFEFEFFFFFB6
:103F700042617474657279203D25640A0000000076
:103F8000F8B52548017803291DD3244D002101707F
:103F900029682348491C296007782248224A234E71
:103FA0002C46336800681268803C002F0CD0012931
:103FB0001FD0032907D12178002926D0FCF782FFE2
:103FC000A06B401CA063F8BD012908D00329FAD1D9
:103FD00091B280B2FFF7FAFD00202860F8BD236798
:103FE000FCF7B5F9FEF788F808E03168081830608A
:103FF000F8BD2367FCF7ABF9FEF72CF8E066216FFC
:1040000042180B498A42F3D2EFE791B280B2FFF730
:1040100049FD00202860D3E73A010020BC010020C0
:10402000ED000020F400002010010020F00000202E
:10403000A3080000F8B52348017803291CD3002405
:10404000214D0470696F2148491C69670778204831
:10405000204A214E006833681268002F0DD00129D4
:104060001ED0032908D12978002925D0FCF72AFF82
:10407000A86B401CA8636C67F8BD012906D0032912
:10408000FAD191B280B2FFF7E1FDF4E72B67FCF7BC
:104090005EF9FEF7D5F808E0316808183060F8BD21
:1040A0002B67FCF754F9FEF779F8E866296F421898
:1040B0000A498A42F3D2EFE791B280B2FFF73AFDA4
:1040C0006C67D5E73A0100203C010020ED0000209C
:1040D000F400002010010020F0000020A3080000E0
:1040E000F0B52448244D01780020244E244F254B60
:1040F000254C264A012920D0D16F00291CD11070EF
:10410000286023490860306022493860886148612E
:104110008B60CC6050650D461C355066A8616861A7
:10412000AB60EC6090651C4B90660B601146803173
:1041300048641A4990700870F0BD916F0029FBD156
:1041400010702860124908601249306038313860B8
:10415000886148618B60CC60D0641C31D065886117
:1041600048618B60CC600949106580311066086435
:10417000DFE700007A0000207400002040000020EB
:10418000440000200AD7A33DCDCC4C3D3C0100208B
:1041900038000020000C00209105000039010020AB
:1041A00010B50446016810A0FFF748FA11A0616835
:1041B000FFF744FA12A0A168FFF740FA13A0E168E4
:1041C000FFF73CFA14A02169FFF738FA15A06169DE
:1041D000FFF734FA16A0A169FFF730FA17A0E169DA
:1041E000FFF72CFA10BD0000723020203D203078FF
:1041F00025780A00723120203D20307825780A0089
:10420000723220203D20307825780A007233202039
:104210003D20307825780A00723132203D203078F8
:1042200025780A006C7220203D20307825780A001D
:10423000706320203D20307825780A00707372204A
:104240003D20307825780A00001BB70000000000F0
:1042500080F0FA02102700000000000000000000BB
:104260000000000000805101001BB70000000000AA
:104270000000000000805101001BB700000000009A
:104280000000000000805101001BB700000000008A
:104290000000000000805101001BB7001027000043
:1042A0000000000000805101000000000400000038
:1042B00000000000000000000100000000000000FD
:1042C00000000000000000000200000000000000EC
:1042D00000000000000000000000000000000000DE
:1042E000000000000000000003000000001BB700F9
:1042F00010270000000000000080510100000000B5
:1043000004000000000000000000000001000000A8
:10431000000000000000000000000000020000009B
:10432000000000000000000000000000000000008D
:10433000000000000000000000000000030000007A
:104340006043000000000020640B0000763600008F
:10435000C44E0000640B00200C03000086360000F1
:1043600080F0FA023200000080F0FA020000000043
:10437000000000000000000000000000000000003D
:10438000000000000000000100000000000000002C
:10439000000000000000000000000000000000001D
:1043A000000000000000000000000000000000000D
:1043B00000000000000000000000000000000000FD
:1043C00000000000000000000000000000000000ED
:1043D00000000000000000000001000000000000DC
:1043E00000000000000000000000000000000000CD
:1043F00000000000000000000000000000000000BD
:1044000000000000000000000000000000000000AC
:10441000000000000000000000000000000000009C
:10442000000000000000000000000000000000008C
:10443000000000000000000000000000000000007C
:10444000000000000000000000000000000000006C
:10445000000000000000000000000000000000005C
:10446000000000000000000000000000000000004C
:10447000000000000000000000000000000000003C
:10448000000000000000000000000000000000002C
:10449000000000000000000000000000000000001C
:1044A000000000000000000000000000000000000C
:1044B000FF000000000000000000000000000000FD
:1044C00000000000000000000000000000000000EC
:1044D00000000000000000000000000000000000DC
:1044E00000000000000000000000000000000000CC
:1044F00000000000000000000000000000000000BC
:1045000000000000000000000000000000000000AB
:10451000000000000000000000000000000000009B
:10452000000000000000000000000000000000008B
:10453000000000000000000000000000000000007B
:10454000000000000000000000000000000000006B
:10455000000000000000000000000000000000005B
:10456000000000000100000000000000000000004A
:10457000000000000000000000000000000000003B
:10458000000000000000000000000000000000002B
:10459000000000000000000000000000000000001B
:1045A000000000000000000000000000000000000B
:044EC00000000000EE
:04000005000000F502
:00000001FF
